:10000000F01F0020C1000000D5000000D700000054
:1000100000000000000000000000000000000000E0
:10002000000000000000000000000000D9000000F7
:100030000000000000000000DB000000DD00000008
:10004000C91D000081140000F91D0000471E0000BA
:10005000DF000000ED000000AB150000E70000002D
:10006000E7000000E7000000E7000000E7000000F4
:10007000E7000000E7000000E7000000E7000000E4
:10008000E7000000E7000000E7000000E7000000D4
:10009000E7000000E7000000E7000000E7000000C4
:1000A000E7000000E7000000E7000000E7000000B4
:1000B000E7000000E7000000E7000000E7000000A4
:1000C0000348854602F07CF800480047571E0000B0
:1000D000F01F0020FEE7FEE7FEE7FEE7FEE7FEE793
:1000E000FEE7FEE7FEE7FEE7FEE7FEE7FEE7FEE7E8
:1000F0000A4603467047FEE7704700000000000014
:100100004F435441000000000000000000000000C8
:1001100000000000000000000000000000000000DF
:10012000524130385641303132303131303532374A
:1001300010B55B2109019E4802F02DF85B21C90032
:100140009C4802F028F8FF216D319B4802F023F80B
:1001500000209A49C0439A4A0880108005234880AD
:100160005080091D121D088010805B1EF7D110BD44
:10017000F0B594480021415685B0934802910D2274
:10018000192102608160002141600D46C160EA01D1
:1001900003926822864B6A43D218019286481A223B
:1001A0006A4310180090834934200024684346189D
:1001B00003986200811885480F180421795EB05EAB
:1001C000B152401A00D54042042803DD00980022B5
:1001D000025506E000980057052802D0009A401CFE
:1001E00010550198A300C258C80184460121101A75
:1001F0008902884211DD74494A68AA4200DA4D60DA
:10020000CA68A24200DACC600A68AA4200DD0D602A
:100210008A68A24211DD8C600FE06D49884208DADD
:10022000002A0AD101996246CA50009900220A5553
:1002300003E0C111521A0199CA50029900290BD04A
:10024000FF210131884204DD410262480818001490
:100250000FE00020B8800DE0002817DD002C03D04F
:10026000192C01D0C01104E0C0114000032101F09D
:1002700077FFB880641C1A2C9ADB6D1C0E2D86DB70
:1002800051490868022803DD801E04E00020F0E7E1
:10029000012801DD401E08608868022801DD801EFB
:1002A00002E0012801DD401E886048680C2801DA60
:1002B000801C02E00D2801DA401C4860C86818283C
:1002C00001DA801C02E0192801DA401CC8604248AB
:1002D000007800280DD041A000F002FF344D00242A
:1002E0006820604341191A2000F05AFF641C0E2C4C
:1002F000F6DB05B0F0BDF8B500223C4B11460024FA
:100300000D2095012E19F6187170B170A41C401EB5
:10031000F8D1521C0E2AF2DB354F36480122D501A6
:10032000EE19318094012418217071806170324E71
:10033000AD196983617729832177521C112AEEDB7D
:100340002E4E2F4B01223D46540067193980171855
:1003500039702C4FE7193980244FD7193970A719F4
:100360003980D7183970284FE4192180274C141987
:100370002170521C1D2AE7DB29801F4A51833180DE
:10038000234A5183017041771970597721480078C9
:1003900000280CD020A000F0A3FE224D0024E00194
:1003A00041191A2000F0CCFE641C0E2CF7DBF8BDBE
:1003B0002C000020DC050020B4080020120D0020D5
:1003C000280D002011000020000000200041004006
:1003D00000FCFFFF0000FEFF1B0000205265666569
:1003E00072656E636520496D61676500402000405D
:1003F0000040004000200040204000408048004075
:10040000402400408040004000480040002400405C
:10041000A04800401C000020496E74656E7369742A
:100420007900000004410040F0B5D3B00024FF483B
:10043000C4210668FE4800680394089404940D944F
:10044000059406940794099412900A940B940C94C2
:100450000E9421A801F09FFEF648007800280CD0E9
:10046000F5A000F03DFEF74F0025A801C1191A20A4
:1004700000F009FE6D1C0E2DF7DBF34803214156F9
:10048000022901DA032000E00A201A90EF48761CC6
:1004900005681396B54239DA129A521CEC4B129E3B
:1004A00018680021361A771C002F01DD0121B143A5
:1004B0000B1883420FDDAE01E64B3718FB180227FD
:1004C000DF570C2F01DD00279F70E14B401C1B689C
:1004D000CB188342F0DCDE4800680818904211DA3D
:1004E0000026AB01DB491F1879180227CF570C2FC4
:1004F00000DD8E700327CF570C2F00DDCE70801CDF
:100500009042EFDB13986D1C8542C7DBCF481399EF
:100510000068029088427EDA1298401C1B90CC48FA
:1005200002681B98824277DA0298C0B22090029843
:10053000C0011C90029880011F908018C549844614
:100540004318022018561C9D51006D18C2496D18A1
:100550000421695E002809D003AD2E5C8E4205DCC3
:10056000295407AE209D35540BAD2A54844200DA3D
:10057000C4B2002853D11A98814250DDB74DFF20F4
:1005800065446E780021AF78ED781D96DE7815977A
:100590006746AC46B24D17967D19EF78AE786D7808
:1005A00018975F7819961D9E002E03D00121FF2E0B
:1005B00000D23046159E002E03D0491C864200D240
:1005C00030466646002E03D0491C844500D2304692
:1005D000179E002E03D0491C864200D23046189E3A
:1005E000002E03D0491C864200D23046199E002EB0
:1005F00003D0491C864200D23046002D03D0491C4E
:10060000854200D228463D0003D0491C874200D2D3
:100610002846002901E094E007E000D098701B987C
:10062000521C824201DA1F9887E702981399401CF6
:100630000290884200DA72E70220641C1494019050
:10064000022C7ED9019907A8425C01980BA9085C8D
:10065000921C801C8446D10140000918814808186A
:100660000024045F804BCD181E23EB5E1B1D9C42B3
:1006700021DC0024045F7D4BCD180023EB5E0933A1
:100680009C4208DD0024045F794BCD181E23EB5EED
:1006900009339C420FDC9501764C654401232C19EB
:1006A0000026A657744C2D191F242C570E2721AD58
:1006B0007C43641933550025455F6C4BCC180223ED
:1006C0001594E35E1B1D9D421EDC0025455F2346FD
:1006D00000241C5F0934A54206DD0024045F0223C8
:1006E000C35E09339C420FDC950164462C19614DB1
:1006F000012365190026AE57604D6519EC560E278B
:1007000021AD7C43641933550024045F5C4BCD1844
:100710001E23EB5E1B1D9C4224DC0024045F594B0E
:10072000CD180023EB5E09339C4208DD0024045FF2
:100730004F4BCD181E23EB5E09339C4212DC012384
:1007400000E0D0E0950164462C194A4D6519002659
:10075000AE574D4D65191F242C570E2721AD7C43F4
:10076000641933550024045F464BCB1802251693B9
:100770005D5F2D1DAC421DDC0025455F00241C5F24
:100780000934A54206DD0024045F0223C35E093359
:100790009C420FDC950164462C19364D01236519E6
:1007A0000026AE572D4D6519EC560E2721AD7C4322
:1007B000641933550023C35E159C0025655F2D1D0C
:1007C000AB4210DC950164462C192A4D01236519B2
:1007D0000026AE57294D651900242C570E2721AD50
:1007E0007C43641933550025455F169C0023E35E66
:1007F0001B1D9D4210DC950164462C191D4D0123E3
:1008000065190026AE57154D651900242C570E2783
:1008100021AD7C43641933550024045F144BCB187D
:100820001E21595E091D8C4241DC2FE0040000208E
:100830000C0000201D00002047726F757020496D6C
:100840006167650082200040100000200000002049
:10085000080000208020004000410040402000406F
:10086000C020004000400040603F0040803F00400A
:10087000E03F004000200040A01F0040C01F00409B
:1008800060400040804000402020004094016146CC
:100890006118FD4C01230D1900242C57FB4D4919FB
:1008A0001F254D570E2621A975436918635400234F
:1008B000C35E0221415E091D8B420CDC9201F248AD
:1008C0006244012110180023C35642560E2421A869
:1008D00062431018195401981499401CC0B2019039
:1008E000884200D2AEE60D2121A801F054FC02217D
:1008F000012421A80022002908DD0E2353431B18E0
:100900005B5C012B11D0521C8A42F6DB491C0D297D
:10091000F0DB002501462A460D2300240C57002C4D
:100920000FD06D1CEDB2045D0CE08356002B01D09E
:10093000435400E042540E224A4312185218D47312
:10094000E4E7541B0C70491C521C5B1EE5D1D049D6
:100950000E6813998E4215DA129ACE4F521CCE4968
:10096000096891420ADAB4016318DB199D7845578A
:10097000002D00D09D70491C9142F5DB1399761C27
:100980008E42ECDB53B0F0BDF0B59BB0FFF74CFDF1
:10099000C248C4490568C248C34A04680020C34B22
:1009A000C34E0090019002900D2703900020C04399
:1009B00001C1002001C201C33070761C7F1EF5D139
:1009C000BC48007800280CD0BBA000F089FBBE4FCB
:1009D0000026B001C1191A2000F055FB761C0E2E1E
:1009E000F7DB00200990AA486D1C00680B95069063
:1009F000A84258DAA848641C00680E900E98A042DD
:100A00004BDA069989018C460699C9010D91614618
:100A10000A18A049511802228A56002A3AD0099988
:100A2000914200DA09920D9D41006918A74D531EAD
:100A30004D190421695E95009A4E2D1F7759069D28
:100A400096004D437D19974F361FBD519200964E2B
:100A5000121FB258002807D0182808D019283CD0F7
:100A6000C5002D1D4D4305E08D006D4202E0C627F7
:100A70000D467D43AA189D0072518C4A565976182E
:100A800056513432D55C6D1CD5546A46D55C8D42C6
:100A900000DAD154401CA042B9DB0698401C0690F5
:100AA0000B998842AADB8A4909988870099800281E
:100AB00063DD68460B907E480C907C4F854E794CE8
:100AC000794D0998049001CF0690002848D00B98E2
:100AD00000780C2804D2012003E0D4254D43C9E757
:100AE000002030702D212068090148430D2101F0BC
:100AF00037FB069901F034FB00212060002800DD5F
:100B00000146216005212868090248431A2101F0A5
:100B100027FB069901F024FBC117490F0818C010E4
:100B200028600C980078322802D9694901200870A1
:100B30002068002802DA0020206005E02D2109014C
:100B4000884200DC014621602968002902DA002081
:100B5000286005E005200002814200DC084628608C
:100B60000B98761C401C0B900C98241D401C0C907C
:100B700004982D1D401E0490A5D1099800287ED010
:100B80005348002141705448007800283DD000208F
:100B900006900790089009900A900B900C900D9089
:100BA0000E900F9010901190129013900DA8199024
:100BB0003E4C3F4F0D2006AD6E460490307839789C
:100BC00004CC2A800A22761C7F1CAD1C504301F005
:100BD000B1FA199908801998801C19900498401E40
:100BE0000490EBD13DA000F07BFA69460D2000F0A7
:100BF0004AFA2F490D2000F046FA06A90D2000F010
:100C00009FFA0DA90D2000F09BFA0020431E274CEF
:100C10000793069022683648521012B20492354962
:100C2000354A0B250023DB4303800B801370801CA7
:100C3000891C521C6D1EAC46F4D125490220085671
:100C40000990604640002D490A90085E0B90401CB8
:100C50007ED0604680002A4D009029582948081807
:100C600001900390099800286DDD0E4822490E4A34
:100C7000099C002305686E1C5FD0002600E043E05D
:100C80008E57761C44D058E000200040E01F004002
:100C90000000002080200040080000200400002008
:100CA0000C000020400B0020740B0020A80B00203B
:100CB000DC0B00201D00002047726F757020496D0D
:100CC0006167653200000000822000400041004062
:100CD00010000020540A00201E000020496E746598
:100CE0006E736974792050726F66696C65000000DC
:100CF000F60B00200C0C0020E90B0020440C002017
:100D0000200A002010270000C849012048703AE757
:100D10000B9E1768AE1BB646C54D0A9EAD5F764664
:100D20007D1B76436D437519019EB54205DA5EB2AF
:100D30000796C04F009E0195BD51001D491C121D14
:100D40005B1C641E96D10399019888421FD000E075
:100D50001DE00798B8498000B84A0A9B0958D1524B
:100D6000B749B84A0A9B0958D152B749B74A0858F7
:100D70000A995052B6480799425CB64861464254B7
:100D80000698B549401C0690079A6046885460460C
:100D9000401C84460B2800DA53E70020099A0146DC
:100DA000002A20DDAD4AA54CA64FAB4B5B565B1C21
:100DB00015D1099B012B05DDA34B8D005D59049BCB
:100DC0009D420CDBA64B5B5C002B08D10B2806DA9E
:100DD0004300D35E5B1C7ED0401C0B28F8DB099BD4
:100DE000491C9942E1DB914B069898709549002087
:100DF000D8708C46914D99488D4A16310B24634624
:100E00001E889B1C9C460023CB5E2F889E46078035
:100E1000931C16801A4673465B100B800023C35E3A
:100E2000AD1C891C801C5B1C03D0804EF3785B1CBE
:100E3000F370641EE3D1834A60008718163282186B
:100E40001192844A7D491219069246181422854B44
:100E50006243085ED518401C7ED00020285603212E
:100E6000421C032A00DC114648B20E906888119A91
:100E700040B28446C01CC10F091849084900401AF5
:100E800040B20890002000210023305E795ED35EDE
:100E90000190069802786046400000930392029108
:100EA00040190423C35E08219C460C221023415E96
:100EB000825EC35E0E980A9102280793049269DD50
:100EC00001996046431A08466146401A00D4034619
:100ED00002990A9800E086E00A9A401A891A00D41A
:100EE00008460B9000990498049A401A891A00D475
:100EF0000846109003990798079A411A0398801A98
:100F000000D401460B98624618180B904B20C00085
:100F10000F9142434B210B98C90041184810099189
:100F20001218139001990B9841435018099901F038
:100F300017F900B201904B200A99C0004143139861
:100F40000A1802990B9841435018099901F008F9C1
:100F500000B20290642100E05EE00498109B4843D8
:100F6000109964314A10821800985843101801F003
:100F7000F7F800B2009007980101081A0F990F3195
:100F80004A108318039A0F984243981801F0E8F822
:100F900000B2039001993180089840004019818087
:100FA000029939800181119A0099118081810399F8
:100FB000069AC9B211700182089868800E9828704C
:100FC0000E98022809DA0020C04330803880174884
:100FD000C178491EC17000214170641C0B2C00DADD
:100FE00029E71BB0F0BD144B8D005E594300E6525B
:100FF000134E7659FE52144E75597A36F552144BEB
:1010000086005D5C5C331D540A4D0023AB51069B8A
:101010005B1C401C0693E2E600202870401E3080D6
:101020003880DAE710B500F0EFF810BD10000020AE
:101030005A0C0020200A0020400B0020F60B002054
:10104000740B00200C0C0020A80B0020220C0020A8
:10105000DC0B0020380C0020E90B0020440C0020A1
:10106000540A0020620A0020F94A11547047F849D6
:10107000085C7047F748412101700122427081707D
:101080000821C1707047F44AD27A002A27D0F8B5F7
:101090000246F24D40322A70687000240222234634
:1010A00000280BDDE700CE5C7F19BE54521C082AD5
:1010B00001D1641C00225B1C8342F3DBE64C02205E
:1010C000E0700025A57000F075FE6571A078E178EC
:1010D0008842FBD300F073FE01206071F8BD7047B9
:1010E000F8B5044601F063F8C1B2DB48C07A0028C5
:1010F00025D00846D94DC0302870697000200222E2
:10110000034600290BDDC700E65C7F19BE54521C64
:10111000082A01D1401C00225B1C8B42F3DBCE4C21
:101120000220E0700025A57000F044FE6571A078F3
:10113000E1788842FBD300F042FE01206071F8BDE7
:10114000C54AD27A002A2AD0F8B50246C34D803269
:101150002A70687000240122234600280EDD5D00FD
:101160004F5BBE4EE500AD195600AF53521C042A2A
:1011700001D1641C00225B1C8342F0DBB64C0220D0
:10118000E0700025A57000F015FE6571A078E1788B
:101190008842FBD300F013FE01206071F8BD704758
:1011A000AD4AD27A002A2ED0F8B50246AB4D803235
:1011B0002A70002401222346002813DD9D004D598A
:1011C000E700EE17760E75196D022E0CA34D7D19F2
:1011D0005700EE53521C042A01D1641C00225B1CF0
:1011E0008342EBDB9C4C0220E0700025A57000F0F0
:1011F000E1FD6571A078E1788842FBD300F0DFFD66
:1012000001206071F8BD7047F8B59348C17A002994
:1012100002D0934909789BE08F4800790028FBD1E0
:1012200086460146102084468E4800220B2903DAA8
:101230000B22521AD207D20F54188C420EDD8A4D5F
:101240008A4F4A00AB5E865EB3422BD1884B9B5ED1
:10125000BA5E934226D1491C8C42F2DC21460B2C0B
:1012600020DA834B814C4A007F4D875EAE5EBE42E2
:1012700018D19E5EA75EBE4214D155190226AE5FFC
:1012800015180227EF5FBE4207D1D5180226AE5FC0
:1012900012190225555FAE4201D0491C02E0891C9B
:1012A0000B29E0DB0B292CD06F4B4A009B5E5C1CAA
:1012B00050D0845E0D07641C2D0F684CA035664627
:1012C000A5556B4DF026AF5A64443D1135401E05BF
:1012D000360FAD1966466570A370E770654DAD5A5F
:1012E0002571654D6D5C65718352614B491C9C5A3B
:1012F0005E4B9C52B21D94467246521C96460B2978
:1013000093DB59495A4A0C880480584B15880524A8
:101310001D804F8805466F801E465588091D001D9B
:101320007580121D0D881B1D05801588641E1D808B
:10133000EFD14A497046C873002806D0464C0120B8
:10134000207100F037FD0020607145480178424867
:101350008173F8BD0C07240F404D20346646AC5510
:10136000424CA55A00952C11F025875A2C403D057A
:101370002D0F6519394C64446570A770009DE570A8
:101380003C4DAD5A25713C4D6D5C6571ACE770B557
:101390003A4B01220025304C002815D005210907C1
:1013A000012818D0A02815D1087BE072087B1A28E4
:1013B0001AD000200346062B46D27B441B79DB184B
:1013C0009F444220272E353C1D70227100F0F7FC0F
:1013D000A570E57070BD087B0028FBD11A7000F085
:1013E000EEFCA570E57070BD22732271A570E570EA
:1013F000174C002043181B7B82B2A354401C0528C5
:10140000F8DB70BD4B7B9B0701D5A2711CE0A57179
:101410001AE04B7B5B0701D5E27115E0E57113E043
:101420004B7B1B0701D522720EE025720CE04B7B33
:10143000DB0601D5627207E0657205E04B7B9B0617
:1014400001D5A27200E0A572401C0828B2DB70BD75
:10145000080D0020D00C002014000020700C00208B
:1014600013000020120D0020F60B0020280D002094
:101470000C0C0020220C0020380C0020240000203E
:10148000F8B505242407207AA77A0607360F494DB8
:10149000012E06D0082E30D0022E48D0042E63D064
:1014A0007BE0E878002800D000276F7000F087FC10
:1014B00001206871A82F17D03F48F02F1AD0C15DC6
:1014C0002173C019417861738178A173C178E17388
:1014D00001792174417961748179A174C079E074D2
:1014E00068780830687058E03448017A2173407A8F
:1014F0006073F5E7006EE060F2E769782E48425CC1
:1015000022734018417861738178A173C178E173C7
:1015100001792174417961748179A174C079E07491
:1015200068786021083000F005FE697035E0687B5E
:1015300001280BD0082809D0E07A0107090F05D04F
:101540003846FFF724FF00202870E870102F04D1E0
:101550002879012801D100202871E87800281CD0C2
:10156000A878401CA87018E0E0682978144F89001A
:1015700078502878401CC0B228700C2100F0DAFDA9
:10158000297020692978890078502878401CC0B2D9
:1015900028700C2100F0CEFD2970012020726E739E
:1015A0001020207200202072F8BD012005210907BB
:1015B0000872704714000020700C0020080D0020F5
:1015C000D80C0020F0B5FFB0C8B05B21C90010A84E
:1015D00000F0E1FDD9480421417000F003FC00F067
:1015E000FDFB00F011FC00200090D5484178827886
:1015F00048080990D248C17850080A90D04802792A
:1016000048080B90CE48417950080C90CC4882791C
:1016100048080D9050080E90CA4801784908019179
:101620004178827849080291C37851080391027980
:101630005908049143795108059181795808069019
:10164000BF4802784808079050080890FF2000998A
:1016500000220130401AC4B2019990014618BA49DB
:1016600076183470029E861976183470039E861997
:1016700076183470049E861976183470059E861983
:1016800076183470069E861976183470079E86196F
:1016900071180C7008994618AC4976183470099E78
:1016A0008619761834700A9E8619761834700B9E47
:1016B0008619761834700C9E8619761834700D9E33
:1016C0008619761834700E9E801940180470521CCA
:1016D0001A2AC1DB00F086FB00F080FB00F094FBCF
:1016E0000020864670463421484310A941187046B0
:1016F0001A225043964A7546831800221A20ED019B
:10170000AC46664655007619924D75190426AE5FB3
:101710000027CF5FBE4202DDAD880D801C70891CA2
:101720005B1C521C401EECD17146491C8E460E2992
:10173000D8DB0099491C49B20091142986DB7F4906
:1017400002224A70824E019B8101345CCD187E4B8F
:10175000641EED182C7032183424A45C029D641EA3
:101760004D19ED182C706824A45C039D641E4D195E
:10177000ED182C709C24A45C049D641E4D19ED187A
:101780002C70D024A45C059D641E4D19ED182C709E
:10179000FF240534A45C069D641E4D19ED182C70C1
:1017A000FF243934A45C079D641E4D19EB181C708E
:1017B000089B927ECD18654B521EED182A700122AF
:1017C000342415466543624C2C1925185C4CAE7EBA
:1017D000A75C761E7F08CF19FF183E70A41840350D
:1017E0006478AD7B64086D1E0C19E4182570921C9A
:1017F000072AE5DB401C1A28A4DB574E3078002866
:101800001BD056A0FFF76CFC514D00241A206043FA
:1018100041191A20FFF737FC641C0E2CF6DB3078D8
:1018200000280AD0002410AD3420604341191A204A
:10183000FFF786FC641C0E2CF6DB7FB048B0F0BDD1
:10184000F8B5012842D000203F4A0021484C8301CE
:101850009A1834253E4E4D43AD192E5C394D143E39
:101860006D5C6D085F19384D7D192E70275C01265F
:10187000BE409661491CC9B20729EAD3304E334FA6
:1018800000213424324D4C4364192418755CA47E25
:101890006D08143C5D19ED192C70354C255C012444
:1018A000AC409463491CC9B20729EAD3401CC0B2BA
:1018B0001A28C9D3002400F095FA00F08FFA00F03E
:1018C000A3FA641CE4B2322CF5D3F8BD00201E4A02
:1018D0000021274B8501AC1834221D4E4A43921932
:1018E000165C184A525C5208AF18174ABA1816709C
:1018F0001F5C01221646BE40A661491CC9B20729D9
:10190000EAD300213423124E4B439B191B189E7EB1
:101910000B4B5B5C5B08EF180C4BFB181E70144BF9
:101920001E5C1346B340A363491CC9B20729E9D31F
:10193000401CC0B21A28CAD3BCE7000040000040D7
:10194000212200001A220000001000402010004058
:101950003E0D0020004100402300002044656C61E2
:101960007920706572206368616E6E656C0000009E
:1019700000220000F0B50020844683B0F7480090B4
:10198000F74841780120884001900023F54C6046DB
:1019900019461F468001421812199772D772891C86
:1019A0000A29F8DBF04A0021545CFF256408061977
:1019B000EC4C36193570565C4D007608AD1C861916
:1019C0003419A572555C0124AC40E318491C072961
:1019D000EADBE44941188E46CB616246921CD2B2E2
:1019E00002920A75DE4A6346D35C01229A408A61FC
:1019F0006146192902D0002908D00CE0DB498A6928
:101A0000009B0126DB7F9E40324303E0D5498A6973
:101A1000019B1A438A610023D54A19463D46441862
:101A2000A418A572E572891C0A29F8DB0021012798
:101A3000D04CFF25665C76088619B6183570665C52
:101A40004D007608ED1C8619B618B572655C3C46EB
:101A5000AC40E318491C0729EADBC2497446E3633A
:101A60008018029B0375BE486246805C87407046C2
:101A700087636046192A07D000280FD0401C84468F
:101A80001A2882DB03B0F0BDB848826B0099CB7F87
:101A9000012199400A43826303B0F0BD886B019A2B
:101AA00010438863012084466FE710B45221480731
:101AB00001770C214177962181771821C177AF48B2
:101AC000AD49018000214180AD4981801322C2804F
:101AD00001814281AB4B8381AB4CC4810382448240
:101AE0008182C282018342838183C28310BC70479A
:101AF000F0B40921880741831E2101761221417625
:101B00000021A24EA24C0F2208464B009D192880AE
:101B10000B19187068805870891C521EF5D100216D
:101B20008C46634600210F229D01DF014B00FC180B
:101B3000984BE4182080984B6E18F318187060804A
:101B40005870891C521EF1D16146491C8C461229DD
:101B5000E7DBF0BC704710B590488221417002214C
:101B60004170422305221207D372482393724170B9
:101B7000FFF780FA10BD0021012080078170C1604D
:101B8000F3210174FF214174704710B584490F207F
:101B90000860844900200860032100F0C0F800219B
:101BA000012000F0BCF80221084600F0B8F801213D
:101BB000032000F0B4F80121042000F0B0F8022165
:101BC000052000F0ACF80021062000F0A8F87648C7
:101BD000016904221143016110BDF8B50120850798
:101BE00068720024EC80CC202871BA2068716B4E9A
:101BF000B4700F202872BD21A9725521E9723321DA
:101C000031706A49716034726549086065480460E2
:101C10000321002000F083F80021012000F07FF86C
:101C20000221084600F07BF80121032000F077F83C
:101C30000121042000F073F80221052000F06FF864
:101C40000021062000F06BF8574801690422114377
:101C50000161AC70EC60F3202874FF20687482206E
:101C6000707002207070422205210907CA72482252
:101C70008A727070FFF7FEF9092068831E202876AB
:101C8000122068760020414E414B0F2142009519E9
:101C90002C80C21814706C805470801C491EF5D1C1
:101CA00000208446624600200F219501D7014200A2
:101CB000BB18384A9B181C80374A2E18B21814706B
:101CC0005C805470801C491EF1D16046401C8446E3
:101CD0001228E7DB5221480701770C214177962132
:101CE00081771821C1772548234901804480244900
:101CF00081801322C28001814281224B8381224C48
:101D0000C481038244828182C282018342838183AF
:101D1000C283FFF72FFEFEF70BFA62B6F8BD83070A
:101D2000FF22DB0E9A408907090E994000280BDA42
:101D30000007000F083883081B489B001818C36968
:101D400093430B43C3617047830819489B001818DD
:101D5000036893430B43036070470000F9210000C0
:101D600000220000001000401A220000401600402F
:101D700020100040212200006408000020000040E4
:101D80001304000013060000130200000049004085
:101D900080240040004000400020004040000040FF
:101DA00000E100E000E200E000ED00E0FFFF0F00D6
:101DB00000E400E0FB200121890748747047FF2000
:101DC0000121890748747047724948064161724A87
:101DD000012151700022C275C17570476F49012001
:101DE000087270476C49002088706C4908720906B7
:101DF0000870012008707047674901208870002032
:101E00000121890708707047634872B681780029FC
:101E100005D062B662480078002805D1704700BF3F
:101E200000BF62B630BFF0E770B55EA0FFF758F9AB
:101E30005F4D0024E00141191A20FFF781F9641C6D
:101E40000E2CF7DB70BD54490120C8700020012121
:101E5000890748707047FFF7C0FE4F480024847020
:101E60004E4F3C723D062C7001262E703E72FFF7DD
:101E7000CBFF494884703C722C702E703E72FFF785
:101E8000C3FF454884703C722C702E703E72FFF781
:101E9000BBFF414884703C722C702E703E72FFF77D
:101EA000B3FFFFF78FFB3C4884703C722C702E70A0
:101EB0003E72FFF7A9FF384884703C722C702E7078
:101EC0003E72FFF7A1FF3448447032486861EE75F6
:101ED000314D2878002810D001202C7080074472E2
:101EE00001210522120751721123C370C47041727F
:101EF0005472BFF3608FFEF71BF92E48007800285C
:101F000002D000F0ACF8E4E7AC7024480472060696
:101F1000347001273770FEF72BF9FEF7ECF9EC70FF
:101F20007470777072B6E878002823D062B6FEF736
:101F30002BFDFFF777F81948077272B6A8780028CA
:101F40001DD062B61648007800280CD015A0FFF707
:101F5000C7F8174F0026F001C1191A20FFF7F0F853
:101F6000761C0E2EF7DB72B6687800280CD062B6AD
:101F70006C70AEE700BF00BF62B630BFD2E700BFF3
:101F800000BF62B630BFD8E700BF00BF62B630BF47
:101F9000E9E70000A0860100240000204000004086
:101FA0001A00002052617720496D616765000000CA
:101FB0000441004020000020584800787047F0B5E8
:101FC000FFB0B8B00120FFF73BFC554C002736208E
:101FD000394641435348544A0818891800221A23A5
:101FE000FE01550075192D19AD8805800D80801CE6
:101FF000891C521C5B1EF4D17F1CFFB20E2FE6D34E
:102000000020FFF71DFC0020844634214843694628
:102010004118604636225043424A1A238018002253
:102020006446E70154003D193D4C2C19A4880C80EE
:102030000025455F26B2AC1B02D5741B048000E06E
:102040000480891C801C521C5B1EEBD16046401C26
:10205000C0B284460E28D8D37FB038B0F0BDF8B5F2
:102060003249012048700420FFF701F80024304D68
:10207000012828D00420FEF7FAFF02282DD00420E2
:10208000FEF7F5FF03281DD10120FEF7F0FF0646FD
:102090000220FEF7ECFF362148432349760047181B
:1020A000B85B4004410E0820FEF7DEFFB85BC1B20A
:1020B0000920FEF7D9FF00210420FEF7D5FFFFF726
:1020C00079FE2C70F8BDFFF77AFF00210420FEF79F
:1020D000CBFFFFF76FFE2C70F8BD0120FEF7C7FFA6
:1020E00006460220FEF7C3FF362148430D4976001D
:1020F0004718B85B4004410E0820FEF7B5FFB85BF7
:10210000C1B20920FEF7B0FF00210420FEF7ACFFAA
:10211000FFF750FE2C70F8BDA1E70000280000205A
:1021200000410040AA0E00209E1100204000004007
:102130001900002030B50B46014600202022012462
:1021400009E00D46D5409D4205D31D469540491BEB
:102150002546954040191546521E002DF1DC30BD34
:1021600070B500242546002801DA012440420029E8
:1021700001DA01254942FFF7DDFFAC4200D04042C1
:10218000002C00D0494270BDD2B201E00270401C68
:10219000491EFBD270470022F6E710B504460846F8
:1021A000114602462046FFF7EFFF204610BD0146CC
:1021B000002000E0401C0A5C002AFBD170470000B0
:1021C000064C0125064E05E02046E36807C82B4370
:1021D00098471034B442F7D3FDF776FF2822000069
:1021E0004822000002E008C8121F08C1002AFAD1E4
:1021F0007047002001E001C1121F002AFBD1704787
:10220000000102030405060A0B0C0D0E0F1011123B
:10221000131415191A1B1C1D1E1F020406080C0E90
:10222000100305070B0D0F114822000000000020CD
:102230002C000000E4210000742200002C0000208B
:1022400068140000F22100000000000000000000FF
:10225000000000000000000000000000000000007E
:10226000000100000000000000000000000000006D
:04227000000000006A
:00000001FF
