:10000000F01F0020C1000000D5000000D700000054
:1000100000000000000000000000000000000000E0
:10002000000000000000000000000000D9000000F7
:100030000000000000000000DB000000DD00000008
:10004000051E00000F150000351E0000831E000075
:10005000DF000000ED000000EB150000E7000000ED
:10006000E7000000E7000000E7000000E7000000F4
:10007000E7000000E7000000E7000000E7000000E4
:10008000E7000000E7000000E7000000E7000000D4
:10009000E7000000E7000000E7000000E7000000C4
:1000A000E7000000E7000000E7000000E7000000B4
:1000B000E7000000E7000000E7000000E7000000A4
:1000C0000348854602F0DCF800480047931E000014
:1000D000F01F0020FEE7FEE7FEE7FEE7FEE7FEE793
:1000E000FEE7FEE7FEE7FEE7FEE7FEE7FEE7FEE7E8
:1000F0000A4603467047FEE7704700000000000014
:100100004F435441000000000000000000000000C8
:1001100000000000000000000000000000000000DF
:100120005241303156413131323031313036313651
:1001300010B55B2109019E4802F077F85B21C900E8
:100140009C4802F072F8FF216D319B4802F06DF877
:1001500000209A49C0439A4A0880108005234880AD
:100160005080091D121D088010805B1EF7D110BD44
:10017000F0B594480021415685B0934802910D2274
:10018000192102608160002141600D46C160EA01D1
:1001900003926822864B6A43D218019286481A223B
:1001A0006A4310180090834934200024684346189D
:1001B00003986200811885480F180421795EB05EAB
:1001C000B152401A00D54042042803DD00980022B5
:1001D000025506E000980057052802D0009A401CFE
:1001E00010550198A300C258C80184460121101A75
:1001F0008902884211DD74494A68AA4200DA4D60DA
:10020000CA68A24200DACC600A68AA4200DD0D602A
:100210008A68A24211DD8C600FE06D49884208DADD
:10022000002A0AD101996246CA50009900220A5553
:1002300003E0C111521A0199CA50029900290BD04A
:10024000FF210131884204DD410262480818001490
:100250000FE00020B8800DE0002817DD002C03D04F
:10026000192C01D0C01104E0C0114000032101F09D
:10027000C1FFB880641C1A2C9ADB6D1C0E2D86DB26
:1002800051490868022803DD801E04E00020F0E7E1
:10029000012801DD401E08608868022801DD801EFB
:1002A00002E0012801DD401E886048680C2801DA60
:1002B000801C02E00D2801DA401C4860C86818283C
:1002C00001DA801C02E0192801DA401CC8604248AB
:1002D000007800280DD041A000F0CBFE344D002462
:1002E0006820604341191A2000F033FF641C0E2C73
:1002F000F6DB05B0F0BDF8B500223C4B11460024FA
:100300000D2095012E19F6187170B170A41C401EB5
:10031000F8D1521C0E2AF2DB354F36480122D501A6
:10032000EE19318094012418217071806170324E71
:10033000AD196983617729832177521C112AEEDB7D
:100340002E4E2F4B01223D46540067193980171855
:1003500039702C4FE7193980244FD7193970A719F4
:100360003980D7183970284FE4192180274C141987
:100370002170521C1D2AE7DB29801F4A51833180DE
:10038000234A5183017041771970597721480078C9
:1003900000280CD020A000F06CFE224D0024E001CB
:1003A00041191A2000F09DFE641C0E2CF7DBF8BDED
:1003B00034000020E4050020BC0800208E0D002041
:1003C000A40D00201100002000000020004100408A
:1003D00000FCFFFF0000FEFF1B0000205265666569
:1003E00072656E636520496D61676500402000405D
:1003F0000040004000200040204000408048004075
:10040000402400408040004000480040002400405C
:10041000A04800401C000020496E74656E7369742A
:100420007900000004410040F0B5D3B00024FF483B
:10043000C4210668FE4800680394089404940D944F
:10044000059406940794099412900A940B940C94C2
:100450000E9421A801F0E9FEF648007800280CD09F
:10046000F5A000F006FEF74F0025A801C1191A20DB
:1004700000F0CBFD6D1C0E2DF7DBF3480321415638
:10048000022901DA032000E00A201A90EF48761CC6
:1004900005681396B54239DA129A521CEC4B129E3B
:1004A00018680021361A771C002F01DD0121B143A5
:1004B0000B1883420FDDAE01E64B3718FB180227FD
:1004C000DF570C2F01DD00279F70E14B401C1B689C
:1004D000CB188342F0DCDE4800680818904211DA3D
:1004E0000026AB01DB491F1879180227CF570C2FC4
:1004F00000DD8E700327CF570C2F00DDCE70801CDF
:100500009042EFDB13986D1C8542C7DBCF481399EF
:100510000068029088427EDA1298401C1B90CC48FA
:1005200002681B98824277DA0298C0B22090029843
:10053000C0011C90029880011F908018C549844614
:100540004318022018561C9D51006D18C2496D18A1
:100550000421695E002809D003AD2E5C8E4205DCC3
:10056000295407AE209D35540BAD2A54844200DA3D
:10057000C4B2002853D11A98814250DDB74DFF20F4
:1005800065446E780021AF78ED781D96DE7815977A
:100590006746AC46B24D17967D19EF78AE786D7808
:1005A00018975F7819961D9E002E03D00121FF2E0B
:1005B00000D23046159E002E03D0491C864200D240
:1005C00030466646002E03D0491C844500D2304692
:1005D000179E002E03D0491C864200D23046189E3A
:1005E000002E03D0491C864200D23046199E002EB0
:1005F00003D0491C864200D23046002D03D0491C4E
:10060000854200D228463D0003D0491C874200D2D3
:100610002846002901E094E007E000D098701B987C
:10062000521C824201DA1F9887E702981399401CF6
:100630000290884200DA72E70220641C1494019050
:10064000022C7ED9019907A8425C01980BA9085C8D
:10065000921C801C8446D10140000918814808186A
:100660000024045F804BCD181E23EB5E1B1D9C42B3
:1006700021DC0024045F7D4BCD180023EB5E0933A1
:100680009C4208DD0024045F794BCD181E23EB5EED
:1006900009339C420FDC9501764C654401232C19EB
:1006A0000026A657744C2D191F242C570E2721AD58
:1006B0007C43641933550025455F6C4BCC180223ED
:1006C0001594E35E1B1D9D421EDC0025455F2346FD
:1006D00000241C5F0934A54206DD0024045F0223C8
:1006E000C35E09339C420FDC950164462C19614DB1
:1006F000012365190026AE57604D6519EC560E278B
:1007000021AD7C43641933550024045F5C4BCD1844
:100710001E23EB5E1B1D9C4224DC0024045F594B0E
:10072000CD180023EB5E09339C4208DD0024045FF2
:100730004F4BCD181E23EB5E09339C4212DC012384
:1007400000E0D0E0950164462C194A4D6519002659
:10075000AE574D4D65191F242C570E2721AD7C43F4
:10076000641933550024045F464BCB1802251693B9
:100770005D5F2D1DAC421DDC0025455F00241C5F24
:100780000934A54206DD0024045F0223C35E093359
:100790009C420FDC950164462C19364D01236519E6
:1007A0000026AE572D4D6519EC560E2721AD7C4322
:1007B000641933550023C35E159C0025655F2D1D0C
:1007C000AB4210DC950164462C192A4D01236519B2
:1007D0000026AE57294D651900242C570E2721AD50
:1007E0007C43641933550025455F169C0023E35E66
:1007F0001B1D9D4210DC950164462C191D4D0123E3
:1008000065190026AE57154D651900242C570E2783
:1008100021AD7C43641933550024045F144BCB187D
:100820001E21595E091D8C4241DC2FE0040000208E
:100830000C0000201D00002047726F757020496D6C
:100840006167650082200040100000200000002049
:10085000080000208020004000410040402000406F
:10086000C020004000400040603F0040803F00400A
:10087000E03F004000200040A01F0040C01F00409B
:10088000604000408040004020200040012394014F
:1008900061466118FF4C0D1900242C57FE4D491973
:1008A0001F254D570E2621A975436918635400234F
:1008B000C35E0221415E091D8B420CDC9201F548AA
:1008C0006244012110180023C35642560E2421A869
:1008D00062431018195401981499401CC0B2019039
:1008E000884200D2AEE60D2121A801F09EFC022133
:1008F000012421A80022002908DD0E2353431B18E0
:100900005B5C012B11D0521C8A42F6DB491C0D297D
:10091000F0DB002501462A460D2300240C57002C4D
:100920000FD06D1CEDB2045D0CE08356002B01D09E
:10093000435400E042540E224A4312185218D47312
:10094000E4E7541B0C70491C521C5B1EE5D1D349D3
:100950000E6813998E4215DA129AD14F521CD14962
:10096000096891420ADAB4016318DB199D7845578A
:10097000002D00D09D70491C9142F5DB1399761C27
:100980008E42ECDB53B0F0BDF0B595B0FFF74CFDF7
:10099000C548C7490568C548C64A04680020C64B13
:1009A000C64E0A900B900C900D270D900020C0436E
:1009B00001C1002001C201C33070761C7F1EF5D139
:1009C000BF48007800280CD0BEA000F052FBC14FF9
:1009D0000026B001C1191A2000F017FB761C0E2E5C
:1009E000F7DB00200490AD486D1C0068069505906B
:1009F000A84257DAAB48641C00680E900E98A042DB
:100A00004ADA059989018C460599C9010791614621
:100A10000A18A349511802228A56002A39D004998B
:100A2000914200DA0492079D41006918AA4D531EB5
:100A30004D190421695E95009D4E2D1F7759059D26
:100A400096004D437D199A4F361FBD519200994E25
:100A5000121FB258002807D0182808D019283DD0F6
:100A6000C5002D1D4D4304E08D006D4201E0C625FB
:100A700035E0AA189D0072518F4A56597618565182
:100A80003432D55C6D1CD5540AAAD55C8D4200DA8F
:100A9000D154401CA042BADB05980699401C059031
:100AA0008842ABDB04988D4940B288700790049867
:100AB000002863DD0AA80F9080480E907E4F884E74
:100AC0007B4C7C4D0498019001CF0090002848D0C9
:100AD0000F9800780C2804D2012003E0D4254D4360
:100AE000C7E7002030707F492068096848430D211E
:100AF00001F080FB009901F07DFB002120600028BF
:100B000000DD0146216077492868496848431A2179
:100B100001F070FB009901F06DFBC117490F081837
:100B2000C01028600E980078322802D96B49012045
:100B300008702168002902DA0020206005E0694879
:100B40000068814200DC084620602968002902DA3A
:100B50000020286005E063484068814200DC0846C8
:100B600028600F98761C401C0F900E98241D401C86
:100B70000E9001982D1D401E0190A5D104980028CB
:100B80003BD05649002048700020411E4A4C099134
:100B900006902368544A5B101BB203935348544B8E
:100BA0000B250021C943118001801970921C801C03
:100BB0005B1C6D1EAC46F4D1604641004D480A9165
:100BC000405E0B90401C59D0604680004A4D049016
:100BD00029584A48081800900590079800282BDDEE
:100BE00033484349334A079C002305686E1C1DD0D7
:100BF00000268E57761C04D018E038490120487032
:100C0000C2E70B9E1768AE1BB6463D4D0A9EAD5F10
:100C100076467D1B76436D437519009EB54205DA15
:100C20005EB20996344F049E0095BD51001D491CCB
:100C3000121D5B1C641ED8D10599009888421DD0F6
:100C400009981B498000284A0A9B0958D152194922
:100C50000A9B0A589831CA5264390A5829490A9895
:100C60000A5216480999425C274861464254069840
:100C70001F49401C0690099A604688546046401CF3
:100C800084460B2898DB0020079A0146002A63DD82
:100C9000144A3BE000200040E01F0040000000201C
:100CA0008020004008000020040000200C000020EC
:100CB000480B00207C0B0020B00B0020E40B002030
:100CC0001D00002047726F757020496D61676532A5
:100CD0000000000082200040004100401000002081
:100CE0005C0A0020780C0020FE0B0020140C002071
:100CF000F10B00204C0C0020280A002010270000D7
:100D0000620C00202A0C0020400C0020167AA34D13
:100D1000A34A5256521C1BD1079A012A05DDA14A4B
:100D20008B00D358039A934212DB9F4A525C002AED
:100D30000ED19C4A8B00D458B44209DB0B2807DA49
:100D40009A4A4700D75F7F1C7ED0401C0B28F8DBF7
:100D5000079A491C9142DBDB954B069898709549A0
:100D60000020D8708C468D4D9048934A93490B24AF
:100D700063461E889B1C9C460023CB5E2F889E46A4
:100D80000780931C16801A4673465B100B80002365
:100D9000C35EAD1C891C801C5B1C03D0844EF378A1
:100DA0005B1CF370641EE3D1824A60008718163220
:100DB00082180592824A7949121913924618142210
:100DC000804B6243085ED518401C7ED00020285618
:100DD0000321421C032A00DC114648B20D906888AA
:100DE000059A40B28446C01CC10F09184908490041
:100DF000401A40B20E90002000210023305E795E40
:100E0000D35E0290139802786046400000930492EB
:100E1000039140190423C35E08219C460C22102331
:100E2000415E825EC35E0D980F9102280893069280
:100E300069DD02996046431A08466146401A00D4AB
:100E4000034603990F9800E086E00F9A401A891A2A
:100E500000D408460A9000990698069A401A891A02
:100E600000D40846019004990898421A0846089947
:100E7000401A00D402460A98109218180A904B2083
:100E80006246C00042434B210A98C90041184810ED
:100E900012180991129002990A9841435018099921
:100EA00001F0A8F900B202904B200F99C000414315
:100EB00012980A1803990A9841435018099901F0A9
:100EC00099F900B20390642100E05CE00698484381
:100ED000019964314A108318009A01984243981886
:100EE00001F088F900B2009008980101081A1099E1
:100EF0000F314A108318109A04985043181801F0C3
:100F000079F900B20490029931800E98400040199E
:100F10008180039939800181059A0099118081812E
:100F20000499139AC9B2117001820E9868800D98C5
:100F300028700D98022809DA0020C04330803880DC
:100F40001B48C178491EC17000214170641C0B2CE4
:100F500000DA29E715B0F0BD1B4AD7584200AF525E
:100F60001A4FFB589837BB52144B9C52184A8400B6
:100F7000535C5C321354174B00221A51069A521CD0
:100F8000401C0692E4E600202870401E3080388025
:100F9000DCE710B500F023F910BD0000FE0B0020C7
:100FA000F10B0020B00B00205C0A00204C0C00204C
:100FB00010000020140C0020620C00202A0C0020DD
:100FC000400C00206A0A0020480B00207C0B002007
:100FD000E40B0020280A0020FF4A11547047FE4904
:100FE000085C7047FD4852218170D021C1700021FA
:100FF00001711C21417101218171F9484122027462
:10100000417482741121C1747047F8B5F54CE27ACD
:10101000002A2DD00246F14E403232707070022507
:10102000002804D0C207D20F012A02D004E0002217
:1010300002E00B780325B37082420ADA8B5C7355A9
:101040008B186D1C5F782B466D1CF754921C8242E6
:10105000F4DB0220E0700025A57000F0C9FE657188
:10106000A078E1788842FBD300F0C7FE01206071D0
:10107000F8BDF8B5044601F0E4F8DA4DC3B2E87AF9
:1010800000282DD01846D54EC03030707370022025
:10109000002B04D0D907C90F012902D004E0002198
:1010A00002E022780320B27099420ADA625C32547C
:1010B0006218401C57780246401CB754891C99425C
:1010C000F4DB0220E8700024AC7000F091FE6C713B
:1010D000A878E9788842FBD300F08FFE0120687180
:1010E000F8BDC04AD27A002A32D0F8B50246BB4FCA
:1010F00080323A7078700123002804D0C207D20FE2
:10110000012A02D004E0002202E00B887B80022347
:1011100082420CDA54000D5B5E00BD535B1C641808
:1011200064885D007C535B1C921C8242F2DBAD4CF8
:101130000220E0700025A57000F05AFE6571A078CD
:10114000E1788842FBD300F058FE01206071F8BDC1
:101150007047A44AD27A002A40D0F8B502469F4F81
:1011600080323A700123002804D0C207D20F012A2E
:1011700002D009E0002207E00B68DC17640EE318D8
:101180005B021B0C7B800223824216DA94000D590D
:10119000EE17760E75196D022D0C5E00BD536418A6
:1011A00064685B1CE5176D0E2C196402240C5D004D
:1011B0007C535B1C921C8242E8DB8A4C0220E0706C
:1011C0000025A57000F014FE6571A078E1788842D2
:1011D000FBD300F012FE01206071F8BD704781481A
:1011E000C17A002903D080490978C17370477D48CE
:1011F00000790028FBD1F0B5002083B001460090B3
:10120000102084467948407A864600200B2903DA6C
:101210000B20401AC007C00F45188D420FDD744ED9
:10122000744B75484A00B45E9F5EBC422DD1734C2E
:10123000A45E825E944228D1491C8D42F2DC28468D
:101240000B2D21DA6B4A6D4B6B4C4100684D565E9D
:101250006F5EB74218D15E5E675EBE4214D14D1913
:101260000226AE5F8D180227EF5FBE4207D1CD1870
:101270000226AE5F091902254D5FAE4201D0411C26
:1012800003E0801C0B28E0DB01464B0058485B4C18
:10129000C25E5848584EC75EE45EF65ED51B0196A6
:1012A000A61B00D57642002D00DA6D42AE4507DD63
:1012B000B64505DD501C03D0781C01D0491C26E042
:1012C0000B2927D0501C34D0481C05077F1C2D0F3C
:1012D0004248A035664685552511F026354016054D
:1012E000360FAD19604445708270C470444DED5A9C
:1012F0000571444D6D5C45713E48C2521630C45272
:101300006046801D84460098401C491C00900B29B3
:1013100000DA7AE70098062148433049C87372B66C
:10132000304C607B00281ED000BF00BF62B603B007
:10133000F0BD481C0607360F284D203660462E5457
:10134000019865440611F02006403805000F361854
:101350006E70AF700198E8702948C05A287129480A
:10136000405C6871C8E762B60098002805D001208B
:10137000207100F03DFD002060711B480078E07393
:1013800003B0F0BDF8B50C0014491F4F054604D05A
:10139000E207D20F012A02D003E0002201E0387BED
:1013A0004855A24209DAD019067BAB18CE54407BCF
:1013B0005B185870921CA242F5DB0A4E0020307177
:1013C00000F01BFD012171731048052D5CD033DC4A
:1013D000002D46D0012D1BE0840D0020840C002040
:1013E000640D00201400002013000020780C002061
:1013F000FE0B00208E0D0020A40D0020140C0020F8
:101400002A0C0020400C0020000000502400002086
:101410002FD0022D0FD1022C0DD93A7B7B7B1207E6
:10142000120D1A4302603A7BBB7B120912011201B2
:101430001A4342607173F8BD062D2DD0A02DFAD14C
:10144000387BF072387B1A2829D0002002460346E8
:10145000062B58D27B441B79DB189F445432394009
:10146000474E00243473347100F0C7FCB470F4703C
:10147000F8BD387B0028FBD131730024347100F0B3
:10148000BCFCB470F470F8BD3A7B0272027A092A8F
:10149000D0D209220272CDE73A7B4272CAE702201B
:1014A00030730024347100F0A8FCB470F470514B18
:1014B0000020C219127B81B25A54401C0528F8DB67
:1014C000F8BD7B7B9B0701D5B1711CE0B2711AE0BE
:1014D0007B7B5B0701D5F17115E0F27113E07B7B3B
:1014E0001B0701D531720EE032720CE07B7BDB060C
:1014F00001D5717207E0727205E07B7B9B0601D516
:10150000B17200E0B272401C0828A0DBF8BDF8B54B
:1015100005242407207AA67A07073F0F364D012FAE
:1015200004D0082F29D0022F3BD056E0E8780028BD
:1015300000D000266E7000F060FC01206871A82EBB
:1015400015D02E48815D21738019417861738178AF
:10155000A173C178E1730179217441796174817952
:10156000A174C079E07468780830687035E021486B
:10157000017A2173407A6073F5E769781F48425C0D
:1015800022734018417861738178A173C178E17347
:1015900001792174417961748179A174C079E07411
:1015A000E1E7A87B01280BD0082809D0E07A0107E1
:1015B000090F05D03046FFF7E5FE00202870E870DF
:1015C000102E04D12879012801D100202871E87853
:1015D000002802D0A878401CA87001202072AF73A8
:1015E0001020207200202072F8BD0120052109077B
:1015F00008727047840D002014000020840C002025
:10160000F0B5FFB0C8B05B21C90010A800F00DFE16
:10161000D9480421417000F003FC00F0FDFB00F00C
:1016200011FC00200090D548417882784808099044
:10163000D248C17850080A90D048027948080B90E7
:10164000CE48417950080C90CC48827948080D90DA
:1016500050080E90CA480178490801914178827873
:1016600049080291C37851080391027959080491FD
:10167000437951080591817958080690BF4802784E
:101680004808079050080890FF2000990022013078
:10169000401AC4B2019990014618BA4976183470BC
:1016A000029E861976183470039E86197618347057
:1016B000049E861976183470059E86197618347043
:1016C000069E861976183470079E861971180C705C
:1016D00008994618AC4976183470099E8619761810
:1016E00034700A9E8619761834700B9E8619761807
:1016F00034700C9E8619761834700D9E86197618F3
:1017000034700E9E801940180470521C1A2AC1DBD6
:1017100000F086FB00F080FB00F094FB0020864682
:1017200070463421484310A9411870461A2250438C
:10173000964A7546831800221A20ED01AC4666468B
:1017400055007619924D75190426AE5F0027CF5FBC
:10175000BE4202DDAD880D801C70891C5B1C521CD2
:10176000401EECD17146491C8E460E29D8DB0099EB
:10177000491C49B20091142986DB7F4902224A7034
:10178000824E019B8101345CCD187E4B641EED18A6
:101790002C7032183424A45C029D641E4D19ED187F
:1017A0002C706824A45C039D641E4D19ED182C70E8
:1017B0009C24A45C049D641E4D19ED182C70D0244B
:1017C000A45C059D641E4D19ED182C70FF24053492
:1017D000A45C069D641E4D19ED182C70FF2439344D
:1017E000A45C079D641E4D19EB181C70089B927E2B
:1017F000CD18654B521EED182A700122342415466F
:101800006543624C2C1925185C4CAE7EA75C761E95
:101810007F08CF19FF183E70A41840356478AD7B5F
:1018200064086D1E0C19E4182570921C072AE5DB6C
:10183000401C1A28A4DB574E307800281BD056A035
:10184000FFF717FC514D00241A20604341191A205C
:10185000FFF7DBFB641C0E2CF6DB307800280AD087
:10186000002410AD3420604341191A20FFF739FCE1
:10187000641C0E2CF6DB7FB048B0F0BDF8B5012833
:1018800042D000203F4A0021484C83019A18342559
:101890003E4E4D43AD192E5C394D143E6D5C6D08C6
:1018A0005F19384D7D192E70275C0126BE40966168
:1018B000491CC9B20729EAD3304E334F00213424E2
:1018C000324D4C4364192418755CA47E6D08143C99
:1018D0005D19ED192C70354C255C0124AC409463E6
:1018E000491CC9B20729EAD3401CC0B21A28C9D37F
:1018F000002400F095FA00F08FFA00F0A3FA641CBF
:10190000E4B2322CF5D3F8BD00201E4A0021274B4B
:101910008501AC1834221D4E4A439219165C184AB0
:10192000525C5208AF18174ABA1816701F5C012291
:101930001646BE40A661491CC9B20729EAD3002158
:101940003423124E4B439B191B189E7E0B4B5B5C42
:101950005B08EF180C4BFB181E70144B1E5C1346F3
:10196000B340A363491CC9B20729E9D3401CC0B2E4
:101970001A28CAD3BCE7000040000040E122000062
:10198000DA2200000010004020100040BA0D0020B4
:10199000004100403000002044656C617920706592
:1019A00072206368616E6E656C000000C0220000EA
:1019B000F0B50020844683B0F7480090F74841789E
:1019C0000120884001900023F54C604619461F46CF
:1019D0008001421812199772D772891C0A29F8DB04
:1019E000F04A0021545CFF2564080619EC4C3619B6
:1019F0003570565C4D007608AD1C86193419A572F9
:101A0000555C0124AC40E318491C0729EADBE44992
:101A100041188E46CB616246921CD2B202920A7580
:101A2000DE4A6346D35C01229A408A6161461929E5
:101A300002D0002908D00CE0DB498A69009B01260E
:101A4000DB7F9E40324303E0D5498A69019B1A43FC
:101A50008A610023D54A19463D464418A418A57248
:101A6000E572891C0A29F8DB00210127D04CFF25EB
:101A7000665C76088619B6183570665C4D00760887
:101A8000ED1C8619B618B572655C3C46AC40E3188F
:101A9000491C0729EADBC2497446E3638018029BAC
:101AA0000375BE486246805C874070468763604627
:101AB000192A07D000280FD0401C84461A2882DB40
:101AC00003B0F0BDB848826B0099CB7F01219940EB
:101AD0000A43826303B0F0BD886B019A10438863A8
:101AE000012084466FE710B45221480701770C218A
:101AF0004177962181771821C177AF48AD490180A0
:101B000000214180AD4981801322C2800181428140
:101B1000AB4B8381AB4CC481038244828182C282FD
:101B2000018342838183C28310BC7047F0B40921D2
:101B3000880741831E210176122141760021A24EA1
:101B4000A24C0F2208464B009D1928800B191870D3
:101B500068805870891C521EF5D100218C4663465E
:101B600000210F229D01DF014B00FC18984BE41867
:101B70002080984B6E18F318187060805870891C7C
:101B8000521EF1D16146491C8C461229E7DBF0BC9C
:101B9000704710B590488221417002214170422364
:101BA00005221207D372482393724170FFF71AFA85
:101BB00010BD0021012080078170C160F3210174F4
:101BC000FF214174704710B584490F200860844993
:101BD00000200860032100F0C0F80021012000F07F
:101BE000BCF80221084600F0B8F80121032000F0FB
:101BF000B4F80121042000F0B0F80221052000F023
:101C0000ACF80021062000F0A8F87648016904220B
:101C10001143016110BDF8B50120850768720024E9
:101C2000EC80CC202871BA2068716B4EB4700F2004
:101C300028729D21A9727F21E972332131706A498E
:101C400071603472654908606548046003210020B2
:101C500000F083F80021012000F07FF802210846FF
:101C600000F07BF80121032000F077F80121042027
:101C700000F073F80221052000F06FF80021062023
:101C800000F06BF857480169042211430161AC7000
:101C9000EC60F3202874FF206874822070700220AA
:101CA0007070422205210907CA7248228A72707038
:101CB000FFF798F9092068831E202876122068769D
:101CC0000020414E414B0F21420095192C80C21833
:101CD00014706C805470801C491EF5D1002084461D
:101CE000624600200F219501D7014200BB18384AF7
:101CF0009B181C80374A2E18B21814705C805470E0
:101D0000801C491EF1D16046401C84461228E7DB46
:101D10005221480701770C214177962181771821BC
:101D2000C1772548234901804480244981801322BA
:101D3000C28001814281224B8381224CC481038273
:101D400044828182C282018342838183C283FFF7FE
:101D50002FFEFEF7EDF962B6F8BD8307FF22DB0E1A
:101D60009A408907090E994000280BDA0007000FF6
:101D7000083883081B489B001818C36993430B431A
:101D8000C3617047830819489B0018180368934380
:101D90000B43036070470000B9220000C02200001E
:101DA00000100040DA2200004016004020100040E1
:101DB000E122000078080000200000401304000029
:101DC0001306000013020000004900408024004078
:101DD00000400040002000404000004000E100E0E2
:101DE00000E200E000ED00E0FFFF0F0000E400E093
:101DF000FB200121890748747047FF2001218907D2
:101E000048747047924948064161924A0121117015
:101E10000022C275C17570478F4901200872704752
:101E20008C49002048708C4908720906087001200E
:101E300008707047874901204870002001218907F8
:101E400008707047834872B64178002905D062B6A1
:101E500082480078002805D1704700BF00BF62B6F5
:101E600030BFF0E770B57EA0FFF703F97F4D002487
:101E7000E00141191A20FFF734F9641C0E2CF7DB3E
:101E800070BD7449012088700020012189074870C5
:101E90007047FFF7C0FE6F48002444706E4F3C72DD
:101EA0003D062C7001262E703E72FFF7CBFF69486D
:101EB00044703C722C702E703E72FFF7C3FFFFF728
:101EC0009FFB644844703C722C702E703E72FFF78A
:101ED000B9FF604804705E486861EE75644900228D
:101EE0008A5664480378002B08D00470634E624819
:101EF00033687568B668866045600360002A60D004
:101F0000012A04D0022AE9D100F00AF9E6E70C70B0
:101F10000120800744720F2303720121052212075A
:101F200051721125C570C470037241725472BFF3AF
:101F3000608F484E7470484A1472047001701172B8
:101F400072B67078002832D062B644480078002813
:101F50000CD043A0FFF78DF8444F0025E801C119CC
:101F60001A20FFF7BEF86D1C0E2DF7DB74703A488F
:101F7000047201060C7001220A70027272B6707847
:101F8000002819D062B63548007800280CD034A05B
:101F9000FFF76FF8354E0025E80181191A20FFF789
:101FA000A0F86D1C0E2DF7DBFEF7C2F896E700BF18
:101FB00000BF62B630BFC3E700BF00BF62B630BF2C
:101FC000DCE7244D6C702448047206063470012747
:101FD0003770FEF7CDF8FEF78EF9AC70747077703D
:101FE00072B6A878002823D062B6FEF7CDFCFEF7C3
:101FF000D0FF1948077272B6687800281DD062B603
:102000001648007800280CD015A0FFF732F8174FBB
:102010000026F001C1191A20FFF763F8761C0E2E76
:10202000F7DB72B6287800280CD062B62C7055E722
:1020300000BF00BF62B630BFD2E700BF00BF62B6CC
:1020400030BFD8E700BF00BF62B630BFE9E700008D
:10205000A086010031000020400000401A0000204E
:1020600052617720496D61676500000004410040BE
:102070002000002021000020780C002024000020F7
:10208000F0B5FFB0B8B00120FFF7F8FB544C0027C3
:102090003620394641435348534A081889180022CC
:1020A0001A23FE01550075192D19AD8805800D8084
:1020B000801C891C521C5B1EF4D17F1CFFB20E2FAA
:1020C000E6D30020FFF7DAFB0020844634214843A2
:1020D00069464118604636225043424A1A23801806
:1020E00000226446E70154003D193D4C2C19A48898
:1020F0000C800025455F26B2AC1B02D5741B048002
:1021000000E00480891C801C521C5B1EEBD16046E1
:10211000401CC0B284460E28D8D37FB038B0F0BD82
:10212000F8B5BD208107887230490120487004202D
:10213000FEF755FF00242E4D012828D00420FEF77D
:102140004EFF02282DD00420FEF749FF03281DD1A1
:102150000120FEF744FF06460220FEF740FF36212D
:102160004843214976004718B85B4004410E0820D7
:10217000FEF732FFB85BC1B20920FEF72DFF002148
:102180000420FEF729FFFFF733FE2C70F8BDFFF7A0
:1021900077FF00210420FEF71FFFFFF729FE2C70B8
:1021A000F8BD0120FEF71BFF06460220FEF717FFD1
:1021B000362148430B4976004718B85B4004410E6E
:1021C0000820FEF709FFB85BC1B20920FEF704FF43
:1021D00000210420FEF700FFFFF70AFE2C70F8BD77
:1021E00000410040260F00201A120020400000404D
:1021F0001900002070B500242546002801DA0124CA
:102200004042002901DA0125494200F022F8AC429F
:1022100000D04042002C00D0494270BDD2B201E053
:102220000270401C491EFBD270470022F6E710B531
:1022300004460846114602462046FFF7EFFF2046B7
:1022400010BD0146002000E0401C0A5C002AFBD1C2
:10225000704730B50B46014600202022012409E0DA
:102260000D46D5409D4205D31D469540491B254648
:10227000954040191546521E002DF1DC30BD00007E
:10228000064C0125064E05E02046E36807C82B43AF
:1022900098471034B442F7D3FDF716FFE822000048
:1022A0000823000002E008C8121F08C1002AFAD162
:1022B0007047002001E001C1121F002AFBD17047C6
:1022C000000102030405060A0B0C0D0E0F1011127B
:1022D000131415191A1B1C1D1E1F020406080C0ED0
:1022E000100305070B0D0F1108230000000000204C
:1022F00034000000A42200003C2300003400002031
:10230000DC140000B2220000000000000000000009
:1023100000000000000000000000000000000000BD
:10232000000100000000000000010000D0020000D9
:0C233000000500000F010000000000008C
:00000001FF
