:1000000010000000987900002400000001000000AA
:10001000781B0020014C0000C14B0000C54B0000C4
:10002000C94B0000CD4B0000D14B00000000000088
:10003000000000000000000000000000D54B0000A0
:10004000D94B000000000000DD4B0000E14B000038
:10005000852E0000DD2E0000712E0000892F00008B
:100060009D2F0000F94B0000FD4B0000FD4B0000F0
:10007000FD4B0000FD4B0000FD4B0000FD4B000060
:10008000FD4B0000FD4B0000FD4B0000FD4B000050
:10009000FD4B0000FD4B0000FD4B0000FD4B000040
:1000A000FD4B0000FD4B0000FD4B0000FD4B000030
:1000B000FD4B0000FD4B0000FD4B0000FD4B000020
:1000C000FD4B0000FD4B0000FD4B0000FD4B000010
:1000D000F8B5134B1B68DA0703D5124B12481B689F
:1000E0009847AF26114F7600351C142E00DD1425DD
:1000F00000230F4A02E0F95CD1540133AB42FADB32
:10010000074B01221B68134205D00A4BE8B21C685A
:1001100007490023A047761B7F19002EE4D1F8BDC4
:10012000180000208C000020A4610000481A002064
:10013000021A0020D801002038B5274B2749063382
:10014000DA7F274B002A1FD000221A600023CB56EB
:10015000012B40D0234C2368DA0703D5224B2348D8
:100160001B68984722680123214D1A4205D0214A75
:10017000181C1468291C0422A047286803F0E6FB19
:10018000164B01221A7026E0194A186892689042AC
:1001900001DA01301860097849B200291BD01B68C8
:1001A000934218DB0F4C2368DA0703D50E4B124835
:1001B0001B689847226801231A4205D00D4A181C73
:1001C00014680E490422A047094B586803F0BEFB8F
:1001D000024B00221A7038BD0401002000000020EC
:1001E00028000020180000208C000020AA610000D8
:1001F0009C020020D8010020B1610000A002002074
:1002000008B503F0E3FB08BD70B58024E405051CC8
:100210000E1C03F0CDFB226C094B281C13402364F9
:10022000311C04F064F9002803D0064B00201B6841
:100230009847226C80235B011343236470BDC04642
:10024000FFEFFFFF9800002008B503F0B1FB08BDE9
:10025000F0B585B003F03EFB8023DB059A6C0126E8
:1002600032439A64FFF7F0FF284B294D9A1CD27F46
:100270009B190292DB7F2A1C03930024AC4620E0EA
:10028000991C244879184900095A234D019169465F
:1002900089885800115229880198884207D81F4D33
:1002A0002988002588426D4169420E4000E0002601
:1002B000013302E001340023A70103988342DFDB0E
:1002C000403202998C42F5DB154B65461B68DA0714
:1002D00003D5144B14481B68984700270EE0104BB9
:1002E0001B68D80708D5094B291C0133D87F0F4B51
:1002F00002221C680023A047013740350C49CB7F00
:100300009F42ECDB05B0301CF0BDC046A0170020BA
:100310009C120020004000409402002000020020B7
:10032000180000208C000020B6610000D8010020D9
:10033000A2170020F0B587B0FFF78AFF364B374988
:100340009A1CD47F0133DD7F631E5A01521952007B
:1003500052181E1C002103950EE0D55AD7180437F9
:10036000FD8701E00023181C039D01302F1A023B7A
:100370000137F2D10131403A731A0133F2D1264BE1
:1003800000220133DB7F254D0293029E63019B19FE
:1003900005933CE0029F4B01059EFB18890150012B
:1003A00069185B00301A03915B190021049029E061
:1003B000049F18887F0001977F18BC46184F5E88FD
:1003C0006744861B403F0097F717F6197E40019F50
:1003D000B446EE19765A861BF717F6197E40B444D8
:1003E0001E1C403E3688861BF717F6197E409F1C60
:1003F000FF8F6644C01BC717C01978403018009E95
:10040000023B3080039F0239BB42D1D10132A11A95
:10041000C0D107B00120F0BDA01700209C12002021
:100420007A080020F0B585B0FFF712FF03F0A0FEB8
:1004300003F050FA8023DB059A6C012422439A646E
:10044000FFF702FF2D4B1B68234203D02C4B2D4896
:100450001B6898472C4D0127002635E0029A9C1C0A
:1004600014196400A446294C6246145B039A59008F
:100470005219525A141BA2B2019C6243121292B238
:100480005407E40FA446624492B26A522049098894
:100490008A4209D81F4909888C4664460021A24235
:1004A000494149420F4000E0002701338342D5DB38
:1004B000124B1B68D90705D5174B291C1C68022253
:1004C0000023A04701364035144CE37F9E4210DAEA
:1004D000134B721C0133D87F114B92016033002102
:1004E0005C5E029208490F4A0023521A039201945B
:1004F000DCE703F059FE05B0381CF0BD1800002001
:100500008C000020BD6100007A08002000400040FF
:100510009018002012030020D8010020A21700200C
:10052000A01700209C120020F0B58BB0FFF790FEC2
:10053000644B654D9A1C0133DC7F0023D67F291C58
:10054000181C07E08854013200E00022A242F9DBC7
:1005500001332031B342F8DB03F0BCF98023DB0523
:100560009A6C01210A439A64FFF76EFE554B0020F6
:100570009A1C0133D47FDB7F544A0593A44613E0D1
:100580008C1C534F34196400E45BD75A01313C1979
:100590006410D452023303E000230130191C860199
:1005A000059CA142ECDB40326045F5DB6426012767
:1005B0000596069703F08EF98023DB059A6C0121DE
:1005C0000A439A64FFF740FE424C3E4BE47F0133FE
:1005D0000794DB7F2A1C08933C48002135E0991CD6
:1005E000099C8C465E00A444875B039638496646A6
:1005F0007600715A7E187608BF1BFC173919D7563A
:1006000061408F4200DAD1540399334C4652267828
:100610000296D656029F03960299039CF60FFF1787
:100620000497A1427741069E7F423E4006960133E1
:1006300004E04C1CA401002309940191089FBB42D3
:10064000CDDB0199403001312032079B9942F0DB2C
:10065000059C013C0594002CACD11A4B2A1C01339B
:10066000DC7F05990BE0D056022801DD4010D05404
:10067000013300E00023A342F5DB01312032079E65
:10068000B142F7DB154B1B68DF0703D5144B154848
:100690001B68984700260B4F0DE0104B01221B688A
:1006A000134206D0BB18D87F0F4B291C1C680023AF
:1006B000A04701362035074CE37F9E42EDDB0698CC
:1006C0000BB0F0BDA01700201B1000209C120020D2
:1006D00000400040A21700209C17002018000020B6
:1006E0008C000020C6610000D801002008B5031C62
:1006F0000F3B0020032B0FD8181C05F059FC0205F6
:10070000080BFFF78FFE07E0FFF7A2FD04E0FFF7FD
:100710000BFF01E0FFF70EFE08BD10B50C4B0122E8
:1007200030331978002300E0231C5C1C101CE4B259
:1007300098408142F8DA074A072113718022D205D6
:100740000B401902106C044B03400B43136410BDA3
:10075000A017002028000020FFF8FFFF064B07220B
:10076000313319788023DB05186C1140034A0902E4
:1007700002400A431A647047A0170020FFF8FFFFE9
:1007800000B5002803D04901014B8918C85600BDA7
:100790009874000000B5002804D04901034B891863
:1007A000C85601E00E20404200BDC04698740000CB
:1007B000F0B5D74B8DB003909A1C0133DC7F00233A
:1007C000D57FD449181C08E056008853013200E058
:1007D0000022A242F8DB01334031AB42F8DB039C3C
:1007E0000423002C01D1CC4B9B785BB208930B9374
:1007F00027E1CA4B00241B7802940193C84B019D4A
:100800001B78019FEB180793C64B1D78C64B6E1CD7
:100810001B780996EB187E00049301363BE0731EAB
:100820005B010024069313E0C04A0398AB181B57E2
:100830000234DA0FD3185B103A1C0593FFF7A0FFC0
:10084000009B0699059AC0188B18B949C0B2585434
:10085000049A61199142E7DB7301099C069313E046
:10086000B24903980B57211CDA0FD3185B103A1CBE
:100870000593FFF785FF009A06998018059AC0B284
:100880008B18AB4902345854049A9442E8DB029C1A
:10089000023601340294029C01996718079CA74212
:1008A000BDDBA44B00241B7802940193A24B019D55
:1008B0001B78019FEB1807939A4B1D789A4B6E1C7F
:1008C0001B780996EB187E00049301363BE0731EFB
:1008D0005B010024069313E0944A0398AB181B575E
:1008E0000234DA0FD3185B103A1C0593FFF752FF5E
:1008F000009B0699059AC0188B188D49C0B25854B0
:10090000049A61199142E7DB7301099C069313E095
:10091000864903980B57211CDA0FD3185B103A1C39
:100920000593FFF737FF009A06998018059AC0B221
:100930008B187F4902345854049A9442E8DB029C95
:10094000023601340294029C01996718079CA74261
:10095000BDDB02F0BFFF8023DB059A6C01252A4333
:100960009A64FFF771FC754B1B689E0706D5744BA4
:10097000281C1C680BA92A1C2B1CA04700250FE073
:100980006E4B02221B68134209D0614B6D4F01333D
:10099000D87F6B4BE9011C68C9190023A0470135BA
:1009A000694CE07F8542EBDB594B421E0133D97F16
:1009B0000B9B5201DBB24D1E01935118634B554EF8
:1009C0004900634CC918F31A00951219049333E0D7
:1009D0006746BD01991C69185E4D49004F5B02993D
:1009E0003DB20E19023E3188A94207DA2518023DB0
:1009F00029806D462D793780D5540CE0039E002E5A
:100A000009D0011902390E88AE4202DDD55C0135EC
:100A1000D55400270F80013B023C06E0049D009B5B
:100A20006D18844600240295081C5E1CD0D1011C60
:100A3000604601384039203A0028EFD10B9B013B3A
:100A40000B93089C0B9F634200979F4200DBD0E60C
:100A5000039D2F4B002D1DD09A1CD07F0133DC7FCE
:100A600001383B4B42013C4D1219D2180021ED1ABE
:100A70000CE0AE18F75CD65CBE19D65400E000233B
:100A8000013B1E190136F4D10131203A431A0133DA
:100A9000F5D176E0314A072510781A1C0533DE7F40
:100AA0001D4B293202215B5E17782D4AED1A127810
:100AB000274B6D00D318C7199619EDB2039900930F
:100AC00094460DE0E25CAA18E254013303E0009A78
:100AD00064010023141962469A18B242F2DB013114
:100AE0000C18BC42F3DB1F4B194D1878084B002142
:100AF0009A1DD77F1C4A283312781E78C719961979
:100B0000551994463AE0E25C0E3AE254013330E083
:100B1000A01700209C120020F801002016080020D9
:100B2000A80200206D0E0020030200208474000043
:100B300000100040020200206C0E0020180000206F
:100B4000D801002084400040A21700207A0800202D
:100B50001B1000200040004098740000C90D0020C8
:100B600098020020C80D0020960200206401002396
:100B70002C1962469A18B242C5DB01310C18BC42EE
:100B8000F4DB5D4B1B68DC0703D55C4B5C481B68E2
:100B900098475C4D00265C4F0DE0574B1A680123C7
:100BA0001A4206D0FA18D07F584A291C14681A1C19
:100BB000A04701362035564C3B1CE47F0194A642E9
:100BC000EBDB0398002802D03A1C35321078013351
:100BD000DB7F4C4E00934F4B01241A784E4B510152
:100BE0001B78551CD3188919029308950023079187
:100BF00034E05D0000219C4611E0484FD3195B565C
:100C0000DF0FFF18079B7F101E1C66444B01F65C2C
:100C10006B01DF193618424BF6B2FE540231029EC8
:100C20008B18B342E9DB670108993C4D04970FE04C
:100C30006B56344FDE0FF6183B1C63444F01DB5DEF
:100C4000049F7610BE191B18354FDBB2F3550231E5
:100C5000029B9942ECDB634601330234009DAB42B8
:100C6000C7DB039E002E44D0274B48331B785BB272
:100C7000012B3ED1274B40B21B78002B15D1274AC0
:100C800040101278C0B252B2D10F8A1852101D4CC7
:100C9000234906E0E65C9D018619F6B2AD186E5454
:100CA0000133009FBB42F5DB23E0019A1D49013A65
:100CB0004010C0B2114004D5022301395B421943F0
:100CC0000131104C56010023144D341994460DE0A7
:100CD0006646AA574E01D70FBF18E25C7F10F7197E
:100CE00082180F4ED2B2BA5501330231009FBB4277
:100CF000EEDB0DB0F0BDC046180000208C000020D7
:100D0000D06100001B100020A0170020D801002097
:100D1000A21700206D0E0020030200208474000042
:100D2000001000400100008038B52B4A01232B4CF5
:100D3000126800280CD01A4203D0294B29481B689E
:100D40009847231C323303211970333401230BE0FD
:100D50001A4203D0224B24481B689847231C323385
:100D60000221197033340323204A2370101C3230BF
:100D7000333201701370194A0721131C323318786B
:100D80001B4B08401C681B4940052140014319606A
:100D900019688024E405A068A160111C333108782B
:100DA00003211D680840144980042940014319604B
:100DB0001B68A168A360D07BFFF7FAFC02F08AFDF4
:100DC000A36C01221343A364FFF73EFA04F0F6FB81
:100DD0000A4B1B68984738BD18000020A017002058
:100DE0008C000020D6610000DC610000AC02002015
:100DF000C8010020FFFF1FFFFFFFF3FFB801002025
:100E0000F7B502F003FCCD4B187004F07DFF002015
:100E100005F0FEFACA4ECB4C6422201CCA4905F0EC
:100E20008BF9CA4B1A78002A2ED000221A7004F0CF
:100E3000F7FFC74B1B689847012005F0E9FA03F05C
:100E4000DDF8E07BFFF7B4FC00F05CFB02F042FD54
:100E50008023DB059A6C012422439A64FFF7F4F99E
:100E600000F050FBBB4B1B68234203D0BA4BBB487E
:100E70001B68984700F0A6FA04F0A0FB002002F0DF
:100E800051FDB74B1B689847AE4BDB7C012B17D14C
:100E9000B44AB04C1268002A09D022681A4203D022
:100EA000AD4BB1481B689847FFF712F9FEE723687E
:100EB0009A0005D5FFF70CF92268AC4B134023606C
:100EC000AB4D2F787CB2132C00D950E2201C05F0DA
:100ED00079F81E004E022A014E024E022A019301A9
:100EE0004E024E024E02C901D001D3011400B301DB
:100EF000B901B901B901B9014402924B9D4C463385
:100F00001D7800231A1C191C9B48AC46CEE18D4B62
:100F1000DB7C012B6ED18F4C802523682D052B4265
:100F200068D023682B4203D08B4B94481B689847AA
:100F300023682B4206D0924B01201C689149022263
:100F4000031CA047834D2B681A0106D58C4B01204A
:100F50001C688D490222031CA0472B681D0106D581
:100F6000874B01201C6889490222031CA047794D48
:100F70002B681A0106D5824B01201C688449022285
:100F8000031CA04780242B682405234203D0724B06
:100F900080481B6898476F4D2B68234206D0784BDA
:100FA00001201C687C490222031CA0472B681D01FC
:100FB00006D5734B01201C687849021C0023A0470A
:100FC000644D2B681A0106D56D4B01201C687449CD
:100FD0000222031CA0472B681D0106D5684B012087
:100FE0001C687049021C0023A0475A4B6E4A1968BE
:100FF0000A401A60FFF7A0F802F09AFC6B4B1B68DE
:101000009847544B1B68DA0414D5694A694B04208D
:101010001A60694B196801431960196802208143FD
:1010200019601968012001431960644B002119609F
:10103000634B1A6002F090FC624B1B68984702F009
:1010400049FC614D0023EB77604B1B68984704F027
:1010500001FB5F4B1B68984704F0DCFC00F0CAFA08
:101060005C4B1B68984702F043FC02F04BFC5A4B68
:101070001B78002B01D104F025FD584B1B689847C5
:10108000731DDB7F002B03D100F022FB00F0A8FED4
:10109000731DDB7F002B3DD1514B80251B6898478A
:1010A00001F07BF84F4B6D011B68984701F09AFBEC
:1010B00001F03EFC4C4B1B689847264C23682B42A2
:1010C00023D03E4B3A481B68C01A484B9A7819788F
:1010D0000132904004F080FF394B186023682B42A6
:1010E00003D01D4B42481B6898471A4B1B68DA0413
:1010F00006D5234B01201C68314904220023A04758
:101100002D4B01211A688A431A603A4B1B68984795
:1011100001F0D4FD8023DB059A6C01210A439A6417
:10112000FFF76EF823E10120FFF742FB052C00D00A
:101130009FE0FFF777F902F011FB9AE01C00002016
:1011400004010020A0170020AC0200202500002090
:1011500090010020180000208C000020E3610000B6
:10116000B8010020481A0020EA610000FFFFFFDFFD
:101170003C0100200418002018080020FA6100003B
:10118000D8010020F8010020FA010020FC01002015
:10119000FE01002002620000BC0D0020F4170020B8
:1011A000B80D0020F3170020FFFFFFF79401002087
:1011B000FFFFFF0014E000E010E000E018E000E0B6
:1011C000D4010020A801002009010020A001002076
:1011D0009C010020BC010020D8000020B4010020A8
:1011E00098010020B00100208C0100201410002084
:1011F0000A6200007C00002002F06CFB5D4B1B6863
:10120000984704F027FA5C4B1B68984704F002FCEF
:101210005A4B1B78002B01D104F054FC04F0EAFC7B
:101220008023DB059A6C01210A439A64FEF7E8FFEC
:10123000534B13221A709AE0524B1B6898470F23A6
:101240002B7094E0201CFFF751FA4F4C207002F0F5
:1012500085FA4E4B01221A704D4B13221C60484BED
:101260001A7084E04B4B1878FFF75EFD00232B705B
:101270007DE013232B707AE0474B5B785BB20C2B3D
:1012800075D0464A0823D374454AD37404F0C8FD88
:10129000444B1B689847012005F0BAF802F0BAFAEF
:1012A00065E01D1969871D1869870132023362459F
:1012B000F7DB3D4A012013688343136011688023E4
:1012C000DB059C68996011680224A14311601168D4
:1012D0009C68996011680824A143116011689C689A
:1012E000996011680424A143116011689C68996099
:1012F0002E4980240D68844025430D6009680191C2
:10130000A021C9058D68019D8D601D68802149055A
:1013100029431960156826492940116011689D68A4
:1013200099601D688021490429431960C046C04660
:10133000C046C04662B61F491D6829401960116841
:101340000C431460126899689A60BFF36F8F0C4B5E
:1013500000221A70184B187009E002F0BBFA8023C3
:10136000DB059A6C01210A439A64FEF76DFF0A4B74
:101370005F7050E5A00100209C010020D8000020F3
:101380003C010020A4010020E0010020E101002038
:10139000E40100203D01002000000020AC020020FC
:1013A000A017002090010020C8010020D0010020DB
:1013B000FFFEFFFFFFFFFFFE2500002049434043E3
:1013C00040187047F0B54B4B87B05A1CD17F1A1CA0
:1013D00047321278484C52B20292013A504242418E
:1013E0008A1A049222609A1CD57F1A1C48321278FD
:1013F00052B2171C013F03927A425741029AEF1BE7
:101400006760012A02D10023238106E04C330022C9
:10141000985E490004F02EFE2081039B364C012B80
:1014200002D10023638107E0324B4A330021585E2A
:10143000690004F01FFE60812E4E7F00331C4A338A
:1014400000229D5E391C6B005B19181C05930197E7
:1014500004F010FE4043284C4000E060A8000199D1
:10146000401904F007FE4043331C400020614C3318
:1014700000215F5E029978004B424B41049AC019EB
:101480005843510004F0F6FD0399059A6061484203
:1014900048415043019904F0EDFD331CA0615033E5
:1014A0001B78002B02D1E561276201E0E76125622C
:1014B000124B5D68002D1BDD9F6868007843642136
:1014C00004F0D8FD4C360023F45E011C201C04F00F
:1014D000D1FD0B4CC6B26421281C267078434942CA
:1014E00004F0C8FDC719FFB205366770A670E77033
:1014F00007B0F0BDA0170020A40D00207C0D002037
:1015000030000020F0B5254B87B09A1C0133DB7FFB
:10151000D67FD91C721C0233039305920023204A04
:101520000491181C059CE51AEF010197BC5AB852AA
:10153000049CAD0129194F00BC5A1A4CB85200271F
:101540002F550F550199184F0133CF19029739883C
:10155000388003996F1879000191895A019988524E
:1015600012496D18002129703955F71A0C4D0137B1
:10157000D8DA00220136039B111CB60158002F5AFD
:101580002A52F0184700EC5BEA53064FF954013B2E
:101590003954012BF2D107B0F0BDC046A01700208E
:1015A0000040004000200040024000400120004078
:1015B000F7B50E4B9A1CD17F0133DE7F481C0136F4
:1015C00000230190019C321CE71ABF01951CAC4618
:1015D000BC44074C00256046013A0555501CF5DA1D
:1015E0000133CA1A0132EDDAF7BDC046A017002058
:1015F0000020004000B50F4A0F49131C5C331B78D4
:10160000896838324B4312789B1152B2934200DA08
:10161000131C0A4A9BB213808022D2051B059069D5
:101620001909074B03400B439361024BDA6B054BDF
:101630001A6000BDA017002004010020A00D0020AA
:10164000FFFF00F00402002070B501320233920166
:10165000D2181B4BD35C5BB21F2B30D00F2B00DD9D
:101660000F3B98422BD0002B29DD051C1C1C154A72
:101670002B352B3464006D00551912190226945F26
:101680000226AA5FA24200DD221C0F4C39342478C6
:1016900062439211914212DD834202DD021C181C4A
:1016A000131C0A4A115C002904D04CB29C4203DD91
:1016B000DBB21355135402E09C4200DAD15470BDE2
:1016C0000020004008020020A01700204001002058
:1016D000F0B5A84E93B03368580400D571E3A64F17
:1016E0002123FB5C002B1AD0002504E02123FB5CA6
:1016F0000135AB4213DD80213368C9010B42F5D0BF
:101700002023F85C9D4A9E4BE90189181C6802223F
:101710000123A0472123FB5C0135AB42EBDC994F51
:10172000994B786839681C1C1E1C2E3438303831AF
:101730001E3E002200251A80257002600A60DA83AE
:10174000023B013C04380439B342F4D18F4B0020F2
:10175000191C10391870013B00228B42FAD18C4CB5
:101760008C4DA068E168013001398B4F23686668B1
:10177000059003918821A0602A612A607A5003981D
:10178000059A0133013EE06048C4824200DAABE2D0
:101790000025824CAC46171C1D1CB5420DDB781C85
:1017A0002B1C80019A1C8218115D013B49B20F2944
:1017B00001DD614611559E42F4DD039A013FBA42B4
:1017C000EBDD774A6F49724C0020175E6D4A09685D
:1017D000646852682B1C0A970B9106946C4D6E4CF2
:1017E0006B4F6C486B490C928822A258ED683F6899
:1017F00000690968694C10951197099008910D923C
:10180000B34200DAABE0059A059901320231920148
:10181000890103920E9137E00D9D8D4200DA0D9102
:101820000B9D059F860002965743AE19151C5D431C
:10183000079704953768079DBC462F1C674437609F
:10184000029D0C9F7E191B256D183768AC46049DC0
:101850002B317F19654637606F004F4D4900EE19F7
:10186000B7882818D7197830B780067869180136F4
:1018700006700226885F824202DD6F46BF884F8075
:10188000069F013B9F426ADC039D9E1CA919454FA0
:101890004A00095DD25B68460A9D828092B249B2D5
:1018A000AA4205DB099F089801378018099708901C
:1018B000481E0E28B0D9022AE2DD0029E0D10599A0
:1018C000581C8446890102916144095D023A49B27B
:1018D000481E019200220E282CD8039D87000497F1
:1018E000AA19019F059D6F4307971F2717550B9D49
:1018F000049FEA19019D17685D430F95079D7F19A5
:101900001760049D0C9A57190D1C1B353A680795F2
:101910000F9D5219079D3A601F4F6A001E4DBA185D
:1019200097882818019D78307F19978007780A1CBE
:1019300001370770039F391C61440F5D79B2481E5F
:101940000E285ED8002A2FD08A425AD003980F372B
:10195000FFB286193755069F013B9F4294DD0598DB
:10196000109901380590814200DDBFE1119B069E70
:1019700046E7C04618000020A01700208440004021
:10198000D801002004000020600200204F01002048
:10199000D41800200401002008020020002000408C
:1019A000A00D002000400040039D82000492019F92
:1019B000AA19059D6F4307971F2717550B9D049F75
:1019C000EA19019D17685D430F95079D7F19176000
:1019D000049D0C9F7A190D1C1B35176807950F9DE8
:1019E0007F19079D1760D04A6F00CF4DD719BA886D
:1019F0002818019D78305219BA8007780A1C791C82
:101A000001700E9F391C61440F5D79B2481E0E288B
:101A100003D8002A4AD08A4298D1029FB9190F5D93
:101A200079B2481E0E2803D8002A6DD08A428DD183
:101A30000E9FB9190F5D79B2481E0E2805D8002AED
:101A400000D18FE08A4200D080E7029FD91C78182D
:101A5000075D78B2451EAC460E2D05D8002A00D190
:101A6000AEE0824200D071E7039D6818075D78B24E
:101A7000451EAC460E2D05D8002A00D1D3E0824287
:101A800000D063E70E9D6918085D41B24F1E0E2F0E
:101A900000D9F5E6002A00D1F8E08A4200D1EFE64D
:101AA000039F0F30C0B2BE193055E9E6039D820096
:101AB0009446019FAA19059D6F4304971F27175548
:101AC0000B9D2A1C019D62445D4317680795049D88
:101AD0007F1917600C9F1B253A1C62446D1817680C
:101AE000AC46079D7F19176065468F4A6F008E4D83
:101AF000D719BA882818019D78305219BA8007780A
:101B00000A1C0137077088E7039D82009446019FF5
:101B1000AA19059D6F4304971F2717550B9D2A1C73
:101B2000019D62445D4317680795049D7F19176006
:101B30000C9F1B253A1C62446D181768AC46079D24
:101B40007F1917606546784A6F00774DD719BA88B4
:101B50002818019D78305219BA8007780A1C791C20
:101B6000017065E7039D82009446019FAA19059DB7
:101B70006F4304971F2717550B9D2A1C019D624434
:101B80005D4317680795049D7F1917600C9F1B25FF
:101B90003A1C62446D181768AC46079D7F191760A0
:101BA0006546614A6F00604DD719BA882818019DB3
:101BB00078305219BA8007780A1C791C017044E702
:101BC000AA00039D0292019FAA19059D6F430497E5
:101BD0001F271755029D0B9A5719019D3A685D43BF
:101BE0000795049D52193A60029D0C9A5719051CDD
:101BF0001B353A680495079D5219049D3A604A4F77
:101C00006A00BA18958867440295029D7837AC46F9
:101C1000019DAC44654695803A789446021C604626
:101C20000130387020E7AA00039D0292019FAA1993
:101C3000059D6F4304971F271755029D0B9A57194F
:101C4000019D3A685D430795049D52193A60029DD3
:101C50000C9A5719051C1B353A680495079D5219B3
:101C6000049D3A60304F6A00BA189588674402951F
:101C7000029D7837AC46019DAC44654695803A7824
:101C80009446021C604601303870FBE6B80084467A
:101C9000019D0598039A454396191F2202953255D6
:101CA0000B9D019E2A1C62441068029D5E434019F0
:101CB00010600C981B31021C6244106849008019A6
:101CC0001060194A184D51188A88019EEF1992190F
:101CD00078378A803A7801323A70D1E5134D059E03
:101CE000EB680696B34210DD13B0F0BD0F4C104EFA
:101CF000A468099D089F0D990B48109A88230694A3
:101D000035613760C150A242EEDC084C069E256862
:101D10006368013E0596AB42E0DC069F0137BC01DB
:101D2000029703940BE0C04608020020D41800205C
:101D300004010020254C351C6368B342CEDC039EB1
:101D4000AB1C2348F3181F5C6E1E7FB23A1C103A7E
:101D50000E2AEFD81F495B005B5A0F3F0193381CD6
:101D6000191C059A331CFFF76FFC6C1C381C019979
:101D7000059A2B1CFFF768FC381C0199059A231C57
:101D8000FFF762FC381C0199069A331CFFF75CFCD4
:101D9000381C0199069A231CFFF756FC381C019940
:101DA000029A331CFFF750FC381C0199029A2B1C35
:101DB000FFF74AFC381C0199029A231CFFF744FCE8
:101DC000B8E7054B05481B68984788E4D4180020FD
:101DD00000200040004000408C00002028620000ED
:101DE000F0B5CA4BCA4918685B6889B004930B1CEC
:101DF00088331B680290C74801930E220023C35604
:101E0000002B41D000E063B2C34DEC5C002CFAD152
:101E10000370002B38D05E1E029CB700059695001B
:101E2000E6190397645937680094BC46271C674439
:101E30003760039C049F2B333E19049C3768655917
:101E40005B007F1955006D1837602E1C5A36CB1871
:101E500002241F5F3688BC4637B2BC4500DA5E807C
:101E6000059BAD8F1C335B00CB189E887619059DB2
:101E70009E804C198B187834783325781B78019E16
:101E8000EB18013E237001960138013AB6D2A04BFF
:101E9000A24A019F883311681F601023194209D19B
:101EA0009A4B9B491E685D6800231C1C1A1C181C59
:101EB000039331E012681A4203D0994B99481B688A
:101EC00098470025984E22E070686F1C336884465E
:101ED000964ABF01904C08E0991C7918885C40B282
:101EE000205C002800D08854013B6345F4DA8B4B1A
:101EF0001B68D9060AD58E4B8E4A0133A901D87FBB
:101F00008D4B891801221C68131CA04701358B4C8E
:101F1000E37F9D42D8DBC3E77F4F01303B56002B68
:101F200026D137599300F7502F59EF50039B5A276A
:101F30005B18BC469C4402932C2763461B88BF1841
:101F40007F000193BC466B469F888C4463465F804C
:101F5000171C029B1C379B8F7F00CF19BB80471833
:101F600077373F78BC468F18783763463B7001322D
:101F7000039B0434023303930F28CDD1644C704982
:101F8000231C88331B686A4A04934D89131C0595EA
:101F90004A331B888D691EB201964F68AEB29B1BF7
:101FA000069702969BB2543212780793574B0392CE
:101FB0001E68002728E001CE0199069B48433C2279
:101FC000A15E594304F056F805995E4A0818137843
:101FD00080B22080052B15D000B2A84207DA039BFF
:101FE000401B584302998011081820800AE0019A8A
:101FF000101AA84206DA039B401B58430799801128
:10200000081A208001370234049A9742D3DB404CEF
:102010004B49231C88331B68454A04930D89131CC4
:1020200005954C331B884D691EB201960F68AEB200
:102030009B1B069702969BB2533212780793334B41
:1020400003925E681E34002728E001CE0199069BAA
:1020500048431E22A15E594304F00CF80599394A01
:102060000818137880B22080052B15D000B2A84242
:1020700007DA039B401B58430299801108182080FF
:102080000AE0019A101AA84206DA039B401B584343
:1020900007998011081A208001370234049A974268
:1020A000D3DB1B4C231C88331D68214BAC461A1C08
:1020B0004E3217781A1C4A320020165E1A1C4F3214
:1020C000127801921A1C4C320025515F5033029154
:1020D0001B780496039300231D1C39E01A193C2633
:1020E000915F002932D00021505E1E26915F002FA3
:1020F00001D0049E301A019E002E01D0029E711A5A
:10210000039E002E20D0E152D0831FE00400002067
:10211000080200204F01002040010020180000208C
:102120008C00002017620000D4180020002000401E
:10213000A017002042200040D8010020A217002054
:10214000A40D002024000020E052D1830135023389
:102150006545C3DB09B0F0BD70B50D4B00224633B9
:102160001D78111C131C0B4C0AE0601878300370AA
:10217000A01843878383861E583033800131038043
:102180000232A942F1DB88340023236070BDC046CF
:10219000A0170020041800207047F0B5D74B91B06D
:1021A0005B68D74A0793D74B46331D7800231C1C26
:1021B000181C06E0590051188C87D1187831087026
:1021C00001330021AB42F5DB883211600B1CCE4A93
:1021D000CE4CCF49FF20E054013302C20F2BFAD17D
:1021E000C84B002646331B78CA4C0393CA4B009653
:1021F0001B690493C94B88331B680593C04B883314
:102200001D68DDE0C64833183C215B5E002B00D121
:10221000D1E02768049A3F01FF230020BF180293F2
:1022200001901CE00199BD4A4B009B183C201A5EAE
:10223000002A11D0BB49188872181188DB8B401A0C
:10224000D18B00B2591A09B2FFF7B8F8B84203DAD5
:102250006A461279071C0292019B0133019301988F
:1022600005998842DEDB6A4608208356591C00D156
:10227000A1E0A64AD2560292013263D0A249980048
:1022800042580190BA4200DC95E002989C4A400016
:10229000844661460020885202980C304000801825
:1022A000844661460020C88002981C304000801897
:1022B00084466146002088800299501878300021B9
:1022C0000170029900202C31490051184880B11842
:1022D000029192495800415A029801800C20C0187E
:1022E0008E49400084468C446046C0880299C88369
:1022F0001C21C918894849008C4684446146898854
:102300000298818785487821C01884468C440099BA
:10231000604600788A1878321070029A7F48944696
:102320005A2294441A1C2C32520081184A88614661
:102330000A807548019A6946276017500A787349E0
:10234000CA5438E06E48754A301802905900885ACD
:102350000299013508800C21C91849008C46944423
:102360006046C0880299C8831C21C91849008C4660
:1023700094446046808802998887D1188C467820DA
:1023800084446146097800988C465D494018019064
:10239000614678300170181C2C30400012180299E8
:1023A00052885A310A80584A99008F506A461078EC
:1023B000564A2760D0540099023601310091043406
:1023C000009A039B9A4200DA1CE74D4A0024131C32
:1023D00088331D60514B191C88310968089149499F
:1023E00046310978009404914F4909680991D0E079
:1023F000464B009E9B57013300D0C6E0474BE71881
:10240000BE8F0196002E19D1BFE03D4873001B1806
:102410003C215A5E002A0FD0404AD98B105B1A88A3
:10242000801AFA8B00B2511A09B2FEF7C7FF099B56
:10243000984201DAF0B20290013602E0FF260296DD
:10244000002604988642E0DB694608225656731C33
:1024500000D195E0331C2A4A1C330420085E5B003F
:10246000D3180190059304201B5E01992B48C918CD
:1024700002930391035F019972004B432049069236
:10248000505E029A03995043181803F0F3FD069B1F
:102490001B49321C58520C321E203B5E1848520019
:1024A0000199821801924B430621505E029A0399CA
:1024B0005043181803F0DEFD019B0C21D880321C1C
:1024C0006846095A0E4B05982C32520081805A37C3
:1024D0009A183988538808B21FB2874200DA0B1C59
:1024E00053800748009A0D4986198B18783678333F
:1024F00032781B78D318337047E0C0467C0D00203B
:1025000004180020A01700205001002040010020E6
:10251000FFFFFF7FDC000020A40D00200802002048
:1025200018080020CC0D002004020020580081185B
:102530003C26895F002921D1A249A34A0E5B0135BF
:102540008652181C0C30FE8B40001018C680181CD8
:102550001C30400080188446684686886046868025
:10256000009E5A37891978310878D1182C335B00CE
:10257000D3183A88783108705A8006E0013301E0B8
:10258000924A0023049EB342D0DB009E02340136FF
:102590000096009E0898864200DA29E78A4B8C4C08
:1025A00088331D608B4B03211A1C463217781A1D85
:1025B0007E1E019626784033049676080996667842
:1025C0000B96D28F0C9218788608059603F004FDBE
:1025D000A678C0B20896760806900D967A483E1CFA
:1025E0002B377F00E4783F18019902377A4B7B4AFA
:1025F0000E9400971B368F007600FF183E23D25EA4
:10260000361804360F920024D3E030880290002858
:1026100000D1C6E001996D4A4B009B183C201B5E1F
:10262000002B57DC079900292DDD331C1E3B1B882E
:102630006A46039308239A5E69460A920C22505E0A
:10264000099A0499801803F015FD0A9B80B258433B
:102650000B9903F00FFD02996A46401880B20823D7
:102660000290985A039A5E4B5A3A92B230809A423C
:1026700009D900B20A216D2802DD03F0FBFC81B20A
:102680000298091831800021725E684630210B5E85
:102690009A4200DA80E04C4B0198079A1B18783375
:1026A000002A08DD1B780F2B7BD900990023CB5E15
:1026B000182B76DC65E01A78072A72D900990598FC
:1026C0000023CB5E834267DB0A2A6AD9069A9342CB
:1026D00067DA45E0079800282EDD331C08221E3BF0
:1026E0006946515E1B880A9103930C216B46C85EB4
:1026F0000D994018089903F0BDFC0A9A80B2504326
:102700000E9903F0B7FC029B0822C01880B2029019
:102710006946505A039A8723643A92B23080DB00AC
:102720009A4209D900B20A216D2802DD03F0A2FC09
:1027300081B2029BC91831800020335E0F998B4211
:102740001FDB079B20480199002B0FDD43187833CE
:102750001B780F2B25D9009A0023D35E182B20DC81
:10276000009B3480013D1C803C601AE043187833A4
:102770001A78072A15D9009805990023C35E8B4261
:1027800005DA009A3480013D14803C6009E00A2A91
:1027900007D90698834204DA00993480013D0C8001
:1027A0003C60019A009B013A023B0192023E009379
:1027B000043F0198013000D027E7034B11B0883364
:1027C0001D60F0BD08020020041800201808002039
:1027D00030000020A0170020DC000020A6170020F9
:1027E0004C04000073B500230193464B99681929E6
:1027F00005DD081C12380A3903F030FA0190424B0B
:10280000424C46331E7800231D1C191C08E0E018BA
:1028100078300078411889B2824200DA051C013311
:102820002AB2B342F3DB88342368452A01DD012B49
:102830000ED0022B10D134480CB25D300078E61770
:10284000C50F84426E41F0B2002807D0402A05DD52
:102850002F4B01221A7115E0012B0FDD2A4809B216
:102860005D300078CD17C40F81426541E9B200297F
:1028700004D0312A02DD264A01211171002B01D139
:10288000234A1371224B1B79002B3AD0214C236829
:10289000DA0703D5204B21481B689847226801239B
:1028A0001A4207D0184A1E49463210781D4A146849
:1028B0000222A047174B1A6801231A4207D0124A76
:1028C000194946321078174A14680222A047114B62
:1028D00001221B68134207D00B4B1449463318786A
:1028E000104B1C680023A0470A4B1A6801231A42A8
:1028F00005D00C4A181C146801A90422A047FFF750
:102900002BFC73BD04010020A01700200418002038
:1029100030000020180000208C0000201F62000002
:1029200040180020D80100205E1800207C180020EC
:10293000F0B5CB4E0027331C88331F60C94BA1B0C4
:102940000633DF77C84B351C191C463109789A1DB0
:102950001B91D28FC54C510010B289B21A1C1D9028
:102960001C915A3212781E350C921A1C56320020D5
:10297000115E1A1C0A9158320020115E0B91491009
:1029800013915121595652338AB21492B84AD069E0
:10299000126A411A169116A800881E901B78029799
:1029A0005BB299B2D31A189318AA1288331C3C331D
:1029B00017911F9203931997069705970497079706
:1029C00069E103980388002B06D01D991BB25B1A9E
:1029D0001C9A5B10D318038003990022895E08912A
:1029E000002908D023680C99012019908B4204DA41
:1029F0001B18236001E0089A226023680C98834228
:102A000005D16368012B04DC0133636001E0002120
:102A100061606268002A00D1D7E00823E356954838
:102A20000D930333034004D50220013B404203438E
:102A300001335BB20993A360012A1BD102990E22D4
:102A40004A430998894B1218101D40001918308804
:102A50008880101C298808304000C15203990C322C
:102A600009885200D1527E4A02991B188A1878327E
:102A700012789A806368012B00DCA6E00023F25EE6
:102A8000029801920E2250430D9A784B81180A1D2C
:102A900052001A909A180423D05E019A0090121ADC
:102AA00000202B5E081C94460830704A06934000B4
:102AB000825E069B0D929A1A07926246D317D2182D
:102AC0005A400492079A0C31D317D2185A409446B0
:102AD000049A4900131C6344644A04938A5E089B69
:102AE0000E92991ACB17CA185A4011925C49029A51
:102AF0005E4B51187831097818180F910422815EC5
:102B00000F9B1091591ACA178818504015900498B5
:102B10000A9B0A9A1B1859100593009B12915A435D
:102B2000031C01984343D2185018059903F0A2FAE8
:102B300080B2069A0D9907900A9B04984B43504324
:102B40001818129B0599C01803F094FA80B2119AD4
:102B500004900B988118031C0E984343101C089A8C
:102B600050431B184810181803F084FA80B2139BC6
:102B7000109A06901598191853430F9A50431B1832
:102B80004810181803F076FA80B2099905901A983F
:102B900043181A1D35485200821869461C20415AB4
:102BA000684691801A1C1021095A08322F48520099
:102BB000115268461821095A0C332C485B001952EF
:102BC00082186B461420C35A93806368022B16D177
:102BD0001C216846085A10226946515A18236A4631
:102BE0009B5A039A30802980029813801C4B6946B7
:102BF0001422C318515C78330137197013E0002B8D
:102C00000DD12368002B0AD1039A338002982B80C0
:102C10001380134AAB8782187832137003E00123C4
:102C200003995B420B8014A80022B35E0022825EEF
:102C3000934203DC14A90988318005E0169A934277
:102C400002DB1EAB1B88338017A900202B5E0022FD
:102C50008A5E934210DC17AA12882A8012E0C046CE
:102C60000418002004010020A0170020E81800200C
:102C7000A40D0020010000801898834202DB1FA9E8
:102C800009882980029A039B01320233029202359D
:102C9000023603931C3402981B99884200DA90E6AE
:102CA000044B19AA12780633DA77034B21B0883324
:102CB0001F60F0BD0401002004180020F0B5394B5E
:102CC00085B01A1C463212785B3303921B78364962
:102CD000029300231D1C58E03448C2183C24165FA0
:102CE0000888002E20D0324EF61801963C24345F1E
:102CF000002C19D0019C6E462488FF1801940424EE
:102D0000365FB4460024165F6446A61B019C76100D
:102D100036193E8006B2B4461E24165F6446A61BD2
:102D200076103618FE8304E0214CFF18E65AF8832B
:102D30003E801F4E6C469E19B78F368801971D4FF7
:102D4000FF18BC46A7886446A787184CE45E37B2D4
:102D5000E71BFC173F196740029CA7420CDC1E24AE
:102D6000175FBC4600240F5F6446E71BFC173F1942
:102D70006740029CA74202DD0C4FFE52D08368469A
:102D800080880135908702330231039A094F9542BA
:102D9000A2DB074B054C88331B6805B0FB65E36578
:102DA000F0BDC046A01700202218002018080020FF
:102DB00004180020CC0D0020EFF30880704700BA03
:102DC000704740BA7047C0BA70471F234209184085
:102DD00001238340181C024B9200D0507047C0461C
:102DE00000E100E01F234209184001238340181C22
:102DF0002032024B9200D0507047C04600E100E004
:102E00001F234209184001238340181C6032024BE3
:102E10009200D0507047C04600E100E070B5002835
:102E200016DAC0B20F230340083B134A9B089B00ED
:102E30009B18032210409040FF225D68141C8440C0
:102E40008901A5430A408240281C1043586011E0C4
:102E500003248208094B2040C032A0409200FF2486
:102E6000D558261C86408901B5430C408440281C57
:102E70002043D05070BDC04618ED00E000E100E0F6
:102E8000034B01221A7080230022DB051A70704761
:102E90000D00002000B5104B01225A708023DB0585
:102EA00059690E4A0A405A6159690D4A0A405A61E5
:102EB0000C4A1278002A0DD00B4A11685A6909028F
:102EC000120E090A12060A435A61596980225204F5
:102ED0000A435A6100BDC0460D000020FFFFFFFEFF
:102EE000FFFFFFEF77000020C001002038B5A023CE
:102EF000DB059D680F242C402D022D0EE30705D520
:102F0000281C01F037FF1F4B1B68984708231C4201
:102F100004D001F021FF1B4B1B689847A3070FD576
:102F2000194B9B78082B01D0012B01D1174B03E0E3
:102F3000281C01F01FFF164B1B68984701F006FF85
:102F4000630704D5124B1B68984701F005FF0E4B31
:102F500001219C700F4B1A680A431A601968A0225D
:102F6000D2059068916018681021084318601868AD
:102F7000946890601868884318601B689168936033
:102F800038BDC046840000200D00002088000020CD
:102F900080000020D0010020034B0122DA70802342
:102FA0000022DB055A7070470D00002008B500F0C4
:102FB00055F8014B187108BD0D000020084B402248
:102FC00019687F204906490E11431A6882430A4353
:102FD0001A601A688023DB0519691A617047C046B8
:102FE000CC010020074B3F2219687F2011401A684E
:102FF00082430A431A601A688023DB0519691A6143
:103000007047C046CC010020074B084A1968186871
:103010008904890E090202400A431A601A68802353
:10302000DB0519691A617047CC010020FF80FFFFA2
:10303000084B4022196818684904490E1143064A92
:10304000090202400A431A601A688023DB051969E5
:103050001A617047CC010020FF80FFFF8023DB0551
:10306000186C4000C00F7047084B202219687F2061
:103070004906490E11431A6882430A431A601A68C6
:103080008023DB0519691A617047C046CC01002016
:10309000074B5F2219687F2011401A6882430A4358
:1030A0001A601A688023DB0519691A617047C046E7
:1030B000CC010020074BBE211A68C90118681140D5
:1030C000054A02400A431A601A688023DB05196921
:1030D0001A617047CC010020FF80FFFF084B2022BF
:1030E000196818684904490E1143064A090202404A
:1030F0000A431A601A688023DB0519691A61704750
:10310000CC010020FF80FFFF8023DB05186C8000CE
:10311000C00F7047084B102219687F204906490EDE
:1031200011431A6882430A431A601A688023DB0538
:1031300019691A617047C046CC010020074B6F2205
:1031400019687F2011401A6882430A431A601A687E
:103150008023DB0519691A617047C046CC01002045
:1031600000B50B4B1968002804D04906490E1022FF
:10317000114301E06F2211401A687F2082430A4305
:103180001A601A688023DB0519691A6100BDC04600
:10319000CC010020074BDE211A68C90118681140D4
:1031A000054A02400A431A601A688023DB05196940
:1031B0001A617047CC010020FF80FFFF084B1022EE
:1031C000196818684904490E1143064A0902024069
:1031D0000A431A601A688023DB0519691A6170476F
:1031E000CC010020FF80FFFF8023DB05186CC000AE
:1031F000C00F7047084B012219687F204906490E0D
:1032000011431A6882430A431A601A688023DB0557
:1032100019691A617047C046CC010020074B7E2215
:1032200019687F2011401A6882430A431A601A689D
:103230008023DB0519691A617047C046CC01002064
:10324000074BFC211A68C90118681140054A024061
:103250000A431A601A688023DB0519691A617047EE
:10326000CC010020FF80FFFF084B0122196818687D
:103270004904490E1143064A090202400A431A60F2
:103280001A688023DB0519691A617047CC01002098
:10329000FF80FFFF8023DB05186CC001C00F704763
:1032A000084B022219687F204906490E11431A680B
:1032B00082430A431A601A688023DB0519691A6180
:1032C0007047C046CC010020074B7D2219687F2043
:1032D00011401A6882430A431A601A688023DB058A
:1032E00019691A617047C046CC010020074BFA21CA
:1032F0001A68C90118681140054A02400A431A6059
:103300001A688023DB0519691A617047CC01002017
:10331000FF80FFFF084B0222196818684904490E14
:103320001143064A090202400A431A601A688023C0
:10333000DB0519691A617047CC010020FF80FFFF8F
:103340008023DB05186C8001C00F7047084B0422F6
:1033500019687F204906490E11431A6882430A43BF
:103360001A601A688023DB0519691A617047C04624
:10337000CC010020074B7B2219687F2011401A687E
:1033800082430A431A601A688023DB0519691A61AF
:103390007047C046CC01002000B50B4B19680028CF
:1033A00004D04906490E0422114301E07B2211405A
:1033B0001A687F2082430A431A601A688023DB055B
:1033C00019691A6100BDC046CC010020074BF621E7
:1033D0001A68C90118681140054A02400A431A6078
:1033E0001A688023DB0519691A617047CC01002037
:1033F000FF80FFFF084B0422196818684904490E32
:103400001143064A090202400A431A601A688023DF
:10341000DB0519691A617047CC010020FF80FFFFAE
:103420008023DB05186C4001C00F70478023DB054B
:10343000DA690F218A4302210A43DA61DA69F0214D
:103440008A4350210A43DA610B4A11790139C9B222
:103450005977D86909490140C020C0020143D961A8
:10346000D86907490140902000040143D96192794D
:10347000013AD2B2DA777047F8010020FFFFF0FF7F
:10348000FFFF0FFF30B51A4A1A4B11881A4DC918A1
:103490008023DB0589B2188C1984598C002159844A
:1034A00050889A8C411989B2421E998492B2DC8C60
:1034B000DA841C8D114D19855C8D5A8544199D8DBA
:1034C0000F4DA4B240199C8580B2DD8DD8851D8E2C
:1034D0001C865C8E5886988E9986D88EDA86188FD0
:1034E0001987588F5A87988F9987D98FDA8730BD77
:1034F000F8010020FF070000FF030000FF050000A7
:10350000FF010000F0B5284B284D1C782D784600AF
:10351000651985B07618264F02957501EF19631865
:1035200003970024944613E0224AD5565A1CD2B27F
:10353000EF0F01927F19039A7F10D7190837009770
:103540006F463A79009F0233BA700127AF40E41901
:10355000029A9342E8DB184B760129331D784B42DF
:103560004B41EB18154D5B102D78013B691801316B
:103570009B060F4D0905124F19430C437319F5199A
:1035800069686C600F4C811CC9B236196246317192
:10359000002A04D00C4A0121125691400A1C05B0A1
:1035A00099699A61F0BDC0466D0E002003020020AB
:1035B0000010004084740000A0170020C90D0020F6
:1035C00018100040101000406474000010B50D4940
:1035D0003F224B1CDC7F8023DB05986904341440B8
:1035E0009043204398610231C97F0124881C214007
:1035F00041180A4011029869034A02400A439A613D
:1036000010BDC046A0170020FFC0FFFF30B50D4B16
:10361000FC2292011A6019688022D205106911619A
:103620001C68012164041D68640E07480C4328408F
:103630002402204318601B6810691361106C000E8F
:10364000084030BDCC010020FF80FFFF08B50020FE
:10365000FFF7D6FB0120FFF7D3FB0220FFF7D0FBDB
:103660000320FFF7CDFB0420FFF7CAFB0520FFF77F
:10367000C7FB0620FFF7C4FB00200321FFF7CEFBAA
:1036800001200021FFF7CAFB0220011CFFF7C6FB47
:1036900003200121FFF7C2FB04200121FFF7BEFB3D
:1036A00005200221FFF7BAFB06200021FFF7B6FB39
:1036B000034B04211A690A431A6162B608BDC04669
:1036C00000ED00E030B5224BEE241A68E40114400E
:1036D00020481A687F21024022431A601C68802219
:1036E000D205156914611C4CE47D002C16D01C68B1
:1036F00004256404640E2C431D680C4024022840F9
:10370000204318601868146910611C687B202040F1
:103710001C688C43211C0143196015E01C680425BA
:103720006406640E2C431D680C408D43291C214304
:1037300019601968146911611C68F621C9012140DA
:103740001C682040084318601B681169136130BD74
:10375000CC010020FF80FFFFA017002000B572B64B
:103760000F4B01221A700F4BDA7D0F4B002A07D046
:103770001A68F621C901114018680C4A024005E098
:1037800019687B2211401A687F2082430A431A601D
:103790001A688023DB0519691A6162B600BDC0464C
:1037A00078000020A0170020CC010020FF80FFFF40
:1037B00000B572B6104B00221A70104BDA7D104B18
:1037C0001968002A08D049040422490E11431868D8
:1037D0000C4A0902024006E049060422490E114340
:1037E0001A687F2082430A431A601A688023DB0527
:1037F00019691A6162B600BD78000020A017002088
:10380000CC010020FF80FFFF014B18787047C046B5
:103810007800002010B58022D205116C80231B0295
:103820000B431364116C8023DB010B431364116C95
:103830001F4B0B4013641F4B802118684900014344
:1038400019601B68916893601B4B7F21987C1B4B10
:1038500008401C681A490004214001431960186897
:10386000A021C9058C6888601C6816482040842403
:10387000E4052043186018688C6888601248007856
:1038800040B2002802D001280CD103E01C680F4888
:10389000204003E01C6880200004204318601B685F
:1038A00088688B60116C0A4B0B40136410BDC046D6
:1038B000FF7FFFFFC8010020A0170020D0010020DB
:1038C000FFFF80FFFFFFFF8097020020FFFF7FFFC9
:1038D000FFBFFFFF054B00221A708023DB05996CA8
:1038E0000122914399641A707047C0460D00002070
:1038F000034B00221A7080230122DB055A707047A7
:103900001000002000B5064B72B61A78002A04D1C8
:10391000C046C04662B630BFF6E762B600BDC046DC
:1039200010000020014B18707047C046770000203F
:10393000054B19688023DB055A690902120E090A32
:1039400012060A435A617047C0010020014B1860FB
:103950007047C046C0010020054B00221A7080232A
:10396000DB055969802252040A435A617047C046F8
:103970000E00002000B5094B72B61A78002A04D157
:10398000C046C04662B630BFF6E762B6044A127857
:10399000002A01D000221A7000BDC0460E0000208F
:1039A00077000020014B18787047C0460E000020B9
:1039B00000B5054B72B61A78002A03D1C046C0463E
:1039C00062B6F7E762B600BD0D00002000B50B4BF4
:1039D0000B4A72B61978002902D01178002904D157
:1039E000C046C04662B630BFF3E762B6054A1278F9
:1039F000002A01D000221A7000BDC0460E0000202F
:103A00000D0000207700002010B51049104B042451
:103A10001960104B1A6822431A601A680224A243E4
:103A20001A601A68012422430B4C1A60002222609B
:103A30000A4A1160091A1160206811688842FBD295
:103A40001A6801218A431A6010BDC046FFFFFF00BB
:103A500014E000E010E000E018E000E0D4010020F5
:103A6000074B084A196818688904890E0902024040
:103A70000A431A601A688023DB0519691A617047C6
:103A8000CC010020FF80FFFF084B40221968186816
:103A90004904490E1143064A090202400A431A60CA
:103AA0001A688023DB0519691A617047CC01002070
:103AB000FF80FFFF8023DB05186C4000C00F7047BC
:103AC000074BBE211A68C90118681140054A024017
:103AD0000A431A601A688023DB0519691A61704766
:103AE000CC010020FF80FFFF084B202219681868D6
:103AF0004904490E1143064A090202400A431A606A
:103B00001A688023DB0519691A617047CC0100200F
:103B1000FF80FFFF8023DB05186C8000C00F70471B
:103B200008B5002802D0FFF7DFFF01E0FFF7C8FF6C
:103B300008BD70B5FFF7C4FFFFF792FF072401250A
:103B40006F26281CA040B043C0B2FFF7E9FFFFF783
:103B50009BFFFFF785FF013CF3D2FFF7C5FFFFF79F
:103B600093FFFFF7D7FFFFF77BFF70BD70B5051C14
:103B700007240126281C20413040FFF7D1FFFFF722
:103B800083FFFFF76DFF013CF4D2FFF7ADFFFFF7B6
:103B90007BFFFFF7BFFFFFF763FF70BD08B500288D
:103BA00006D0FFF78DFFFFF76FFFFFF79DFF03E0E4
:103BB000FFF79AFFFFF768FF08BDF7B500900F1CED
:103BC0000192FFF77DFFFFF74BFF072401256F26CA
:103BD000281CA040B043C0B2FFF7A2FFFFF754FF7C
:103BE000FFF73EFF013CF3D2FFF77EFF0024FFF713
:103BF0004BFF0126FFF78EFFFFF732FF15E0072589
:103C0000009B185D28413040FFF78AFFFFF73CFF1B
:103C1000FFF726FF013DF3D2FFF766FFFFF734FF02
:103C2000FFF778FFFFF71CFF0134BC42E7DB019B85
:103C3000002B06D0FFF744FFFFF726FFFFF754FFE6
:103C400003E0FFF751FFFFF71FFFF7BD07B5031CA8
:103C500001A84170037002210122FFF7AEFF07BDEA
:103C600007B5031C01A8417003700221FFF7A5FFEF
:103C700007BDF7B5061C0F1C0192FFF721FFFFF7E8
:103C8000EFFE07240125281C6E23A0409843C0B2F4
:103C9000FFF746FFFFF7F8FEFFF7E2FE013CF2D226
:103CA000FFF722FF0024FFF7EFFEFFF733FFFFF7D8
:103CB000D7FE29E0FFF7E8FEFFF7FCFE0028FBD067
:103CC000002333550725FFF7DFFE335D0093FFF731
:103CD00021FF009BA84018433055FFF7C1FE013D6E
:103CE000F1D27B1E9C4208DAFFF7EAFEFFF7CCFE1A
:103CF000FFF7B6FEFFF7F8FE05E0FFF7F5FEFFF76A
:103D0000C3FEFFF7ADFE0134BC42D3DB019B002BA9
:103D100006D0FFF7D5FEFFF7B7FEFFF7E5FE03E09D
:103D2000FFF7E2FEFFF7B0FEF7BD73B51E1C6B4652
:103D3000D8710733151C181C0C1C00220121FFF739
:103D40003CFF291C321C201CFFF793FF73BD00B5FC
:103D50004000064A40180023400180181A1CC11870
:103D600001338A720A2BFAD100BDC0460010004010
:103D7000F8B5234B00261F7812E0281C0021FFF71E
:103D8000E6FF204C281C22780021FFF7BBFB281CF3
:103D90000121FFF7DCFF2278281C0121FFF7B2FB8D
:103DA0001749F5190A7818490136CB7FD3189D4277
:103DB000E3DB164B00251F7816E0201C0021FFF7DF
:103DC000C6FF104E201C3278002153425A41FFF7A3
:103DD00099FB201C0121FFF7BAFF3278201C5342C7
:103DE0005A410121FFF78EFB084BEC191A78084B5A
:103DF000013528331B78D3189C42DEDBF8BDC04662
:103E0000980200201C000020A51700209602002028
:103E1000A0170020F8B58024E4052368674B002232
:103E200022601A601968A068A160654904270A60C9
:103E30000968E068E160FC20624980010860096867
:103E40002069216161696261A169A261E169E26140
:103E5000216C8021C9012164616C5B486264A16CA2
:103E6000A021A264C90502608D688A60256C574A4A
:103E70002A4022640568802252002A4302600268B8
:103E800088688A601A6808210A431A601A68A1685B
:103E9000A2601A684E4D3A431A601A68A168A2607F
:103EA0001A6802210A431A601A68A168A2601A6897
:103EB00001218A431A601A68A168A2602A1C343260
:103EC00010781E680322434910400004314001432A
:103ED00019601968A068A160291C33310978186835
:103EE0000A4091043C4A072602400A431A601A68B5
:103EF000A168A2601968802252030A431A601A68F6
:103F0000A168A2602A1C323211781868334A314005
:103F1000490502400A431A601A68A168A2602A1C77
:103F20005E3211780F2948D82A1C5F3212780F2A86
:103F300043D818680907B840F840014319600F21B9
:103F40000A4018681106264A02400A431A601B6894
:103F5000A268A3606B1CDA7F216C7F235200994317
:103F6000013A1A400B1C134323641E4A636C13432B
:103F70006364FFF75BFAFFF785FA2B1C31331B787C
:103F8000194A1E403302266C16401E43266438220E
:103F9000AA56A169154B1205FA400B401343A361C1
:103FA000FFF7E6FE124A134B02211A60124B1A6801
:103FB00017431F601A688A431A60F8BDC8010020C1
:103FC000C4010020CC010020D0010020FFFF7FFFB2
:103FD000A0170020FFFFFCFFFFFFF3FFFFFF1FFF05
:103FE000FFFFFFF0FFFF0F00FFF8FFFFFFFF00F0F4
:103FF000FFFFFF0014E000E010E000E038B5FFF73D
:1040000009FFFFF723FB0220FEF7DFFE0020FEF78B
:10401000DCFE0120FEF7D9FE0320FEF7D6FE0420C9
:10402000FEF7E0FE0520FEF7DDFE0620FEF7DAFED5
:10403000FFF7F0FBFFF7CAFA404B5B7E002B10D076
:104040003F4B0122196818684900490E11433D4A47
:10405000090602400A431A601A688023DB051969C1
:104060001A61364B9B7E002B10D0354B022219680B
:1040700018684900490E1143324A090602400A43B2
:104080001A601A688023DB0519691A612B4BDB7EE5
:10409000002B10D02A4B0422196818684900490ED9
:1040A0001143284A090602400A431A601A6880230D
:1040B000DB0519691A61244A80235178DB051971DF
:1040C000596890784900C007490801435960D4787D
:1040D0005D6803211D480C40A4032840204358601C
:1040E00014795D681A480C40240328402043586026
:1040F00054795D6817480C402840A402204358605A
:104100009279586811400A021349014011435960DD
:10411000124B1A78124B1A70124B1A78124B1A70F3
:10412000064B1A79114B1A70FEF76EFFFEF7C2FFAD
:10413000FFF730F8FFF7C6FA38BDC046A0170020D9
:10414000CC010020FFFFFF8014100020FF3FFFFF85
:10415000FFCFFFFFFFF3FFFFFFFCFFFF2600002064
:1041600014030020AC010020980D0020001A00204C
:10417000F8B50B4F00253E7809E000210A1C201CF1
:10418000FFF7C0F9201C01210022FFF7BBF9054908
:104190003A780B78AC19D31801359C42EDDBF8BDA9
:1041A00016080020A8020020F8B50B4F00253E7825
:1041B00009E0201C00210122FFF7A4F90121201CA5
:1041C0000A1CFFF79FF905493A780B78AC19D31808
:1041D00001359C42EDDBF8BD16080020A802002046
:1041E000F7B50388072201248C46654615415D40DA
:1041F000254029010091D90A1E0B214001966940F2
:104200005F093F26890137400F43009E01990E4305
:10421000190921404D40F6015B080721ED000B40D4
:1042200037432B433F013B43013ADED20380F7BDC6
:10423000F0B589B002900020039104920090AFE0A5
:10424000FFF777FCAE20FFF791FCF120FFF78EFC23
:10425000029A009B574ED418E4B2201CFFF786FC4C
:10426000012307A85B420380211CFFF7B9FF5248D6
:104270005249534B08601A68042002431A601A68B6
:10428000022082431A601A68012002431A60002249
:10429000326049484B4A4C4D10604C4804786C439E
:1042A000857845480135EC40041B14601D1C3068BE
:1042B00011688842FBD21A6801218A431A60009A69
:1042C00000209302039A0190D318059339E00198D6
:1042D000059B1C18E05DFFF749FCE15D07A8FFF7AF
:1042E0007FFF013FF3D2344A344B33481A602B68C6
:1042F000042213432B602B68022293432B602B680C
:10430000012213432B60002333602E4B2F4A186089
:104310001178642041439078274A0130C140511AF6
:10432000196031681A689142FBD22B680127BB43A0
:104330002B60019B0433019301988023DB0098429A
:1043400001D00327C3E707AC2088000AFFF70EFC63
:104350002078FFF70BFC381CFFF720FC69463B1C5C
:10436000AF201F313A1CFFF7E0FC194C23683B4299
:1043700003D0184B18481B68984723680122134242
:1043800006D0164B69461C68101C1F310023A0473D
:104390006B461F331B78032B09D1009A0132009220
:1043A000009B0498834200DA4AE7012000E00220E3
:1043B00009B0F0BD18E000E0FFFFFF0014E000E0EE
:1043C00010E000E0D4010020400D03001410002094
:1043D000180000208C00002034620000D80100206A
:1043E00073B5184B18481E78184B0A2101226C46E9
:1043F0001D780734FFF7E1FB0122AF20131C211CBD
:10440000FFF793FC22780220012A19D1104B1B7868
:10441000834208D0032B0DD0101C012B10D100209B
:10442000011C1F2203E0AD1BB102EAB2301CFFF7F2
:10443000FFFE05E01F22521BA902D2B2281CF6E79C
:1044400076BDC046716200002A6200007062000002
:104450001003002070B5051CFEF740FEFEF7E8FDD6
:10446000FEF798FE281CFEF77BFEFEF711FEFEF716
:1044700021FE1B4CFEF7F2FD002803D0013C002C6E
:10448000F8D119E0FEF79AFEFEF728FE144CFEF76D
:10449000E5FD002803D1013C002CF8D10CE0FEF72B
:1044A000A3FE061CFEF706FE0D4CFEF7D7FD002806
:1044B00004D0013C002CF8D101240FE0012D04D1DF
:1044C000281CFEF74DFEFEF765FEFEF707FEFA20FC
:1044D000C000F4B2FFF798FAFEF700FE60B270BDBC
:1044E000FFFF0F0008B50020FFF7B4FF08BDF0B5CF
:1044F00087B0041C0120FFF7ADFF0390C820FFF731
:1045000083FAE1B20420FFF7A1FB6420FFF77CFAF5
:10451000601E042800D9FAE101F054FD05003301C2
:1045200085013601B801C820FFF76EFA0122131C7D
:10453000BF493120FFF7F9FBC820FFF765FABD4CF2
:104540000122131C211C3720FFF7EFFBBA4B227806
:104550001978914201D0FF221A70C820FFF754FA4F
:10456000B64C0122131C211C3820FFF7DEFBB44B94
:1045700022781978914201D0FF221A70C820FFF7E3
:1045800043FAB04C0122131C211C3920FFF7CDFB4C
:10459000AD4B22781979914203D0AC49FF220A71C0
:1045A0001A71AB4B1B68980403D5AA4BAA481B6829
:1045B0009847AA4BFB255D708023DB051D71291CE4
:1045C0000220FFF743FB6420FFF71EFA01230021BE
:1045D0005B420191029300E0029403200121FFF766
:1045E00035FB6420FFF710FAFEF738FD0028FBD1F9
:1045F000071CFEF75FFD9A4A9A4B9B4C1A60236892
:104600000422134323602368022293432360236818
:104610000122964E1343236091483760944F3860CF
:10462000FEF71CFD0028FBD033688D490122CB1A10
:104630003B602368934323603F68FEF74FFDFEF71E
:104640000DFD0028FBD1864A864B1A6023680422A0
:1046500013432360236802229343236023680122CB
:10466000134323603060824B7D487C4A1860117888
:104670008048414390787A4A0130C140511A19600C
:104680007A4801681A689142FAD22368012293435A
:104690002360FEF70FFDFEF7E1FC0028FBD0FEF7DC
:1046A0001DFD6420FFF7B0F904A904220123342082
:1046B000FFF73BFB704A049B1168684AFE1A527868
:1046C000CB80634B0A801B684D808F800E819A04DB
:1046D00005D56A4B05201C6804220123A047F31767
:1046E0000298F4185C40844203D20199002923D037
:1046F00028E0019A594C002A07DA637880220133B6
:10470000DBB2D2056370137108E00135EDB202200F
:10471000291CFFF79BFA6420FFF776F9564B627865
:104720001B68684608211A80085A012252425D809F
:104730009A80DA801881EAE0049B9F4205DC01211F
:10474000019111E0019A01320ED1444A5378013BA4
:10475000DBB25370002B00D1D9E08022D205137157
:1047600001235B42019337E7013DEDB2002D00D1FB
:10477000CDE00220291CFFF769FA6420FFF744F915
:104780002AE71D2002214BE00121B020FFF75EFA4D
:10479000FEF714FD2C498B1DDB7F4A7F5A43384BB3
:1047A0005201D25C00231D1C32E0274F26480637F9
:1047B000F97F447F063F4C431FE0314861012818D0
:1047C000465CB24201D10133DBB2FF2B01D0B242D1
:1047D00012D005A8B121017042708370032101221B
:1047E000FFF7EBF9C8204000FFF70EF9FEF7FCFCDD
:1047F0000028FBD0321C01230134B91D787FC97F0A
:104800004143381C2930007809188C42D5DB01352A
:104810001C48C17F8D42C8DBFEF7BCFCB3200121E0
:10482000FFF714FA73E0184BC0201978F8E7C04678
:10483000780800201403002026000020980D002096
:10484000AC010020001A0020A0170020AC020020BC
:10485000180000208C0000203B6200001410002093
:10486000FFFFFF0014E000E010E000E018E000E0CF
:10487000D40100201027000020000020D8010020D3
:104880001B100020A11700203D010020012008215D
:10489000FFF7DCF92349244B04201960234B244CF7
:1048A0001A68244E02431A601A68022082431A6072
:1048B0001A680120024320481A60002202601F4A41
:1048C000116025786E43A578341C0135EC40091B36
:1048D0001160046811688C42FBD21A680124A2435B
:1048E0001A60FFF77DFD164B164D98712B68234219
:1048F00003D0154B15481B6898472B6801221342BB
:1049000005D0134B101C1C6812490023A04700203F
:10491000FEF726FC1420FFF777F8FEF74FFC03980C
:1049200007B0F0BDFFFFFF0014E000E010E000E082
:104930001410002050C3000018E000E0D401002053
:104940002D010020180000208C0000204262000091
:10495000D801002033010020F0B587B0041CFEF719
:1049600083FCFEF7D7FCFEF745FDFEF757FCFEF78C
:10497000E7FC0028FBD1FEF753FD0290FEF760FC38
:10498000FEF7DEFC0028FBD0FEF720FD201CFEF722
:1049900003FDFEF769FCFEF7D3FC0028FBD1FEF710
:1049A00029FDFEF74DFCFEF7CBFC0028FBD0FEF7FF
:1049B0005BFC029A012A00D0E8E0764B764A19683F
:1049C00018688904890E090202400A431A601968AE
:1049D0008022D20510691161186840214006400EFE
:1049E000084319687F24A143014319601B681169BA
:1049F00013610298FEF7E9F9FEF70CFF002301931B
:104A00001F1C0393AEE0654B1A78002A73D0002276
:104A10001A708023DB05196C8022D2010A431A64C4
:104A20005F4A6049106801401160126899689A6095
:104A3000FEF706FCFEF784FC0028FBD15A4A5B4EC9
:104A40005B4C3260236804221343236023680222F4
:104A5000934323602368012213432360554D564B33
:104A6000514A28601A60554A554811784143907858
:104A70004D4A0130C140511A19602A1C106819684A
:104A80008842FBD22368012293432360FEF7ECFBAC
:104A9000FEF756FC0028FBD0FEF7D2FB424B042267
:104AA00033602368444E13432360236802229343F8
:104AB00023602368012213433B4A236000232B60B9
:104AC0003260FEF73DFC0028FBD12B68364AD31A32
:104AD000336023680122934323603268394B1A60A4
:104AE000FEF7C2FBFEF72CFC0028FBD00120FEF7EE
:104AF0006CF9FEF78FFE294CE378002B32D00020B2
:104B0000FEF74AFC0023E370211C072204A801F0F1
:104B100013FB2D4A6B46501C597DC57F039C901D8D
:104B20001E7DC07F131C527F293361181B785043B0
:104B30008C4611E0019AD1188C4203DB01371A1C14
:104B40007A430192AF4209DA019A2118891A490180
:104B50001E4AC9198E5401346445EBDB0120FEF76F
:104B60001BFC0394FEF75CFC012800D14BE780237B
:104B7000DB05196C8022D2010A431A64084A0949EC
:104B8000106801401160126899689A60029807B035
:104B9000F0BDC046CC010020FF80FFFF2D010020AA
:104BA000C8010020FFFEFFFFFFFFFF0014E000E050
:104BB00010E000E018E000E0D40100201410002014
:104BC000102700009C0D0020A01700201B100020C3
:104BD00000B5FEE700B5FEE700B5FEE700B5FEE76D
:104BE00000B5FEE700B5FEE700B5FEE700B5FEE75D
:104BF00000B5FEE700B5FEE700B5FEE700B5FEE74D
:104C000000B5FEE700B5FEE700B5FEE700B5FEE73C
:104C100008B58023DB05FF215A6859600022996896
:104C20009A60D968DA601A69FC2292011A610D490A
:104C30000D4A0E4B01E001CA01C38B42FBD30C4B62
:104C40000C49002200E004C38B42FCD3FEF7B4F809
:104C5000094B002200E004C38342FCD3FCF7D0F8E8
:104C600008BDC04628000020886200000000002027
:104C700028000020441A0020481A0020704770477E
:104C8000704700B50F4BDA7C0F4B012A02D0082A7F
:104C900012D108E00D4A1A600D4A5A600D4A9A6016
:104CA0000D4ADA600DE00D4A1A600D4A5A600D4A4D
:104CB0009A600D4ADA6004E00C4A1A605A609A6001
:104CC000DA6000BDA01700207C000020E951000040
:104CD000A9520000D9520000F9530000794F00009A
:104CE000854F0000AD4F0000F94F00006D4C0000F3
:104CF00000B5084B084AD97C084B012904D1084962
:104D00001160084A1A6103E007491160074A1A61F5
:104D100000BDC046A0170020D80100207C00002064
:104D200011510000AD5100006F4C0000714C0000AB
:104D3000014B58697047C0467C000020024B5A69FD
:104D4000101A58617047C0467C000020014B0022B9
:104D50005A6170477C000020024B5A6908325A6140
:104D60007047C0467C000020014B188B7047C0463E
:104D70007C000020014B80B2188370477C0000202B
:104D800000B50023C25C0133002AFBD1013BD8B23D
:104D900000BD70B5041C0D1C161CFEF709FD201C7F
:104DA000403810286CD801F003F9090D11171B3297
:104DB000364A506B6B6B6B6B6B5D6400314B0E2234
:104DC0001A705DE02F4B0F221A7059E02E492F4BBD
:104DD0002F4AFF2E13D108E02A4B10221A704FE001
:104DE00029492A4B2B4AFF2E09D12B48AD0101300E
:104DF000C07F52194000C0B208701A6040E06D01D7
:104E0000761976000220921908701A6038E01D4B5E
:104E100011221A7034E01C491C4B204AFF2E07D186
:104E20001D486D010130C07F521908701A6027E0DB
:104E30006D0176190120921908701A6020E0114B5B
:104E400012221A70FEF78AFC1AE00F4B02226D0143
:104E50001A7076190E4B7600F6180C4B1E60FEF792
:104E60007DFC0DE0074B00221A700D4B01221A70D9
:104E700006E00C4B0120D874074BD87401F0C8FA37
:104E800070BDC0463C010020E1010020E40100208B
:104E90007A0800209C120020A01700201B10002080
:104EA00025000020AC02002010B52E4C2E4B2160B6
:104EB0001860501E062853D801F07AF8040B112010
:104EC00017314200294B0E221A70294B01221A7009
:104ED00046E0274A022010701A68236839E0244A05
:104EE000022010701A68236822E0FEF761FC1F4B55
:104EF00000221A701F4B01221A7031E01B4A062152
:104F000011701B4A022111701A68164B52011B685E
:104F1000D218194B5200D218184B1A6020E0134ACD
:104F200006211170124A022111701A680D4B1B687C
:104F30005201D218124B5200D218104B1A600FE0D7
:104F40000A4A062111700A4A022111701A68054B9B
:104F50001B685201D2180B4B5200D218074B1A6033
:104F600010BDC04638010020340100203C01002063
:104F7000F00100202500002016030020DC010020A5
:104F80009C1200207A08002008B5FEF7E7FBFEF728
:104F90000FFC08BD08B5FFF7E7FE602806D1044BFB
:104FA0000B221A70034B1A78034B1A7008BDC046C7
:104FB0003C0100200C0000501003002008B5FFF752
:104FC000D3FE6138032813D80A4B00F0F1FF060A1C
:104FD0000E02094A12781A700AE0084A12781A700A
:104FE00006E0074A12781A7002E0064A92791A70AF
:104FF00008BDC0460C000050260000207162000071
:10500000706200002D0100207047C04610B5041CDE
:105010001C2826D00DD803284AD004D8012831D026
:1050200002286BD13DE0052846D04BD31B2865D123
:105030000FE0B12858D006D85F2847D0B0284BD011
:105040001D285BD11AE0B32856D050D3C02855D1C3
:105050000EE02B4B01201A688840011C1143196097
:105060004CE0274B01201A68884082431A6045E0D3
:10507000244B0A221970244B1A703FE0224BC9B20C
:1050800019703BE0214BD974214BD97400F0C8FE54
:10509000204B1B689847201C01F0BAF9FEF7BAFBB9
:1050A0002CE01D4B59705A788023DB051A7125E0DE
:1050B000194B01221A7021E0134B0B221A70174B67
:1050C00019701BE0144BC9B2997017E0002915D074
:1050D0000D4B0C221A7011E000290FD0FEF776F963
:1050E0000120FEF759F909E00B4B197106E00A4B54
:1050F00001225971DA7001E0FEF77CF910BDC0465B
:10510000180000203D0100203C010020AC020020DE
:10511000A0170020900100202D0100201003002086
:10512000F7B5061C141C002B07D0042A0FD8214BFE
:105130009A5C053300921F5D10E0042A0BD81D4BCA
:105140001A1C0A32125D0F3300921F5D06E00F2316
:105150000027009302E00F221F1C0092032C21D095
:10516000002C21D021E03C20211C00F083FF86424E
:1051700005DD6B461B78C0B22B70687002E02F70A3
:10518000301C6E70361A6043019A00236A60AB606F
:105190001218F6B20192FEF7E1FAFEF735FB00288D
:1051A000FBD104E0022400E00124034D0191002E14
:1051B000D9D1F7BD466200009C00002038B50D4CE7
:1051C0000B232370051CFFF7DBFD6070637807225B
:1051D00002331340934203D16378013BDBB2637027
:1051E00000236560A360FEF7B9FAFEF70DFB002807
:1051F000FBD138BD9C000020F8B5FEF705FB002868
:1052000050D1294B88331A68002A03DC274BDB6D09
:10521000002B47DD264903230B70264B46331B78B2
:105220001D1C9A4200DAD3B200224B701E48131C98
:105230001F4929E0013303E05E0036180024B4461C
:1052400066460234A7193A26BF5F002FF2D0AB4260
:105250001CDA5C00045B8E18347324B2DF00241265
:10526000561CE419E4B28E1934731C1C0C3464000F
:105270000419E488961C8E193473D61C24B22412A7
:105280008E19347304320133AB42D5DB084B1A1C40
:105290000C325A6000229A60FEF760FAFEF7B4FA08
:1052A0000028FBD1F8BDC0460418002018080020D3
:1052B0009C000020A017002070B5A023DB059D688E
:1052C000FFF752FD2D012D0F061C002407E0054AB3
:1052D0003019A31880B21978FFF798FE0134AC4258
:1052E000F5DB70BD0C00005070B5FFF73DFD3728B1
:1052F00052D00AD831284AD002D800280DD05AE01E
:10530000342839D0352856D13BE039284ED048D3FF
:1053100086280CD0C0284ED104E0314B9A7C314B0A
:105320001A705BE0304B1A782E4B1A7056E0FFF77C
:10533000FFFC0024A04210D12C4B2A4A197811708E
:1053400059782B4A11705B681A182A4C1178021987
:10535000013011700628F7D140E0244D6E68FFF748
:10536000E7FC0019023836181E49327863180134F8
:105370001A70082CF2D131E01F4B1A68194B1A60D1
:105380002CE08023DB051A79164B1A7026E0144BAB
:105390001A78144B1A7021E0184B1A78114B1A70B6
:1053A0001CE0174B1A780F4B1A7017E00C4B1A7948
:1053B0000C4B1A7012E0903883B2132B0ED8114B9D
:1053C0004001C5180024FFF7B3FC0019281805494F
:1053D0000278631801341A70082CF4D170BDC046ED
:1053E000A01700200C0000503D0100209C00002070
:1053F0000D0000500E0000509C0D002026000020E3
:10540000AC0100201B10002008B5FFF7ADFC86287A
:105410000BD1064B9A68012A02DC9A6801329A6025
:105420009B68022B01D1FEF7C3F908BD9C00002048
:10543000034B18685B68C01A434258417047C04626
:10544000D000002010B5041C0249062200F074FEB2
:10545000201C10BDF101002000B5044B58681B68EA
:105460004230C01A412800DD423800BDD000002083
:10547000014B18687047C04614000020014B1868A3
:105480007047C046D0000020014B58687047C046A6
:10549000D0000020014B18607047C046D0000020AB
:1054A000014B58607047C046D000002010B50A4C30
:1054B00006222168094B51431B680948591800F01E
:1054C0003BFE2368013323602368412B02DD236800
:1054D000423B236010BDC046D000002014000020D5
:1054E000F101002008B5064B06485A681A60196891
:1054F00006225143044B1B68591800F01DFE08BDDD
:10550000D0000020F10100201400002013B50B4C46
:105510000090606806225043094B01911B68694660
:10552000181800F009FE6368013363606368412B5B
:1055300002DD6368423B636013BDC046D0000020BB
:105540001400002007B506235A4301910449009036
:105550000868694680181A1C00F0EEFD07BDC046B9
:105560001400002070B5041CFFF762FF00281BD157
:105570000F4B062118685E680E4BC0B2F6B21D686C
:105580000F22013400E0181CB0420DD00B1C434325
:10559000EB181B781340A34207D0431CDBB2413801
:1055A000C0B2412BEFD9EFE7034800B270BDC0464F
:1055B000D000002014000020FFFF0000F7B51F4AB4
:1055C0001F4C131C403319781E4B4808404218608A
:1055D0004800411889105960111C37310978196148
:1055E000931CDB7F0132D17F013B58014E1E164ACE
:1055F0004118041915484900801A89180190B446C9
:1056000018E0951CBE017619114D7600755B019E60
:105610000D5276182D0135520025A5540096013AF9
:1056200002E0624600205F1C0238561CE9D1013BB3
:105630004039203C5A1CF4D1F7BDC046A0170020C9
:105640001B100020700E00209C1200207A08002001
:1056500000400040F0B5AF4CAF4AE37C12689FB009
:105660000F92AE4E012B00D1BFE101240E9433689E
:10567000980700D5B4E1A74C2123E35C002B1CD094
:10568000A74F002505E0A34C2123E35C0135AB4285
:1056900013DD336802201842F5D09E4CA14AE9017F
:1056A0002023E05C89183C6800230222A047994C23
:1056B0002123E35C0135AB42EBDC9B4B9B4C19682F
:1056C0009B4B01311A68890102328918994A0023DB
:1056D000E260994AA360E361236249008D4C8A5AD3
:1056E0006221615E954C5143954A0912FF2089B2AF
:1056F0001180A360E060236060600022914CE0189C
:10570000914C0280E11802330A80402BF6D1814C83
:105710002022A25C501E049000D23FE1E15C2122D5
:105720003623A25CE35C013A0B93C9083823E056A8
:105730001B920C913723E35C80B21A93247C834B39
:1057400010947A4CDB68E46908930D94774C246AD2
:105750001594764CA4680694744C64691694734C42
:10576000A4691794714CE4680794744CA46811946C
:10577000724C1C90E4681294704C246813946F4C23
:10578000646814940B9C644218944C42199400244D
:105790000A9454011D941B9C013400D1E0E01D9C2F
:1057A00004986B4F23186B4C5A00141901946A4CDF
:1057B00002301C19059003941CA8684C0021405E1F
:1057C0001B190093D7191B9E099073E0189CA242E5
:1057D00000DA88E0009C22781A9C51B2A14202D0E3
:1057E000009C01322270019C2588109C2D09ED1A25
:1057F000ADB2002C05D0039C2DB223785D43AD11D2
:10580000ADB20C982CB2844271DD0D9909190D913D
:105810000698844203DD0499169617910694079A18
:10582000A24200DD0794089B9C4206DD191C201C47
:1058300000F020FC0A9909180A91002C5EDBA310E5
:105840001F2B00DD1F233F485B00C25A0132C252AA
:105850000E9A002A05D02BB2DB43DB171D40ADB2F8
:105860002CB2099B9C4211DB119CB44200DA1196C8
:10587000129CB44200DD1296139C0498844200DA14
:105880001390049C1498844200DA1494029C0598A6
:1058900029492318019C5B00403CADB25A5A01943F
:1058A0005D52039C403F203C0394009C203C0094AC
:1058B000013E55D3059C731C9B0102931E481B1986
:1058C0005B00195A0F9C8BB23A88002C03D00BB2A4
:1058D0009B185B109BB29BB2D21A0B9C12B23B80FE
:1058E000A24200DC72E7009C002020707BE7199A3E
:1058F00094428DDA159B1B1B159389E76242921027
:105900001F2A00DD1F2210485200835A01338352A0
:105910009EE7C046A01700207C0D00201800002044
:10592000D801002084400040340100200401002000
:1059300038010020FFFFFF7F00400040D418002006
:10594000E4180020921800202C0E0020700E002079
:105950009C1200207A080020187700001B100020FD
:10596000049C013C049400D315E723480D9CC461BA
:10597000159C0462069C8460169C4461179C84619B
:10598000079CC4601D48119C8460129CC460139CD9
:105990000460149C44600A9C032C1DDC184E337870
:1059A000002B15D0174C2023E05C013810D32123A5
:1059B000E45C154F013C65010021621C06D02A18E9
:1059C000D219231C1170203A013BFBD20138F4D2CA
:1059D000002333701FB0F0BD094B01221A70F9E7A4
:1059E0000A4B0B481B68984745E63368082213406A
:1059F0005C425C410E943AE604010020D418002079
:105A0000D8000020A01700201B1000208C000020D0
:105A100060620000F7B5234BDA7C01239A4205D17E
:105A2000214B1A68082313405A425341002B37D1A7
:105A30001D4B1B681A0703D51C4B1D481B68984754
:105A4000002529E0184B1B681C070AD5154B194E79
:105A50000133D87F184BE9011C68891903220123FF
:105A6000A047104B01350133DA7FAF0101320197B6
:105A700010E0019B1148991849000B5A8027DC0F50
:105A800000263F019F427441644223409BB2445A26
:105A9000013A4352012AECD1094EF37F9D42D1DBFA
:105AA000F7BDC046A0170020180000208C00002081
:105AB0005A62000084400040D801002000400040AD
:105AC000A2170020F0B540492123CB5C83B05A1EB9
:105AD000019200D275E001993C4A3D4B4F01009282
