:10000000841F0020CD4B00008D4B0000914B000061
:10001000954B0000994B00009D4B00000000000034
:10002000000000000000000000000000A14B0000E4
:10003000A54B000000000000A94B0000AD4B0000E4
:10004000452D00009D2D0000312D0000492E00009F
:100050005D2E0000C54B0000C94B0000C94B0000DD
:10006000C94B0000C94B0000C94B0000C94B000040
:10007000C94B0000C94B0000C94B0000C94B000030
:10008000C94B0000C94B0000C94B0000C94B000020
:10009000C94B0000C94B0000C94B0000C94B000010
:1000A000C94B0000C94B0000C94B0000C94B000000
:1000B000C94B0000C94B0000C94B0000C94B0000F0
:1000C000F8B5134B1B68DA0703D5124B12481B68AF
:1000D0009847AF26114F7600351C142E00DD1425ED
:1000E00000230F4A02E0F95CD1540133AB42FADB42
:1000F000074B01221B68134205D00A4BE8B21C686B
:1001000007490023A047761B7F19002EE4D1F8BDD4
:100110001800002088000020BC600000581E00204D
:10012000061E00209401002038B5274B27490633CE
:10013000DA7F274B002A1FD000221A600023CB56FB
:10014000012B40D0234C2368DA0703D5224B2348E8
:100150001B68984722680123214D1A4205D0214A85
:10016000181C1468291C0422A047286803F074FB9B
:10017000164B01221A7026E0194A186892689042BC
:1001800001DA01301860097849B200291BD01B68D8
:10019000934218DB0F4C2368DA0703D50E4B124845
:1001A0001B689847226801231A4205D00D4A181C83
:1001B00014680E490422A047094B586803F04CFB11
:1001C000024B00221A7038BD000100200000002000
:1001D000280000201800002088000020C2600000D5
:1001E0004C02002094010020C96000005002002051
:1001F00038B503F071FB1D4C637C002B34D0802399
:10020000DB05196C1A4A0A401A6404F037F8002812
:1002100003D0184B00201B689847E37C012B1CD1AE
:10022000154C80252368AD012B4216D023682B4244
:1002300003D0124B12481B68984723682B4207D003
:10024000104B05201968104B04221C680123A0479D
:10025000094B0E4A19680A401A608023DB05196CA5
:10026000802252010A431A6438BDC046A81B0020F0
:10027000FFEFFFFF940000201800002088000020FE
:10028000CE6000002000002094010020FFDFFFFF6F
:1002900070B58024E405051C0E1C03F00FFB226CD6
:1002A000094B281C13402364311C03F0ECFF002889
:1002B00003D0064B00201B689847226C80235B010B
:1002C0001343236470BDC046FFEFFFFF940000207E
:1002D00038B5094B041C5B7C0D1C002B0BD003F0C4
:1002E0007FFA8023DB059A6C01210A439A64201C63
:1002F000291CFFF7CDFF38BDA81B002010B503F067
:10030000DDFA154B1A78154B5B7C002A10D0002BB8
:1003100020D08024E405226C114B1340236403F0A9
:10032000ADFF002811D00F4B00201B6898470CE050
:10033000002B0FD08024E405226C094B00201340D1
:100340002364094B185604F0D5F9226C80235B0115
:100350001343236410BDC0461C000020A81B0020CE
:10036000FFEFFFFF940000201D000020F0B585B0D6
:1003700003F036FA8023DB059A6C01210A439A6464
:10038000FFF7BCFF244B1B78002B41D0234B244D9F
:100390009A1C0133D47FD87F2A1C002119E0019ECA
:1003A0009A1CB2181F4F5200D25B6E4603925A003D
:1003B00002920C27BA5B029F6646F253013304E0B7
:1003C00001318E010023944601968342E7DB6246A9
:1003D0005032A142F4DB144B1B68DE0703D5134BEC
:1003E00013481B68984700260C4F0DE00E4B1B6806
:1003F000DA0707D57B1CD87F0E4B291C1C6802220C
:100400000023A047013650350B4AD37F9E42EDDBD7
:1004100005B00120F0BDC0461C000020A81B002034
:10042000E812002000400040180000208800002052
:10043000D660000094010020AA1B0020F0B587B010
:10044000FFF794FF384B39499A1CD57F0133DC7F85
:1004500028226B1E5A431219520052181E1C0021EA
:1004600004940EE0D45AD71852373C8001E00023A0
:10047000181C049C0130271A023B0137F2D10131CC
:10048000503A731A0133F2D1274B00220133DC7F3B
:1004900028236B431B195B00161C0593AC463CE0FC
:1004A00028256B432149E3185B005B1800212FE0EE
:1004B000059D1F4F1888EF19BF184D007D19523D3B
:1004C00004951D1C503D2F880139C71BFD177F194E
:1004D0006F4003979F1E01973F88C71BFD177F1929
:1004E0006F40039DEF1903975F885033C71BFD17BB
:1004F0007F196F401B88039DC31A0297EF1903975A
:10050000DF17DB1903987B40C718049B1F80019BF2
:1005100008190028CCD10136503A6546AB1BBFD133
:1005200007B00120F0BDC046A81B0020E812002043
:1005300026030020F0B585B0FFF718FF03F0E4FCB8
:1005400003F04EF98023DB059A6C012422439A6460
:10055000FFF7D4FE274B1B78002B46D0264B1C7090
:10056000264B1B68234203D0254B26481B6898471F
:10057000254D0026254F24E00299981C081824498F
:100580004000405A03995A0001904819805A019935
:100590000133401A81B26143091289B24807C00F82
:1005A0000918A9526345E7DB144B60461B68DA075C
:1005B00005D5184B291C1C6802220023A0470136D0
:1005C00050351549CB7F9E420FDA7B1CD87F3B1CF0
:1005D000603300229C5E721C920102920A490F4A0B
:1005E0000023521A03928446DCE703F0A9FC05B00D
:1005F0000120F0BD1C000020980100201800002000
:1006000088000020DD60000026030020A81B0020D9
:100610000040004094010020AA1B0020E8120020A6
:10062000F0B585B0FFF7A2FE5E4B1B78002B12D011
:100630005D4B5E499A1C0133DC7F0023D57F181C7B
:1006400007E08854013200E00022A242F9DB0133C6
:100650002831AB42F8DB03F0C3F88023DB059A6C4A
:1006600001210A439A64FFF749FE4F4B00209A1C70
:100670000133D57FDC7F4E4A17E0019E8F1CF719AE
:100680004C4E7F00BE5BD75A0096BC46371C674471
:100690007F10D7520131023304E00130002386017C
:1006A000191C0196A142E8DB5032A842F5DB642414
:1006B00003F096F88023DB059A6C01210A439A64C3
:1006C000FFF71CFE374B1B780093002B2ED03A4FC0
:1006D000354BFF7F01330197DB7F34480293344968
:1006E0000025A4461EE0039F9C1C3C19314F64006A
:1006F0008E5AE45B34196408361BF717F6197E40EE
:10070000C756B74200DAC6548C520133023204E0B5
:1007100001350022AC01131C0394029EB342E2DBBC
:1007200050312830019FBD42F2DB6446013C002C71
:10073000BED11D4B1D4D9A1C0133D07FDE7F2A1C7C
:100740000BE0D156022901DD4910D154013300E0FC
:100750000023B342F5DB013428328442F8DB009AEF
:10076000002A1CD0154B1B68DC0703D5144B154819
:100770001B68984700260C4F0DE0104B01221B68A8
:10078000134206D0BB18D87F0F4B291C1C680023CE
:10079000A04701362835084CE37F9E42EDDB05B0CB
:1007A0000120F0BD1C000020A81B0020870E0020A7
:1007B000E812002000400040AA1B00201800002082
:1007C00088000020E66000009401002008B5031CAA
:1007D0000E3B0020032B0FD8181C05F06DFB020503
:1007E000080BFFF7A7FE07E0FFF7C0FD04E0FFF7E7
:1007F00017FF01E0FFF722FE08BD10B50C4B0122E8
:1008000030331978002300E0231C5C1C101CE4B278
:1008100098408142F8DA074A072113718022D205F5
:100820000B401902106C044B03400B43136410BDC2
:10083000A81B002028000020FFF8FFFF064B07221E
:10084000313319788023DB05186C1140034A090203
:1008500002400A431A647047A81B0020FFF8FFFFFC
:1008600000B5002804D028235943024B8918C856E4
:1008700000BDC046A870000000B5002805D02823A0
:100880005943094B8918C8560CE0084B1B78002BBC
:1008900006D1074B072002229B5EC01A400001E0F0
:1008A0000E20404200BDC046A87000001C00002081
:1008B000AC010020F0B5CF4B8DB01B780290002B1F
:1008C00013D0CD4BCD499A1C0133DC7F0023D57F5B
:1008D000181C08E056008853013200E00022A242B2
:1008E000F8DB01335031AB42F8DB029C0423002CCF
:1008F00001D1C34B9B785BB205930B9323E1C14BB2
:1009000000241B7803940093BF4B009D1B78009F2D
:10091000EB180693BD4B1D78BD4B6E1C1B780996DA
:10092000EB187E00049301363BE0731E5B0100244C
:10093000089313E0B7482B181B570298DA0FD31807
:100940005B103A1C0793FFF78BFF0199089A401838
:100950000799C0B25318B04A02349854049B6119E5
:100960009942E7DB7001099C089013E0A9490298BD
:100970000B57211CDA0FD3185B103A1C0793FFF7B3
:100980006FFF019A08998018079AC0B28B18A24984
:1009900002345854049A9442E8DB039C0236013432
:1009A0000394039C00982718069CA742BDDB9B4B31
:1009B00000251B7803955E00009301363EE0934CC2
:1009C000731E5B0125780693002413E091482B18D1
:1009D0001B570298DA0FD3185B103A1C0493FFF7E9
:1009E0004BFF0199069A40180499C0B253188A4ADD
:1009F00002349854864861190378EB18049399429D
:100A0000E4DB6C1C7501069511E0824D211C2B570F
:100A10000298DD0F3A1CED18FFF72EFF0199069A98
:100A20006D1040187C4BC0B25519E8540234049D37
:100A3000AC42EADB039F023601370397039C009D1B
:100A40006719774C2378EB189F42B8DB02F0C8FE99
:100A50008023DB059A6C01252A439A64FFF74EFC3C
:100A6000644B1B78002B6BD06E4B1B689E0706D522
:100A70006D4B281C1C680BA92A1C2B1CA0470025A9
:100A80000FE0684B02221B68134209D05A4B674F94
:100A90000133D87F644BE9011C68C9190023A047C2
:100AA0000135634CE07F8542EBDB534B2822013359
:100AB000D97F0B9B5F4CDBB20093431E5A434D1E04
:100AC0005D4B511812194D4C4900E41A0195C91893
:100AD000049433E06646991CB5016D1857496D00C2
:100AE0006F5A03993DB20E19023E3188A94207DAC6
:100AF0002518023D29806D462D783780D5540CE0AD
:100B0000029E002E09D0011902390E88AE4202DD84
:100B1000D55C0135D55400270F80013B023C06E02F
:100B2000049D019B6D18844600240395081C5E1CDF
:100B3000D0D1011C604601385039283A0028EFD145
:100B40000B9B013B0B93059C0B9F634201979F42BC
:100B500000DBD4E6274B1B78002B00D1BEE0029DC2
:100B6000254B002D1ED09A1CD07F282201384243ED
:100B70000133DC7F324D2F4B1219D2180021ED1AB0
:100B80000CE0AE18F75CD65CBE19D65400E000232A
:100B9000013B1E190136F4D10131283A431A0133C1
:100BA000F5D17DE0191C0533DE7F154B254A022067
:100BB0001B5E0720C31A5B0012782931DBB20F7865
:100BC000214901932823534309781A4D029C4D195A
:100BD000EB18D7198E19201C009394463CE0009A1C
:100BE0001219D55C0492019A5219049D0392EA5499
:100BF00001332CE01C000020A81B0020E81200207C
:100C0000AC010020C202002058020020D90C0020B4
:100C1000B50100208C70000000100040B4010020DD
:100C2000D80C0020180000209401002084400040CF
:100C3000AA1B0020870E0020260300200040004051
:100C4000A8700000350C00204A02002000235A182A
:100C5000B242C4DB0130283465464319BB42F5DBA0
:100C6000874B00211C78874B9A1DD57F864A2833F5
:100C70001078282262431E78844B12186519861951
:100C8000D2180AE0D75C0E3FD754013300E00023AE
:100C90001F18B742F6DB013128320B19AB42F6DBE5
:100CA0007B4B1B68DE0703D57A4B7B481B68984754
:100CB000764D0026734F0DE0754B1A6801231A42DA
:100CC00006D0FA18D07F754A291C14681A1CA04750
:100CD00001362835724CE37F9E42EDDB694B5B7C2D
:100CE000002B24D08024E405266C226C7F239A43B9
:100CF0001E406C4B22641B780125002B09D002F0AA
:100D00006FFDA36C04201D43A5640021FFF7C0FA0A
:100D100006E002F065FDA36C1D43A564FFF7EEFA43
:100D20008023DB051A6C7F218A4316431E640299D7
:100D3000544B002902D01A1C353211780133DB7F65
:100D400028200193584B514E1A78584B50431B782A
:100D5000551CD318301800930395002301250490E7
:100D60003FE05F00059700209C4613E0504C1319AC
:100D70001B56DF0FFF1828237C104343049F0230CB
:100D80003E1C6644059FF35C7E0137195B18494E93
:100D9000DBB2BB55009C8318A342E7DB039F2826E8
:100DA0007E43634639489E196C0186190594381CA8
:100DB000079310E03E4F3C563778E30F9C4664445F
:100DC000BC46059F64108C443C196346394FDBB226
:100DD000E35502305036009B9842EBDB079B02350F
:100DE0000133019CA342BCDB029D002D45D0254A66
:100DF000131C48331B785BB2012B3ED12A4B49B2FE
:100E00001B78002B15D12A4A49101278C9B252B268
:100E1000D00F821852101D4C264806E0E65C9D015A
:100E20008E19F6B2AD182E540133019EB342F5DB94
:100E300023E00232D07F204B01384910C9B2034071
:100E400004D50222013B5242134301332825454376
:100E50000E4C00222D190DE0154CAF5C2456CF1915
:100E6000E60F341964105E013419124EFFB2A75513
:100E700001320233019FBA42EEDB0DB0F0BDC04635
:100E8000340C0020A81B002048020020870E002000
:100E90001800002088000020F0600000940100206D
:100EA000AA1B00201C000020D90C0020B501002046
:100EB0008C700000001000400100008038B52D4A01
:100EC00001232D4C126800280CD01A4203D02B4B62
:100ED0002B481B689847231C323303211970333485
:100EE00001230BE01A4203D0244B26481B68984785
:100EF000231C32330221197033340323224A237016
:100F0000101C32303332017013701B4A0721131C3E
:100F1000323318781D4B08401C681D49400521409C
:100F20000143196019688024E405A068A160111CC0
:100F30003331087803211D68084016498004294090
:100F4000014319601B68A168A360D07BFFF7B2FC66
:100F500002F046FCA36C01221343A364FFF7CEF911
:100F60000D4B1B78002B01D004F0A6FA0B4B1B682D
:100F7000984738BD18000020A81B002088000020DA
:100F8000F6600000FC6000005C020020840100208C
:100F9000FFFF1FFFFFFFF3FF1C0000207401002074
:100FA000F8B502F0B9FAD24B0125187004F0FEFD35
:100FB000002005F025FACF4ECF4C6422301C211CB6
:100FC00005F03EF8CD4B1A78002A45D000221A7061
:100FD000C74B1B78934206D14822A274B274C84A08
:100FE000E574F574136004F05BFEC64B1B6898470C
:100FF000012005F005FA03F0B9FCBE4BD87BFFF7E2
:1010000059FCBB4C2378002B01D000F0FFFA02F012
:10101000E7FB8023DB059A6C2A439A64FFF76EF99D
:101020002378002B01D000F0F1FAB54B01221B68A8
:10103000134203D0B44BB5481B689847AC4B1B78A0
:10104000002B06D000F068FA04F036FA002002F017
:10105000EFFBAF4B1B689847A54B1B78002B1BD0B1
:10106000A44BDB7C012B17D1AA4AA54C1268002A9D
:1010700009D022681A4203D0A34BA7481B6898479F
:10108000FFF71EF8FEE723689A0005D5FFF718F86A
:101090002268A24B13402360A14E37787CB2122CF9
:1010A00000D914E2201C04F011FF13001202F60014
:1010B00012021202F6000901120212021202880143
:1010C0009801A301B8017101710171017101090257
:1010D000874B1B78002B62D0864BDB7C012B3AD1EF
:1010E000874C802623683605334234D02368334248
:1010F00003D0854B8B481B6898472368334206D042
:10110000894B01201C6889490222031CA0477C4EA0
:1011100033681A0106D5844B01201C6884490222D9
:10112000031CA04733681A0106D57F4B01201C68B9
:1011300080490222031CA047714E33681A0106D56C
:10114000794B01201C687C490222031CA0473268AD
:101150007A4B13403360FEF7E7FF02F06FFB784BEA
:101160001B689847664B1B68DA0413D5754A764BA3
:1011700004201A60754B1968014319601968022030
:1011800081431960196829431960714B0021196066
:10119000704B1A6002F066FB6F4B1B68984702F0B9
:1011A0001FFB534B1B78002B68D06C4C0022631D37
:1011B000DA776B4B1B68984704F0CAF9694B1B68D8
:1011C000984704F075FB00F099FA674B1B68984745
:1011D00002F014FB02F01CFB644B1B78002B01D1C6
:1011E00004F0BEFB624B1B689847631DDB7F002B3E
:1011F00003D100F0F1FA00F0CFFE0534E37F002BBD
:101200003CD15C4B80261B68984701F0A2F85A4BF2
:1012100076011B68984701F051FA01F0E3FA574B49
:101220001B689847364C2368334222D0484B4548C8
:101230001B68C01A524B9A7819780132904004F01A
:101240004FFE444B18602368334203D02E4B4D4869
:101250001B6898472A4B1B68DA0406D5324B0120DD
:101260001C683C4904220023A047384B1A68AA4353
:101270001A60454B1B68984701F078FC8023DB051A
:101280009A6C2A439A641A4B1B78002B00D11CE1FC
:10129000FEF7AEFF1BE1164B1B78002B03D002209C
:1012A000011CFFF715F80020FFF704FB052C00D008
:1012B0009BE0FFF73FF902F0D7F996E002F090FAD1
:1012C0000B4B1B78002B07D004F042F904F0F0FA26
:1012D00004F046FB04F0E0FB8023DB059A6C2A4314
:1012E0009A64FEF785FF0E4B12221A70EFE0C0469B
:1012F0001C000020A81B00205C020020250000200C
:101300001800002050010020880000200361000028
:1013100074010020581E00200A610000FFFFFFDF5B
:10132000380100201A61000094010020AC01002067
:10133000AE010020B0010020B2010020FFFFFFF746
:1013400054010020FFFFFF0014E000E010E000E087
:1013500018E000E09001002064010020000100205E
:10136000600100205C01002078010020D4000020F2
:1013700070010020580100206C0100204C01002069
:10138000800E00202261000078000020514B1B7865
:10139000002B03D0F9B20220FEF79AFF201CFFF7C2
:1013A00015FA4D4C207002F05FF94C4B12221D7063
:1013B0004B4B1C604B4B1A7089E0464B4A4C1B78D8
:1013C000002B03D021780320FEF782FF2078FFF75F
:1013D00075FD444B00221A7079E03E4B1B78002BC0
:1013E00075D005200021FEF773FF122333706EE0E5
:1013F0003E4B5B785BB20C2B69D03D4A0823D3741B
:101400003C4AD37404F04CFC3B4B1B6898470120CA
:1014100004F0F6FF02F084F959E0384A1368AB4350
:10142000136011688023DB059868996011680220B9
:1014300081431160116898689960116808208143A0
:1014400011601168986899601168042081431160E7
:101450001168986899602A4980200C68400004430C
:101460000C600C68A021C9058E688C601C68802106
:10147000490521431960146822492140116011680F
:101480009C6899601C688021490421431960C0460A
:10149000C046C046C04662B61B491C682140196060
:1014A000116808431060126899689A60BFF36F8FE3
:1014B0000C4B00221A70154B1D7008E002F090F9D9
:1014C0008023DB059A6C2A439A64FEF717FF074BCB
:1014D0005F7070E51C000020980100209901002039
:1014E0009C0100203801002039010020000000206C
:1014F0005C020020A81B0020500100208401002075
:101500008C010020FFFEFFFFFFFFFFFE25000020F3
:101510004943404340187047F0B53A4B85B05A1CD8
:10152000D17F1A1C47321278374C52B20092013ADE
:10153000504242418A1A029222609A1CD57F1A1C9C
:101540004832127852B2171C013F01927A42574139
:10155000009AEF1B6760012A02D10023238106E075
:101560004C330022985E490004F008FD2081019B65
:10157000254C012B02D10023638107E0214B4A3324
:101580000021585E690004F0F9FC60811D4B7F006A
:101590004A3300229D5E391C6B005B19181C0393B3
:1015A00004F0ECFC4043184C4000E060A800391CFB
:1015B000401904F0E3FC4043124B400020614C33DF
:1015C00000215E5E009970004B424B41029A8019E7
:1015D0005843510004F0D2FC0199039A60614842DB
:1015E00048415043391C04F0C9FC064BA0615033FC
:1015F0001B78002B02D1E561266201E0E6612562DD
:1016000005B0F0BDA81B0020100C0020F0B5254B44
:1016100087B09A1C0133DB7FD67FD91C721C023342
:10162000039305920023204A0491181C059CE51A97
:10163000EF010197BC5AB852049CAD0129194F0023
:10164000BC5A1A4CB85200272F550F550199184F04
:101650000133CF1902973988388003996F187900C0
:101660000191895A0199885212496D1800212970F7
:101670003955F71A0C4D0137D8DA00220136039B91
:10168000111CB60158002F5A2A52F0184700EC5B83
:10169000EA53064FF954013B3954012BF2D107B0FC
:1016A000F0BDC046A81B00200040004000200040C4
:1016B0000240004001200040F7B50E4B9A1CD17F3C
:1016C0000133DE7F481C013600230190019C321C4F
:1016D000E71ABF01951CAC46BC44074C0025604688
:1016E000013A0555501CF5DA0133CA1A0132EDDA18
:1016F000F7BDC046A81B00200020004000B50F4ADF
:101700000F49131C5B331B78896838324B431278BE
:101710009B11934200DA131C0A4A9BB21380802269
:10172000D2051B0590691909074B03400B439361D0
:10173000024BDA6B054B1A6000BDC046A81B0020A7
:10174000000100200C0C0020FFFF00F0B801002079
:1017500070B5013202339201D2181B4BD35C5BB2DD
:101760001F2B30D00F2B00DD0F3B98422BD0002BCE
:1017700029DD051C1C1C154A2B352B3464006D001B
:10178000551912190226945F0226AA5FA24200DDB3
:10179000221C0F4C3934247862439211914212DD9D
:1017A000834202DD021C181C131C0A4A115C00292A
:1017B00004D04CB29C4203DDDBB21355135402E05B
:1017C0009C4200DAD15470BD00200040BC010020D2
:1017D000A81B00203C010020F0B5D94E97B033681B
:1017E000580400D5C9E3D74F2123FB5C002B1AD046
:1017F000002504E02123FB5C0135AB4213DD802191
:101800003368C9010B42F5D02023F85CCE4ACF4B98
:10181000E90189181C6802220123A0472123FB5CEF
:101820000135AB42EBDCCA4FCA4B786839681C1CE7
:101830001E1C2E34383038311E3E002200251A80FE
:10184000257002600A60DA83023B013C04380439E7
:10185000B342F4D1C04A0020111C10391070013A73
:1018600000238A42FAD1BD4CBD4DA068E168013029
:101870000139BC4F22686668099007918821A060F1
:101880002B612B607B500798099B0132013EE06081
:1018900044C4834200DA04E30025B34CAC461F1C69
:1018A000151CB5420DDB781C2B1C80019A1C82187C
:1018B000115D013B49B20F2901DD614611559E4280
:1018C000F4DD079A013FBA42EBDDA84BA049A34CD7
:1018D00000201F5E9E4B096864685B682A1C0E9797
:1018E0000F910A949D4D9F4C9C4F9D489C4910938D
:1018F0008823E358ED683F68006909689A4C14959D
:1019000015970D900C911193964200DDB3E0099B61
:101910000999013302319B0189010793129138E043
:10192000119D8D4200DA11910F9D099F8600069648
:101930005F43AE191D1C55430B97089537680B9DE7
:10194000BC462F1C67443760069D109F7E191B25DF
:101950006D183768AC46089D2B317F193760654696
:10196000804E6F00F719BE887E4D9E19281878307A
:10197000BE80067849000136067069180226885F25
:10198000834202DD6F46BF8A4F800A9E013A96422B
:1019900071DC079D961CA919754F4B00095DDB5B37
:1019A00068460E9D83829BB249B2AB4205DB0D9F18
:1019B0000C980137C0180D970C90481E0E28AFD90F
:1019C000032BE2DD0029E0D10999501C8901069121
:1019D00005900918085D002140B2071C013F0490E2
:1019E0000E2F31D8BD000895099D07985D438119D8
:1019F0001F200B9508550F9D089829180D68181C75
:101A00005043AC460B9D1390AC4460460860109D5B
:101A1000089829180D680498AC46139D1B300B904C
:101A2000281C60440B9D08604E486D00AC46011CAC
:101A300061448D88C719AC469C44654678378D80D3
:101A40003878049901303870059F079DE819005DCA
:101A5000844640B2471E0E2F51D8002915D081422E
:101A60004DD0079F63460F33BE19DBB233550A9E34
:101A7000013A96428DDD099F1498013F0997B842BB
:101A800000DD10E20A9E159A3EE7079DB900089115
:101A9000A919099D5D430B951F250D55089D0F99AB
:101AA00049190D680491191C5143AC460B9D1391C3
:101AB000AC44049D61462960089D109949190D6840
:101AC0000891011CAC461B31139D0B91291C0B9DE9
:101AD00061446D00AC46089D03912960214D291C8D
:101AE00061448D88AC461F4D9C44EF19654678379C
:101AF0008D8039788C46011C604601303870059F16
:101B0000129DE819005D844640B2471E0E2F04D88E
:101B1000002900D1A8E08142A3D1069DA819005D4B
:101B2000844640B2471E0E2F5ED8002922D0814243
:101B30005AD0079863460F33DBB28619335524E732
:101B400018000020A81B00208440004094010020C1
:101B500004000020140200204B010020D81C0020AB
:101B600000010020BC010020002000400C0C0020DF
:101B700000400040079DB9000591A919099D5D43EA
:101B800008951F250D55059D0F9949190D6813914D
:101B9000191C5143AC46089D0B91AC44139D614602
:101BA0002960059D109949190D680591011CAC46E5
:101BB0001B310B9D0891291C089D61446D00AC46AA
:101BC000059D01912960C64D291C61448D88AC4654
:101BD000C34D9C44EF19654678378D8039788C4623
:101BE000011C604601303870129DA819005D8446C2
:101BF00040B2471E0E2F03D8002970D0814298D1E1
:101C0000069DD01C2F183F5DBC467FB27D1E0595FA
:101C10000E2D05D8002900D198E0B94200D020E768
:101C2000079D2F183F5DBC467FB27D1E05950E2D8A
:101C300005D8002900D1C8E0B94200D011E7129FB1
:101C40003818075D78B2451EAC460E2D00D99CE6CB
:101C5000002900D1F8E0814200D196E607980F37BD
:101C6000FFB28619375590E6079DB9000591A9196D
:101C7000099D5D4308951F250D55059D0F9949192F
:101C80000D681391191C5143AC46089D0B91AC444F
:101C9000139D61462960059D109949190D680591AC
:101CA000011CAC461B310B9D0891291C089D614409
:101CB0006D00AC46059D02912960894D291C614447
:101CC0008D88AC46864D9C44EF19654678378D80EB
:101CD00039788C46011C6046013038701DE7079D3D
:101CE000B9000591A919099D5D4308951F250D555A
:101CF0000F998C4605998C44654629681D1C5543EF
:101D00000B95089D4919654629601099051C8C465C
:101D100005991B358C446146089509680B9D491946
:101D200065462960089D6E496D00491905918D88A9
:101D30006B49AC469C44059DCF1961467837A98014
:101D40003D78011C281C0130387059E70599079D22
:101D500089000691A919099D5D4308951F250D5518
:101D60000F998C4606998C44654629681D1C55437D
:101D70000B95089D49196546296010993D1C8C46B4
:101D800006991B358C446146089509680B9D4919D5
:101D900065462960089D52496D00491906950891CC
:101DA000059D8988AC464E4D59180591AC44782163
:101DB0008C446D461421495B089DA98061460D78CD
:101DC000391C6F1C65462F702AE70599079D89000D
:101DD0000691A919099D5D4308951F250D550F9979
:101DE0008C4606998C44654629681D1C55430B9505
:101DF000089D49196546296010993D1C8C46069935
:101E00001B358C446146089509680B9D4919654648
:101E10002960089D32496D00491906950891059D74
:101E20008988AC462E4D59180591AC4478218C44D4
:101E30006D461421495B089DA98061460D78391CC7
:101E40006F1C65462F70FAE60999AF005943079D4C
:101E50000591AE191F2535551D1C55430F9E06953E
:101E6000F1190E68059D1B3076190E60109E40001A
:101E7000F1190E68069F1A4DF6190E6018492E1CAE
:101E80000818818866445B18311C783183800B7890
:101E900001330B7079E5134D099EEB680A96B34246
:101EA00010DD17B0F0BD0F4C0F4EA4680D9D0C9FB8
:101EB00011990B48149A88230A9435613760C150F0
:101EC000A242EEDC074C0A9E25686368013E099633
:101ED000AB42E0DC0A9F0137BC01069707940AE099
:101EE000BC010020D81C002000010020254C351C1E
:101EF0006368B342CFDC079EAB1C2348F3181F5C1A
:101F00006E1E7FB23A1C103A0E2AEFD81F495B00B2
:101F10005B5A0F3F0593381C191C099A331CFFF7B5
:101F200017FC6C1C381C0599099A2B1CFFF710FC38
:101F3000381C0599099A231CFFF70AFC381C0599DF
:101F40000A9A331CFFF704FC381C05990A9A231CD3
:101F5000FFF7FEFB381C0599069A331CFFF7F8FBC8
:101F6000381C0599069A2B1CFFF7F2FB381C0599C3
:101F7000069A231CFFF7ECFBB8E7054B05481B68E6
:101F8000984730E4D81C002000200040004000406A
:101F90008800002040610000F0B5CA4BCA491868AB
:101FA0005B6889B004930B1C88331B680290C74898
:101FB00001930E220023C356002B41D000E063B2F0
:101FC000C34DEC5C002CFAD10370002B38D05E1EA0
:101FD000029CB70005969500E61903976459376887
:101FE0000094BC46271C67443760039C049F2B3336
:101FF0003E19049C376865595B007F1955006D18C0
:1020000037602E1C5A36CB1802241F5F3688BC4618
:1020100037B2BC4500DA5E80059BAD8F1C335B0098
:10202000CB189E887619059D9E804C198B187834A4
:10203000783325781B78019EEB18013E23700196BA
:102040000138013AB6D2A04BA24A019F88331168E9
:102050001F601023194209D19A4B9B491E685D6885
:1020600000231C1C1A1C181C039331E012681A422E
:1020700003D0994B99481B6898470025984E22E059
:1020800070686F1C33688446964ABF01904C08E024
:10209000991C7918885C40B2205C002800D08854D4
:1020A000013B6345F4DA8B4B1B68D9060AD58E4B8E
:1020B0008E4A0133A901D87F8D4B891801221C68F3
:1020C000131CA04701358B4CE37F9D42D8DBC3E74F
:1020D0007F4F01303B56002B26D137599300F750E4
:1020E0002F59EF50039B5A275B18BC469C44029320
:1020F0002C2763461B88BF187F000193BC466B46A4
:102100009F888C4463465F80171C029B1C379B8F03
:102110007F00CF19BB80471877373F78BC468F18B0
:10212000783763463B700132039B043402330393D8
:102130000F28CDD1644C7049231C88331B686A4A30
:1021400004934D89131C05954A331B888D691EB273
:1021500001964F68AEB29B1B069702969BB2543213
:1021600012780793574B03921E68002728E001CE90
:102170000199069B48433C22A15E594303F0FEFEB1
:1021800005995E4A0818137880B22080052B15D077
:1021900000B2A84207DA039B401B58430299801102
:1021A000081820800AE0019A101AA84206DA039B58
:1021B000401B584307998011081A208001370234C8
:1021C000049A9742D3DB404C4B49231C88331B684D
:1021D000454A04930D89131C05954C331B884D69A2
:1021E0001EB201960F68AEB29B1B069702969BB279
:1021F000533212780793334B03925E681E340027E4
:1022000028E001CE0199069B48431E22A15E594356
:1022100003F0B4FE0599394A0818137880B220807B
:10222000052B15D000B2A84207DA039B401B584388
:1022300002998011081820800AE0019A101AA84219
:1022400006DA039B401B584307998011081A208027
:1022500001370234049A9742D3DB1B4C231C88338A
:102260001D68214BAC461A1C4E3217781A1C4A3294
:102270000020165E1A1C4F32127801921A1C4C3242
:102280000025515F503302911B780496039300237D
:102290001D1C39E01A193C26915F002932D000211B
:1022A000505E1E26915F002F01D0049E301A019EC1
:1022B000002E01D0029E711A039E002E20D0E15202
:1022C000D0831FE004000020BC0100204B0100204F
:1022D0003C01002018000020880000202F61000031
:1022E000D81C002000200040A81B002042200040F5
:1022F00094010020AA1B0020100C002024000020C4
:10230000E052D183013502336545C3DB09B0F0BD2E
:1023100070B50D4B002246331D78111C131C0B4C5D
:102320000AE0601878300370A01843878383861E04
:1023300058303380013103800232A942F1DB883406
:102340000023236070BDC046A81B00200C1C002089
:102350007047F0B5C44B8BB046331C780023181C73
:10236000C24A191C06E05D005519A887D5187835B2
:10237000297001330026A342F5DBBB4B883216607F
:1023800046331B78BA4D0493BA4B341C1B69029632
:102390000593B94B88331B6806936AE0B74FF3196E
:1023A0003C201B5E002B5FD02B68059F1B01DB19B7
:1023B000FF2703970193002719E0AF487B001B1804
:1023C0003C215A5E002A11D0AD4832181188188875
:1023D000DB8B401AD18B00B2591A09B2FFF798F87B
:1023E0000199884202DAFAB2039201900137069B02
:1023F0009F42E2DB6F460C20C357591C32D09B4AE8
:102400005800B11894469C4A1F1C805A1C370880FB
:10241000181C0C3040001018C0887F00D719C883E2
:102420000797B888029F8887D0187830089000787E
:10243000BC440390782084446F460C20C05D2C334C
:1024400067465B003870D21853885A310B80079961
:1024500000230898019F8B80002101345380017074
:102460002F6001E000202860029F023601370297AA
:102470000435029F0498874290DB7C4A0025131C98
:1024800088331C607C4B191C883109680891764997
:1024900046310978029505917A4909680991B1E0B8
:1024A000754BEF18BE8F0196002E19D1A6E06F482C
:1024B00073001B183C215A5E002A0FD06E4AD98B3C
:1024C000505B1A88801AFA8B00B2511A09B2FFF7D2
:1024D0001FF8099B984201DAF0B20390013602E03E
:1024E000FF260396002605988642E0DB69460C220B
:1024F0005656731C00D17CE0331C5C4A1C3304200C
:10250000085E5B00D3180190069304201B5E0199BE
:102510005948C91803930491435F019972004B43D2
:1025200052490792505E039A04995043181803F0D9
:1025300025FD079B4D49321C58520C321E203B5E34
:102540004A4852000199821801924B430621505E7D
:10255000039A04995043181803F010FD019B1021B1
:10256000D880321C6846095A404B06982C325200DB
:1025700081805A379A183988538808B21FB2874227
:1025800000DA0B1C394F0298BE193B4F53803B18A1
:102590007836783332781B78D31833702EE05800B1
:1025A00081183C26895F002921D133492F4A4E5B8F
:1025B00001348652181C0C30FE8B40001018C68067
:1025C000181C1C3040008018844668468688604687
:1025D0008680029E5A37711878310878D1182C33CA
:1025E0005B00D3183A88783108705A8006E00133CE
:1025F00001E0224A0023059EB342D0DB029F023550
:1026000001370297029E089FBE4200DA48E7174E44
:102610001D48331C88331C60134B15491A1C463265
:1026200015780433DF8F2B1C6A1E1B336D00AC46FC
:102630005B00124D9B193E26805F92006544521844
:10264000043300210290AC462BE01888002825D0E6
:1026500066468D193A26AD5F00B2002D16DC3DB2FC
:10266000A8421BDA15E0C046A81B00200C1C002065
:10267000D8000020100C0020BC010020C402002063
:10268000380C0020B8010020AE1B0020029DA8429B
:1026900004DA00201880D883013C1060023B023924
:1026A000043A044EB342D0D1034B0BB088331C60C4
:1026B000F0BDC046461C00200C1C002073B5002352
:1026C00001933D4B9968192905DD081C12380A3918
:1026D00003F016FA0190394B394C46331E7800232B
:1026E0001D1C191C08E0E01878300078411889B2E8
:1026F000824200DA051C01332AB2B342F3DB88348C
:1027000023683048452A01DD012B14D0012B10DD50
:102710002A4B09B25C331B78CC17D80F994244413D
:10272000E3B2002B08D0312A06DD264B01221A70B5
:1027300002E0002B00D10370224B1B78002B3AD013
:10274000214C2368DA0703D5204B21481B689847A2
:10275000226801231A4207D0184A1E4946321078CF
:102760001D4A14680222A047174B1A6801231A4217
:1027700007D0124A194946321078174A14680222C3
:10278000A047114B01221B68134207D00B4B144981
:1027900046331878104B1C680023A0470A4B1A6870
:1027A00001231A4205D00C4A181C146801A90422FE
:1027B000A047FFF7ADFD73BD00010020A81B00205E
:1027C0000C1C002030000020180000208800002091
:1027D00037610000481C002094010020661C002086
:1027E000841C0020F0B5CA4E0027331C88331F60BC
:1027F000C84BA1B00633DF77C74B351C191C4631D7
:1028000009789A1D1B91D28FC44C510010B289B225
:102810001A1C1D901C91593212781E350C921A1CEC
:1028200056320020115E1A1C0A9158321278510853
:102830000B9213915121595652338AB21492B84ACD
:10284000D069126A411A169116A800881E901B784A
:1028500002975BB299B2D31A189318AA1288331C44
:102860003C3317911F920393199706970597049786
:10287000079768E103980388002B06D01D991BB2C7
:102880005B1A1C9A5B10D318038003990022895E9F
:102890000891002908D023680C99012019908B42D7
:1028A00004DA1B18236001E0089A226023680C9860
:1028B000834205D16368012B04DC0133636001E0CE
:1028C000002161606268002A00D1D7E00823E35646
:1028D00094480D930333034004D50220013B40424A
:1028E000034301335BB20993A360012A1BD1029910
:1028F0000E224A430998894B1218101D40001918DE
:1029000030888880101C298808304000C152039903
:102910000C3209885200D1527D4A02991B188A183C
:10292000783212789A806368012B00DCA6E00023DD
:10293000F25E029801920E2250430D9A774B811855
:102940000A1D52001A909A180423D05E019A009032
:10295000121A00202B5E081C944608306F4A06931A
:102960004000825E069B0D929A1A07926246D31728
:10297000D2185A400492079A0C31D317D2185A40F1
:102980009446049A4900131C6344644A04938A5E83
:10299000089B0E92991ACB17CA185A4011925C499B
:1029A000029A5E4B51187831097818180F91042259
:1029B000815E0F9B1091591ACA17881850401590C4
:1029C00004980A9B0A9A1B1859100593009B1291B0
:1029D0005A43031C01984343D2185018059903F039
:1029E000CDFA80B2069A0D9907900A9B04984B4342
:1029F00050431818129B0599C01803F0BFFA80B213
:102A0000119A04900B988118031C0E984343101CD4
:102A1000089A50431B184810181803F0AFFA80B2F8
:102A2000139B109A06901598191853430F9A504308
:102A30001B184810181803F0A1FA80B209990590E4
:102A40001A9843181A1D35485200821869461C20EE
:102A5000415A684691801A1C1021095A08322F48A1
:102A60005200115268461821095A0C332B485B005A
:102A7000195282186B461420C35A93806368022B44
:102A800016D11C216846085A10226946515A18234B
:102A90006A469B5A039A30802980029813801C4B07
:102AA00069461422C318515C78330137197013E05A
:102AB000002B0DD12368002B0AD1039A3380029892
:102AC0002B801380124AAB8782187832137003E090
:102AD000012303995B420B8014A80022B35E0022FD
:102AE000825E934203DC14A90988318005E0169ABE
:102AF000934202DB1EAB1B88338017A900202B5E9C
:102B000000228A5E93420FDC17AA12882A8011E005
:102B10000C1C002000010020A81B0020EC1C002041
:102B2000100C0020010000801898834202DB1FA9CE
:102B300009882980029A039B0132023302920235EE
:102B4000023603931C3402981B99884200DA91E6FE
:102B5000044B19AA12780633DA77034B21B0883375
:102B60001F60F0BD000100200C1C0020F0B5394BA7
:102B700085B01A1C463212785A3303921B783649B4
:102B8000029300231D1C58E03448C2183C24165FF1
:102B90000888002E20D0324EF61801963C24345F6F
:102BA000002C19D0019C6E462488FF18019404243F
:102BB000365FB4460024165F6446A61B019C76105F
:102BC00036193E8006B2B4461E24165F6446A61B24
:102BD00076103618FE8304E0214CFF18E65AF8837D
:102BE0003E801F4E6C469E19B78F368801971D4F49
:102BF000FF18BC46A7886446A787184CE45E37B226
:102C0000E71BFC173F196740029CA7420CDC1E24FF
:102C1000175FBC4600240F5F6446E71BFC173F1993
:102C20006740029CA74202DD0C4FFE52D0836846EB
:102C300080880135908702330231039A094F95420B
:102C4000A2DB074B054C88331B6805B0FB65E365C9
:102C5000F0BDC046A81B00202A1C0020C402002092
:102C60000C1C0020380C0020EFF30880704700BADD
:102C7000704740BA7047C0BA70471F2342091840D6
:102C800001238340181C024B9200D0507047C0466D
:102C900000E100E01F234209184001238340181C73
:102CA0002032024B9200D0507047C04600E100E055
:102CB0001F234209184001238340181C6032024B35
:102CC0009200D0507047C04600E100E070B5002887
:102CD00016DAC0B20F230340083B134A9B089B003F
:102CE0009B18032210409040FF225D68141C844012
:102CF0008901A5430A408240281C1043586011E016
:102D000003248208094B2040C032A0409200FF24D7
:102D1000D558261C86408901B5430C408440281CA8
:102D20002043D05070BDC04618ED00E000E100E047
:102D3000034B01221A7080230022DB051A707047B2
:102D40000D00002000B5104B01225A708023DB05D6
:102D500059690E4A0A405A6159690D4A0A405A6136
:102D60000C4A1278002A0DD00B4A11685A690902E0
:102D7000120E090A12060A435A6159698022520446
:102D80000A435A6100BDC0460D000020FFFFFFFE50
:102D9000FFFFFFEF730000207C01002038B5A02367
:102DA000DB059D680F242C402D022D0EE30705D571
:102DB000281C01F0BDFF1F4B1B68984708231C42CD
:102DC00004D001F0A7FF1B4B1B689847A3070FD542
:102DD000194B9B78082B01D0012B01D1174B03E035
:102DE000281C01F0A5FF164B1B68984701F08CFFCB
:102DF000630704D5124B1B68984701F08BFF0E4BFD
:102E000001219C700F4B1A680A431A601968A022AE
:102E1000D2059068916018681021084318601868FE
:102E2000946890601868884318601B689168936084
:102E300038BDC046800000200D0000208400002026
:102E40007C0000208C010020034B0122DA708023DB
:102E50000022DB055A7070470D00002008B500F015
:102E600055F8014B187108BD0D000020084B402299
:102E700019687F204906490E11431A6882430A43A4
:102E80001A601A688023DB0519691A617047C04609
:102E900088010020074B3F2219687F2011401A68E3
:102EA00082430A431A601A688023DB0519691A6194
:102EB0007047C04688010020074B084A1968186807
:102EC0008904890E090202400A431A601A688023A5
:102ED000DB0519691A61704788010020FF80FFFF38
:102EE000084B4022196818684904490E1143064AE4
:102EF000090202400A431A601A688023DB05196937
:102F00001A61704788010020FF80FFFF8023DB05E6
:102F1000186C4000C00F7047084B202219687F20B2
:102F20004906490E11431A6882430A431A601A6817
:102F30008023DB0519691A617047C04688010020AB
:102F4000074B5F2219687F2011401A6882430A43A9
:102F50001A601A688023DB0519691A617047C04638
:102F600088010020074BBE211A68C901186811406A
:102F7000054A02400A431A601A688023DB05196972
:102F80001A61704788010020FF80FFFF084B202254
:102F9000196818684904490E1143064A090202409B
:102FA0000A431A601A688023DB0519691A617047A1
:102FB00088010020FF80FFFF8023DB05186C800064
:102FC000C00F7047084B102219687F204906490E30
:102FD00011431A6882430A431A601A688023DB058A
:102FE00019691A617047C04688010020074B6F229B
:102FF00019687F2011401A6882430A431A601A68D0
:103000008023DB0519691A617047C04688010020DA
:1030100000B50B4B1968002804D04906490E102250
:10302000114301E06F2211401A687F2082430A4356
:103030001A601A688023DB0519691A6100BDC04651
:1030400088010020074BDE211A68C9011868114069
:10305000054A02400A431A601A688023DB05196991
:103060001A61704788010020FF80FFFF084B102283
:10307000196818684904490E1143064A09020240BA
:103080000A431A601A688023DB0519691A617047C0
:1030900088010020FF80FFFF8023DB05186CC00043
:1030A000C00F7047084B012219687F204906490E5E
:1030B00011431A6882430A431A601A688023DB05A9
:1030C00019691A617047C04688010020074B7E22AB
:1030D00019687F2011401A6882430A431A601A68EF
:1030E0008023DB0519691A617047C04688010020FA
:1030F000074BFC211A68C90118681140054A0240B3
:103100000A431A601A688023DB0519691A6170473F
:1031100088010020FF80FFFF084B01221968186812
:103120004904490E1143064A090202400A431A6043
:103130001A688023DB0519691A617047880100202D
:10314000FF80FFFF8023DB05186CC001C00F7047B4
:10315000084B022219687F204906490E11431A685C
:1031600082430A431A601A688023DB0519691A61D1
:103170007047C04688010020074B7D2219687F20D8
:1031800011401A6882430A431A601A688023DB05DB
:1031900019691A617047C04688010020074BFA215F
:1031A0001A68C90118681140054A02400A431A60AA
:1031B0001A688023DB0519691A61704788010020AD
:1031C000FF80FFFF084B0222196818684904490E66
:1031D0001143064A090202400A431A601A68802312
:1031E000DB0519691A61704788010020FF80FFFF25
:1031F0008023DB05186C8001C00F7047084B042248
:1032000019687F204906490E11431A6882430A4310
:103210001A601A688023DB0519691A617047C04675
:1032200088010020074B7B2219687F2011401A6813
:1032300082430A431A601A688023DB0519691A6100
:103240007047C0468801002000B50B4B1968002864
:1032500004D04906490E0422114301E07B221140AB
:103260001A687F2082430A431A601A688023DB05AC
:1032700019691A6100BDC04688010020074BF6217C
:103280001A68C90118681140054A02400A431A60C9
:103290001A688023DB0519691A61704788010020CC
:1032A000FF80FFFF084B0422196818684904490E83
:1032B0001143064A090202400A431A601A68802331
:1032C000DB0519691A61704788010020FF80FFFF44
:1032D0008023DB05186C4001C00F70478023DB059D
:1032E000DA690F218A4302210A43DA61DA69F0219F
:1032F0008A4350210A43DA610B4A11790139C9B274
:103300005977D86909490140C020C0020143D961F9
:10331000D86907490140902000040143D96192799E
:10332000013AD2B2DA777047AC010020FFFFF0FF1C
:10333000FFFF0FFF30B51A4A1A4B11881A4DC918F2
:103340008023DB0589B2188C1984598C002159849B
:1033500050889A8C411989B2421E998492B2DC8CB1
:10336000DA841C8D114D19855C8D5A8544199D8D0B
:103370000F4DA4B240199C8580B2DD8DD8851D8E7D
:103380001C865C8E5886988E9986D88EDA86188F21
:103390001987588F5A87988F9987D98FDA8730BDC8
:1033A000AC010020FF070000FF030000FF05000044
:1033B000FF010000F0B53E4B3E4C1E78247887B0EC
:1033C000341973180192039442003B4C9C465218E6
:1033D0003A4B24785701DB19049402930024634686
:1033E000374D94462CE0049F002F10D0EA56D70F9B
:1033F000BA185F1CFFB20597029F5210BA18083224
:10340000009214276A46BF5C009A977012E09A1BDC
:10341000D70FBA18EF5652100592FA0FD219521060
:10342000D2B2059F0092029AD2190592171C6A46E1
:103430001278BA72224FFA5601279740E4190233E4
:10344000039A9342CFDB1F4B624629331D784B42D0
:103450004B41EB181C4D5B102D78013B6918013175
:103460009B060905194F19435301DD190C4369687F
:1034700011496C600978164C1B19002901D0811C78
:10348000C9B21971019F002F0AD0124B01211B569E
:10349000520199400B1C094952189169936105E04A
:1034A000064B5201019CD2189369946107B0F0BD9C
:1034B000D90C0020B50100201C00002000100040A5
:1034C0008C700000A81B0020350C00201810004054
:1034D000101000406470000010B50D493F224B1CD5
:1034E000DC7F8023DB05986904341440904320433B
:1034F00098610231C97F0124881C214041180A408B
:1035000011029869034A02400A439A6110BDC046FD
:10351000A81B0020FFC0FFFF30B50D4BFC2292011D
:103520001A6019688022D205106911611C68012196
:1035300064041D68640E07480C432840240220439D
:1035400018601B6810691361106C000E084030BDD4
:1035500088010020FF80FFFF08B50020FFF7A8FBCF
:103560000120FFF7A5FB0220FFF7A2FB0320FFF7D6
:103570009FFB0420FFF79CFB0520FFF799FB06202B
:10358000FFF796FB00200321FFF7A0FB012000219D
:10359000FFF79CFB0220011CFFF798FB0320012191
:1035A000FFF794FB04200121FFF790FB0520022187
:1035B000FFF78CFB06200021FFF788FB034B04215B
:1035C0001A690A431A6162B608BDC04600ED00E000
:1035D00030B5224BEE241A68E401144020481A68E2
:1035E0007F21024022431A601C688022D20515699F
:1035F00014611C4CE47D002C16D01C680425640466
:10360000640E2C431D680C4024022840204318609F
:103610001868146910611C687B2020401C688C436A
:10362000211C0143196015E01C6804256406640E22
:103630002C431D680C408D43291C214319601968D7
:10364000146911611C68F621C90121401C682040E1
:10365000084318601B681169136130BD88010020A0
:10366000FF80FFFFA81B002000B572B60F4B0122A0
:103670001A700F4BDA7D0F4B002A07D01A68F6211B
:10368000C901114018680C4A024005E019687B2204
:1036900011401A687F2082430A431A601A68802307
:1036A000DB0519691A6162B600BDC04674000020CE
:1036B000A81B002088010020FF80FFFF00B572B624
:1036C000104B00221A70104BDA7D104B1968002A3B
:1036D00008D049040422490E114318680C4A090213
:1036E000024006E049060422490E11431A687F2071
:1036F00082430A431A601A688023DB0519691A613C
:1037000062B600BD74000020A81B002088010020C4
:10371000FF80FFFF014B18787047C04674000020FF
:1037200010B58022D205116C80231B020B43136459
:10373000116C8023DB010B431364116C1F4B0B4096
:1037400013641F4B802118684900014319601B68EE
:10375000916893601B4B7F21987C1B4B08401C6831
:103760001A4900042140014319601868A021C905C5
:103770008C6888601C68164820408424E405204337
:10378000186018688C6888601248007840B2002879
:1037900002D001280CD103E01C680F48204003E050
:1037A0001C6880200004204318601B6888688B60B8
:1037B000116C0A4B0B40136410BDC046FF7FFFFF26
:1037C00084010020A81B00208C010020FFFF80FF47
:1037D000FFFFFF8049020020FFFF7FFFFFBFFFFFC9
:1037E000054B00221A708023DB05996C012291435E
:1037F00099641A707047C0460D000020034B0022E8
:103800001A7080230122DB055A70704710000020D7
:1038100000B5064B72B61A78002A04D1C046C046DD
:1038200062B630BFF6E762B600BDC04610000020A9
:10383000014B18707047C04673000020054B196893
:103840008023DB055A690902120E090A12060A438F
:103850005A6170477C010020014B18607047C046D8
:103860007C010020054B00221A708023DB0559697A
:10387000802252040A435A617047C0460E0000205D
:1038800000B5094B72B61A78002A04D1C046C0466A
:1038900062B630BFF6E762B6044A1278002A01D059
:1038A00000221A7000BDC0460E00002073000020E8
:1038B000014B18787047C0460E00002000B5054B3C
:1038C00072B61A78002A03D1C046C04662B6F7E73E
:1038D00062B600BD0D00002000B50B4B0B4A72B65E
:1038E0001978002902D01178002904D1C046C046B9
:1038F00062B630BFF3E762B6054A1278002A01D0FB
:1039000000221A7000BDC0460E0000200D000020ED
:103910007300002010B51049104B04241960104B9F
:103920001A6822431A601A680224A2431A601A68AD
:10393000012422430B4C1A60002222600A4A1160C3
:10394000091A1160206811688842FBD21A680121A7
:103950008A431A6010BDC046FFFFFF0014E000E07C
:1039600010E000E018E000E090010020074B084A5A
:10397000196818688904890E090202400A431A600E
:103980001A688023DB0519691A61704788010020D5
:10399000FF80FFFF084B4022196818684904490E50
:1039A0001143064A090202400A431A601A6880233A
:1039B000DB0519691A61704788010020FF80FFFF4D
:1039C0008023DB05186C4000C00F7047074BBE21F9
:1039D0001A68C90118681140054A02400A431A6072
:1039E0001A688023DB0519691A6170478801002075
:1039F000FF80FFFF084B2022196818684904490E10
:103A00001143064A090202400A431A601A688023D9
:103A1000DB0519691A61704788010020FF80FFFFEC
:103A20008023DB05186C8000C00F704708B50028A4
:103A300002D0FFF7DFFF01E0FFF7C8FF08BD70B558
:103A4000FFF7C4FFFFF792FF072401256F26281C0C
:103A5000A040B043C0B2FFF7E9FFFFF79BFFFFF7BD
:103A600085FF013CF3D2FFF7C5FFFFF793FFFFF798
:103A7000D7FFFFF77BFF70BD70B5051C072401263B
:103A8000281C20413040FFF7D1FFFFF783FFFFF7ED
:103A90006DFF013CF4D2FFF7ADFFFFF77BFFFFF7AF
:103AA000BFFFFFF763FF70BD08B5002806D0FFF722
:103AB0008DFFFFF76FFFFFF79DFF03E0FFF79AFF12
:103AC000FFF768FF08BDF7B500900F1C0192FFF7E4
:103AD0007DFFFFF74BFF072401256F26281CA04020
:103AE000B043C0B2FFF7A2FFFFF754FFFFF73EFF5E
:103AF000013CF3D2FFF77EFF0024FFF74BFF0126C6
:103B0000FFF78EFFFFF732FF15E00725009B185DDA
:103B100028413040FFF78AFFFFF73CFFFFF726FF01
:103B2000013DF3D2FFF766FFFFF734FFFFF778FFA1
:103B3000FFF71CFF0134BC42E7DB019B002B06D0E2
:103B4000FFF744FFFFF726FFFFF754FF03E0FFF7FF
:103B500051FFFFF71FFFF7BD07B5031C01A8417018
:103B6000037002210122FFF7AEFF07BD07B5031C5A
:103B700001A8417003700221FFF7A5FF07BDF7B54B
:103B8000061C0F1C0192FFF721FFFFF7EFFE072431
:103B90000125281C6E23A0409843C0B2FFF746FFC2
:103BA000FFF7F8FEFFF7E2FE013CF2D2FFF722FF3B
:103BB0000024FFF7EFFEFFF733FFFFF7D7FE29E002
:103BC000FFF7E8FEFFF7FCFE0028FBD0002333558B
:103BD0000725FFF7DFFE335D0093FFF721FF009B12
:103BE000A84018433055FFF7C1FE013DF1D27B1EBE
:103BF0009C4208DAFFF7EAFEFFF7CCFEFFF7B6FEBD
:103C0000FFF7F8FE05E0FFF7F5FEFFF7C3FEFFF74D
:103C1000ADFE0134BC42D3DB019B002B06D0FFF785
:103C2000D5FEFFF7B7FEFFF7E5FE03E0FFF7E2FE84
:103C3000FFF7B0FEF7BD73B51E1C6B46D871073396
:103C4000151C181C0C1C00220121FFF73CFF291C2D
:103C5000321C201CFFF793FF73BD00B54000064ADD
:103C600040180023400180181A1CC11801338A72C1
:103C70000A2BFAD100BDC04600100040F8B5234B16
:103C800000261F7812E0281C0021FFF7E6FF204CD9
:103C9000281C22780021FFF78DFB281C0121FFF74B
:103CA000DCFF2278281C0121FFF784FB1749F51956
:103CB0000A7818490136CB7FD3189D42E3DB164BB7
:103CC00000251F7816E0201C0021FFF7C6FF104ECC
:103CD000201C3278002153425A41FFF76BFB201C15
:103CE0000121FFF7BAFF3278201C53425A410121CB
:103CF000FFF760FB084BEC191A78084B01352833A5
:103D00001B78D3189C42DEDBF8BDC0464A02002077
:103D10001C000020AD1B002048020020A81B002032
:103D2000F8B58024E4052368674B002222601A60FE
:103D30001968A068A160654904270A600968E068FD
:103D4000E160FC2062498001086009682069216106
:103D500061696261A169A261E169E261216C80210E
:103D6000C9012164616C5B486264A16CA021A264FA
:103D7000C90502608D688A60256C574A2A40226412
:103D80000568802252002A430260026888688A60BF
:103D90001A6808210A431A601A68A168A2601A68A2
:103DA0004E4D3A431A601A68A168A2601A6802214F
:103DB0000A431A601A68A168A2601A6801218A433E
:103DC0001A601A68A168A2602A1C343210781E6832
:103DD000032243491040000431400143196019682F
:103DE000A068A160291C3331097818680A40910441
:103DF0003C4A072602400A431A601A68A168A2607A
:103E00001968802252030A431A601A68A168A260E6
:103E10002A1C323211781868334A31404905024071
:103E20000A431A601A68A168A2602A1C5D321178E0
:103E30000F2947D82A1C5E3212780F2A42D81868F8
:103E40000907B840F840014319600F210A4018687B
:103E50001106264A02400A431A601B68A268A36042
:103E60006B1CDA7F216C7F2352009943013A1A4080
:103E70000B1C134323641E4A636C13436364FFF7F4
:103E80002DFAFFF757FA2B1C31331B78194A1E40C5
:103E90003302266C383516401E432664A1692A7801
:103EA000154B12040B401343A361FFF7E7FE134ABF
:103EB000134B02211A60134B1A6817431F601A68CC
:103EC0008A431A60F8BDC0468401002080010020AA
:103ED000880100208C010020FFFF7FFFA81B00202D
:103EE000FFFFFCFFFFFFF3FFFFFF1FFFFFFFFFF0E0
:103EF000FFFF0F00FFF8FFFFFFFF00F0FFFFFF00D5
:103F000014E000E010E000E0F8B50B4F00253E782B
:103F100009E000210A1C201CFFF74CFA201C01219B
:103F20000022FFF747FA05493A780B78AC19D31805
:103F300001359C42EDDBF8BDC20200205802002092
:103F4000F8B50B4F00253E7809E0201C0021012226
:103F5000FFF730FA0121201C0A1CFFF72BFA054954
:103F60003A780B78AC19D31801359C42EDDBF8BDDB
:103F7000C202002058020020F7B50388072201245E
:103F80008C46654615415D40254029010091D90ABE
:103F90001E0B2140019669405F093F268901374089
:103FA0000F43009E01990E43190921404D40F6012F
:103FB0005B080721ED000B4037432B433F013B4398
:103FC000013ADED20380F7BDF0B589B0029000203F
:103FD000039104920090AFE0FFF731FDAE20FFF7B0
:103FE0004BFDF120FFF748FD029A009B574ED41875
:103FF000E4B2201CFFF740FD012307A85B420380C9
:10400000211CFFF7B9FF52485249534B08601A6808
:10401000042002431A601A68022082431A601A6858
:10402000012002431A600022326049484B4A4C4D3D
:1040300010604C4804786C43857845480135EC4065
:10404000041B14601D1C306811688842FBD21A687A
:1040500001218A431A60009A00209302039A01907A
:10406000D318059339E00198059B1C18E05DFFF714
:1040700003FDE15D07A8FFF77FFF013FF3D2344A5C
:10408000344B33481A602B68042213432B602B688F
:10409000022293432B602B68012213432B600023E1
:1040A00033602E4B2F4A186011786420414390787A
:1040B000274A0130C140511A196031681A6891428B
:1040C000FBD22B680127BB432B60019B0433019378
:1040D00001988023DB00984201D00327C3E707AC97
:1040E0002088000AFFF7C8FC2078FFF7C5FC381CC1
:1040F000FFF7DAFC69463B1CAF201F313A1CFFF783
:104100009AFD194C23683B4203D0184B18481B6892
:10411000984723680122134206D0164B69461C6853
:10412000101C1F310023A0476B461F331B78032B45
:1041300009D1009A01320092009B0498834200DA70
:104140004AE7012000E0022009B0F0BD18E000E0DD
:10415000FFFFFF0014E000E010E000E0900100200D
:10416000400D0300800E0020180000208800002071
:104170004C6100009401002073B5184B18481E785C
:10418000184B0A2101226C461D780734FFF79BFC6F
:104190000122AF20131C211CFFF74DFD22780220C5
:1041A000012A19D1104B1B78834208D0032B0DD064
:1041B000101C012B10D10020011C1F2203E0AD1B9D
:1041C000B102EAB2301CFFF7FFFE05E01F22521BCE
:1041D000A902D2B2281CF6E776BDC046896100006C
:1041E0004261000088610000C002002070B5051C1B
:1041F000FEF7CCFEFEF774FEFEF724FF281CFEF748
:1042000007FFFEF79DFEFEF7ADFE1B4CFEF77EFEA0
:10421000002803D0013C002CF8D119E0FEF726FF5E
:10422000FEF7B4FE144CFEF771FE002803D1013CEA
:10423000002CF8D10CE0FEF72FFF061CFEF792FED3
:104240000D4CFEF763FE002804D0013C002CF8D191
:1042500001240FE0012D04D1281CFEF7D9FEFEF742
:10426000F1FEFEF793FEFA20C000F4B2FFF752FB16
:10427000FEF78CFE60B270BDFFFF0F0008B5002096
:10428000FFF7B4FF08BDF0B587B0041C0120FFF7AD
:10429000ADFF0390C820FFF73DFBE1B20420FFF71C
:1042A0005BFC6420FFF736FB601E042800D9FCE1AC
:1042B00001F00CFE0500330187013601BA01C82068
:1042C000FFF728FB0122131CC0493120FFF7B3FC84
:1042D000C820FFF71FFBBE4C0122131C211C3720F6
:1042E000FFF7A9FCBB4B22781978914201D0FF223D
:1042F0001A70C820FFF70EFBB74C0122131C211CBB
:104300003820FFF798FCB54B22781978914201D0FC
:10431000FF221A70C820FFF7FDFAB14C0122131CCE
:10432000211C3920FFF787FCAE4B22781979914286
:1043300003D0AD49FF220A711A71AC4B1B68980477
:1043400003D5AB4BAB481B689847AB4BFB255D7067
:104350008023DB051D71291C0220FFF7FDFB642073
:10436000FFF7D8FA012300215B420191029300E09C
:10437000029403200121FFF7EFFB6420FFF7CAFA44
:10438000FEF7C4FD0028FBD1071CFEF7EBFD9B4A9E
:104390009B4B9C4C1A6023680422134323602368C0
:1043A00002229343236023680122974E1343236024
:1043B00092483760954F3860FEF7A8FD0028FBD083
:1043C00033688E490122CB1A3B60236893432360F4
:1043D0003F68FEF7DBFDFEF799FD0028FBD1874A19
:1043E000874B1A6023680422134323602368022248
:1043F0009343236023680122134323603060834B7F
:104400007E487D4A186011788148414390787B4A04
:104410000130C140511A19607B4801681A68914205
:10442000FAD22368012293432360FEF79BFDFEF737
:104430006DFD0028FBD0FEF7A9FD6420FFF76AFAA6
:1044400004A9042201233420FFF7F5FB714A049BE1
:104450001168694AFE1A5278CB80644B0A801B6847
:104460004D808F800E819A0405D56B4B05201C680A
:1044700004220123A047F3170298F4185C408442F9
:1044800003D20199002923D028E0019A5A4C002A2E
:1044900007DA637880220133DBB2D20563701371CF
:1044A00008E00135EDB20220291CFFF755FB64201E
:1044B000FFF730FA574B62781B68684608211A806C
:1044C000085A012252425D809A80DA801881ECE01D
:1044D000049B9F4205DC0121019111E0019A013208
:1044E0000ED1454A5378013BDBB25370002B00D10B
:1044F000DBE08022D205137101235B42019337E791
:10450000013DEDB2002D00D1CFE00220291CFFF7C4
:1045100023FB6420FFF7FEF92AE71D2002214DE06E
:104520000121B020FFF718FBFEF7A0FD2D498B1DE0
:10453000DB7F4A7F5A4328235A43384BD25C0023FF
:104540001D1C33E0274F27480637F97F447F063F7D
:104550004C4320E02821614330482818465CB24291
:1045600001D10133DBB2FF2B01D0B24212D005A83A
:10457000B12101704270837003210122FFF7A3FA79
:10458000C8204000FFF7C6F9FEF786FD0028FBD0E3
:10459000321C01230134B91D787FC97F4143381C87
:1045A0002930007809188C42D4DB01351C48C17FC2
:1045B0008D42C7DBFEF746FDB3200121FFF7CCFAA1
:1045C00073E0184BC0201978F8E7C0462403002098
:1045D000C102002026000020040C002068010020F9
:1045E000041E0020A81B00205C02002018000020F0
:1045F0008800002053610000800E0020FFFFFF00B4
:1046000014E000E010E000E018E000E0900100207D
:10461000102700002000002094010020870E0020B9
:10462000A91B00203901002001200821FFF794FA7E
:104630002349244B04201960234B244C1A68244E30
:1046400002431A601A68022082431A601A68012025
:10465000024320481A60002202601F4A1160257838
:104660006E43A578341C0135EC40091B11600468C9
:1046700011688C42FBD21A680124A2431A60FFF72A
:104680007BFD164B164D98712B68234203D0154BBA
:1046900015481B6898472B680122134205D0134B1D
:1046A000101C1C6812490023A0470020FEF7B0FC34
:1046B0001420FFF72FF9FEF7D9FC039807B0F0BDDF
:1046C000FFFFFF0014E000E010E000E0800E00209B
:1046D00050C3000018E000E09001002028010020F5
:1046E00018000020880000205A610000940100207A
:1046F0002E010020F0B587B0041CFEF70DFDFEF77B
:1047000061FDFEF7CFFDFEF7E1FCFEF771FD00282D
:10471000FBD1FEF7DDFD0290FEF7EAFCFEF768FD37
:104720000028FBD0FEF7AAFD201CFEF78DFDFEF74A
:10473000F3FCFEF75DFD0028FBD1FEF7B3FDFEF7AD
:10474000D7FCFEF755FD0028FBD0FEF7E5FC029AEA
:10475000012A00D0E9E0764B764A19681868890486
:10476000890E090202400A431A6019688022D205A4
:1047700010691161186840214006400E084319680D
:104780007F24A143014319601B68116913610298DA
:10479000FEF773FAFEF7C4FF002301931F1C039377
:1047A000AFE0654B1A78002A73D000221A7080237C
:1047B000DB05196C8022D2010A431A645F4A604902
:1047C000106801401160126899689A60FEF790FCC9
:1047D000FEF70EFD0028FBD15A4A5B4E5B4C32605F
:1047E0002368042213432360236802229343236037
:1047F0002368012213432360554D564B514A2860CC
:104800001A60554A55481178414390784D4A013015
:10481000C140511A19602A1C106819688842FBD2DD
:104820002368012293432360FEF776FCFEF7E0FC49
:104830000028FBD0FEF75CFC424B04223360236867
:10484000444E13432360236802229343236023686A
:10485000012213433B4A236000232B603260FEF7A2
:10486000C7FC0028FBD12B68364AD31A3360236873
:104870000122934323603268394B1A60FEF74CFCE7
:10488000FEF7B6FC0028FBD00120FEF7F6F9FEF794
:1048900047FF294CE378002B33D00020FEF7D4FCEF
:1048A0000023E370211C072204A801F0C9FB2D4A54
:1048B0006B46501C597DC57F039C901D1E7DC07F9B
:1048C000131C527F293361181B7850438C4612E029
:1048D000019AD1188C4203DB01371A1C7A430192EA
:1048E000AF420ADA019A2118891A282251431E4A36
:1048F000C9198E5401346445EADB0120FEF7A4FC9B
:104900000394FEF7E5FC012800D14AE78023DB058C
:10491000196C8022D2010A431A64084A08491068B7
:1049200001401160126899689A60029807B0F0BD62
:1049300088010020FF80FFFF280100208401002063
:10494000FFFEFFFFFFFFFF0014E000E010E000E0CB
:1049500018E000E090010020800E002010270000E9
:10496000080C0020A81B0020870E002070B5FFF760
:10497000D7F9FEF7F1FD0220FEF77FF9714B1B78A6
:10498000002B61D00020FEF778F90120FEF775F9C1
:104990000320FEF772F90420FEF77CF90520FEF7EC
:1049A00079F90620FEF776F9FEF7BAFEFEF794FDD8
:1049B000654B5B7E002B10D0644B01221968186890
:1049C0004900490E1143624A090602400A431A602F
:1049D0001A688023DB0519691A615B4B9B7E002BEB
:1049E00010D05A4B0222196818684900490E114329
:1049F000574A090602400A431A601A688023DB05F9
:104A000019691A61504BDB7E002B10D04F4B0422EA
:104A1000196818684900490E11434D4A09060240B9
:104A20000A431A601A688023DB0519691A61464B2C
:104A30005B7C002B08D08023DB05596CA82249023F
:104A4000490A12050A435A64424A80235178DB0519
:104A50001971596890784900C007490801435960A5
:104A6000D4785D6803213C480C40A40328402043CF
:104A7000586014795D6839480C402403284020436D
:104A8000586054795D6836480C40A40228402043A1
:104A900058609279586811400A0232490140114326
:104AA0005960294B5A7C002A37D0264B2E4C1E7851
:104AB000002E16D0FEF78CFD2378002B0BD00120A2
:104AC0000021FFF7E0FB012803D0284B00201B68E2
:104AD0009847002323708023DB05196C244A0A4081
:104AE00012E02378002B09D0224D00202856FFF732
:104AF00001FE431E5A1E93412B7026708023DB0556
:104B0000196C802292010A431A648023DB05196C18
:104B1000802252010A431A6412E0174A1178174A98
:104B20001170174A1178174A11701A79164B1A70BA
:104B3000FEF7C2F9FEF716FAFEF784FAFEF748FD13
:104B400070BDC0461C000020A81B0020880100206A
:104B5000FFFFFF80800E0020FF3FFFFFFFCFFFFF22
:104B6000FFF3FFFFFFFCFFFF120000209400002076
:104B7000FFDFFFFF1D00002026000020C1020020F3
:104B800068010020040C0020041E002000B5FEE790
:104B900000B5FEE700B5FEE700B5FEE700B5FEE7AD
:104BA00000B5FEE700B5FEE700B5FEE700B5FEE79D
:104BB00000B5FEE700B5FEE700B5FEE700B5FEE78D
:104BC00000B5FEE700B5FEE700B5FEE708B58023B7
:104BD000DB05FF215A685960002299689A60D968FC
:104BE000DA601A69FC2292011A610D490D4A0E4BD6
:104BF00001E001CA01C38B42FBD30C4B0C490022DC
:104C000000E004C38B42FCD3FEF72EF8094B0022D0
:104C100000E004C38342FCD3FCF7C2F908BDC046E0
:104C200028000020687900000000002028000020F3
:104C3000581E0020581E002070477047704700B56E
:104C40000F4BDA7C0F4B012A02D0082A12D108E060
:104C50000D4A1A600D4A5A600D4A9A600D4ADA6090
:104C60000DE00D4A1A600D4A5A600D4A9A600D4ACD
:104C7000DA6004E00C4A1A605A609A60DA6000BD9B
:104C8000A81B002078000020E9500000A951000076
:104C9000D951000005530000794E0000854E0000F8
:104CA000AD4E0000F94E0000394C000000B5084B35
:104CB000084AD97C084B012904D108491160084AE7
:104CC0001A6103E007491160074A1A6100BDC04636
:104CD000A81B002094010020780000201150000043
:104CE000AD5000003B4C00003D4C0000014B5869AA
:104CF0007047C04678000020024B5A69101A58616C
:104D00007047C04678000020014B00225A6170476E
:104D100078000020024B5A6908325A617047C04639
:104D200078000020014B188B7047C04678000020A7
:104D3000014B80B2188370477800002000B5002333
:104D4000C25C0133002AFBD1013BD8B200BD70B573
:104D5000041C0D1C161CFEF7B1FC201C403810284A
:104D600077D801F0A9F865090D272B4549545A76E3
:104D70007676767676686F00364B0E221A7068E08B
:104D8000354A364BFF2E0BD135490131C97F4900D9
:104D9000C9B2117050225543324AAD181D6058E017
:104DA00002211170282255432E4A76197600B61832
:104DB0001E604EE0274B0F221A704AE0264A274B0E
:104DC000FF2E0BD126490131C97F4900C9B21170AC
:104DD00050225543244AAD181D603AE0022111705B
:104DE00028225543204A76197600B6181E6030E016
:104DF000184B10221A702CE0174B01221A7028232E
:104E00005D431A4B7619F618144B1E6021E0114BC6
:104E100011221A70FEF728FC1BE00F4B02221A70B9
:104E200028235D430F4B76197600F6180B4B1E6056
:104E3000FEF71AFC0DE0074B00221A700C4B012202
:104E40001A7006E00B4B0120D874054BD87401F0A2
:104E5000D7FA70BD38010020990100209C01002084
:104E6000A81B002026030020E8120020870E002047
:104E7000250000205C02002008B5FEF7F5FBFEF7D8
:104E80001DFC08BD08B5FFF74DFF602806D1044B97
:104E90000B221A70034B1A78034B1A7008BDC046D8
:104EA000380100200C000050C002002008B5FFF7B8
:104EB00039FF6138032813D80A4B00F0FDFF060ABA
:104EC0000E02094A12781A700AE0084A12781A701B
:104ED00006E0074A12781A7002E0064A92791A70C0
:104EE00008BDC0460C00005026000020896100006B
:104EF00088610000280100207047C04610B5041CDE
:104F00001C2826D00DD803284AD004D8012831D037
:104F100002286BD13DE0052846D04BD31B2865D134
:104F20000FE0B12858D006D85F2847D0B0284BD022
:104F30001D285BD11AE0B32856D050D3C02855D1D4
:104F40000EE02B4B01201A688840011C11431960A8
:104F50004CE0274B01201A68884082431A6045E0E4
:104F6000244B0A221970244B1A703FE0224BC9B21D
:104F700019703BE0214BD974214BD97400F090FE9D
:104F8000204B1B689847201C01F03AFAFEF7C8FB3B
:104F90002CE01D4B59705A788023DB051A7125E0EF
:104FA000194B01221A7021E0134B0B221A70174B78
:104FB00019701BE0144BC9B2997017E0002915D085
:104FC0000D4B0C221A7011E000290FD0FEF756F994
:104FD0000120FEF739F909E00B4B197106E00A4B85
:104FE00001225971DA7001E0FEF75CF910BDC0468C
:104FF0001800002039010020380100205C02002048
:10500000A81B00205001002028010020C002002021
:10501000F7B5061C141C002B07D0042A0FD8214B0F
:105020009A5C053300921F5D10E0042A0BD81D4BDB
:105030001A1C0A32125D0F3300921F5D06E00F2327
:105040000027009302E00F221F1C0092032C21D0A6
:10505000002C21D021E03C20211C00F08FFF864253
:1050600005DD6B461B78C0B22B70687002E02F70B4
:10507000301C6E70361A6043019A00236A60AB6080
:105080001218F6B20192FEF7EFFAFEF743FB002882
:10509000FBD104E0022400E00124034D0191002E25
:1050A000D9D1F7BD5E6100009800002038B50D4CE5
:1050B0000B232370051CFFF741FE60706378072205
:1050C00002331340934203D16378013BDBB2637038
:1050D00000236560A360FEF7C7FAFEF71BFB0028FC
:1050E000FBD138BD98000020F8B5FEF713FB00286F
:1050F00050D1294B88331A68002A03DC274BDB6D1B
:10510000002B47DD264903230B70264B46331B78C3
:105110001D1C9A4200DAD3B200224B701E48131CA9
:105120001F4929E0013303E05E0036180024B4462D
:1051300066460234A7193A26BF5F002FF2D0AB4271
:105140001CDA5C00045B8E18347324B2DF00241276
:10515000561CE419E4B28E1934731C1C0C34640020
:105160000419E488961C8E193473D61C24B22412B8
:105170008E19347304320133AB42D5DB084B1A1C51
:105180000C325A6000229A60FEF76EFAFEF7C2FAFD
:105190000028FBD1F8BDC0460C1C0020C402002032
:1051A00098000020A81B002070B5A023DB059D6897
:1051B000FFF7B8FD2D012D0F061C002407E0054A5E
:1051C0003019A31880B21978FFF798FE0134AC4269
:1051D000F5DB70BD0C00005070B5FFF7A3FD37285C
:1051E00052D00AD831284AD002D800280DD05AE02F
:1051F000342839D0352856D13BE039284ED048D311
:1052000086280CD0C0284ED104E0334B9A7C334B17
:105210001A705FE0324B1A78304B1A705AE0FFF781
:1052200065FD0024A04210D12E4B2C4A1978117034
:1052300059782D4A11705B681A182C4C1178021994
:10524000013011700628F7D144E0264D6E68FFF753
:105250004DFD0019023836182049327863180134A0
:105260001A70082CF2D135E0214B1A681B4B1A60DA
:1052700030E08023DB051A79184B1A702AE0164BB0
:105280001A78164B1A7025E01A4B1A78134B1A70BD
:1052900020E0194B1A78114B1A701BE00E4B1A794B
:1052A0000E4B1A7016E0031C903B9BB21B2B11D8BF
:1052B00028254543114B0024ED18114BED18FFF73D
:1052C00015FD0019281805490278631801341A7071
:1052D000082CF4D170BDC046A81B00200C00005063
:1052E00039010020980000200D0000500E000050F1
:1052F000080C0020260000206801002080E9FFFF44
:10530000870E002008B5FFF70DFD86280BD1064B50
:105310009A68012A02DC9A6801329A609B68022B23
:1053200001D1FEF7CBF908BD98000020034B1868A7
:105330005B68C01A434258417047C046CC00002009
:1053400010B5041C0249062200F07AFE201C10BD94
:10535000A401002000B5044B58681B684230C01AF5
:10536000412800DD423800BDCC000020014B186808
:105370007047C04614000020014B18687047C046B3
:10538000CC000020014B58687047C046CC0000207C
:10539000014B18607047C046CC000020014B58609C
:1053A0007047C046CC00002010B50A4C0622216888
:1053B000094B51431B680948591800F041FE236806
:1053C000013323602368412B02DD2368423B2360C5
:1053D00010BDC046CC00002014000020A401002015
:1053E00008B5064B06485A681A60196806225143E8
:1053F000044B1B68591800F023FE08BDCC000020A8
:10540000A40100201400002013B50B4C009060682C
:1054100006225043094B01911B686946181800F099
:105420000FFE6368013363606368412B02DD6368CC
:10543000423B636013BDC046CC0000201400002036
:1054400007B506235A43019104490090086869464C
:1054500080181A1C00F0F4FD07BDC046140000209F
:1054600070B5041CFFF762FF00281BD10F4B06210B
:1054700018685E680E4BC0B2F6B21D680F22013488
:1054800000E0181CB0420DD00B1C4343EB181B78F6
:105490001340A34207D0431CDBB24138C0B2412BBA
:1054A000EFD9EFE7034800B270BDC046CC00002042
:1054B00014000020FFFF0000F7B51F4A2824131C2A
:1054C000403319781D4B4808404218604800411885
:1054D00089105960111C3731097819481961931CDA
:1054E000DB7F0132013B5C43D17F164A4E1E6118BF
:1054F000241815484900801A89180190B44618E00C
:10550000951CBE017619114D7600755B019E0D52FA
:1055100076182D0135520025A5540096013A02E077
:10552000624600205F1C0238561CE9D1013B50390D
:10553000283C5A1CF4D1F7BDA81B0020DC0C00202D
:10554000870E0020E81200202603002000400040C3
:10555000F0B5C34F9DB0FB7CC24E012B00D178E16A
:1055600001250B953368980703D5BF4BBF481B68CF
:1055700098472123FB5C002B19D0002504E0212350
:10558000FB5C0135AB4212DD336802211942F6D0D3
:105590002023F85CB64AB74BE90189181C6802223F
:1055A0000023A0472123FB5C0135AB42ECDCB24B6E
:1055B000B24C1968B24B01311A688901023289185C
:1055C000B04A0023E260B04AE3612362A36049006D
:1055D0008A5A6221795EAD4E5143AD4A091289B2B1
:1055E0001180AC49FF2033708B60C8600B6048604D
:1055F0000022A94CA94DE018E918023302800A8064
:10560000402BF6D12022BA5C561E059600D21EE130
:105610002122BA5C994C013A1A92FA5C3623FB5C5F
:105620001A980A93D208830007921A183723FB5C52
:10563000924D1993397C38230C91FF5C8F4E0D9756
:105640008E4B8E4F8D489149DB69246AAD6876692F
:10565000BF69C06809780E9313940895149615973E
:10566000099016918B4B8B4C8A4D8A4E0A9F079856
:105670009B68E4682D6876687F424042D2000F93B1
:10568000109411951296179718901B921A99013140
:1056900000D1BDE01B9B059C814D1A190234069474
:1056A000804C530059191C197F4B8048D318049320
:1056B00010181A9B76E0179EB54200DA86E005784E
:1056C000199A6EB2964201D06A1C027022880C9D13
:1056D0001209D21B92B2002D05D0049E12B2357869
:1056E0006A43921192B217B2BC460297079FBC451B
:1056F0006FDD0E9D2E1C66440E96089FBC4504DD92
:10570000059D6746159514930897099D654501DD2C
:1057100067460997079DAC4501DD01261696674649
:10572000002F5EDBBF10BC461F2F01DD1F25AC46DE
:1057300066467600584F0396BF5B0125BC46AC44D5
:10574000554E039F6546F5530B9D002D04D017B2AF
:10575000002F5ADB92B202970D9E029FBE4211DCCF
:105760000F9D9D4200DA0F93109E9E4200DD109324
:10577000119F059DAF4200DA1195059E129FBE4212
:1057800000DA1296019F069D92B27E193E4D760078
:10579000775B7253049A5039283A503C0492283867
:1057A000013B35D3069F5E1CB601F219364D0196BA
:1057B0005200575B0A883FB2BF187F10BFB2D21B9E
:1057C0000A9E15B20F80B54200DC74E70022027019
:1057D0007CE7189FBC4590DA139D6646AD1B139578
:1057E0008BE77E42B610B4461F2E01DD1F27BC4654
:1057F00065466D00294E0395765B0127B446BC448F
:10580000264D039E6746AF539EE700220027A1E77F
:10581000059B013B059300D338E7184D0E9C139E62
:10582000089F14981599099A16ABEC612E62AF6027
:10583000184E6861A9611C78EA60144B0F9D109F97
:10584000119812991C70B560F760306071601DB0DE
:10585000F0BD3368082213405C425C410B9481E642
:10586000A81B00201800002088000020786100009C
:1058700084400040940100203001002000010020FD
:1058800034010020FFFFFF7F00400040D4000020D3
:10589000E81C0020D81C0020981C0020980C002038
:1058A000E81200202603002008750000870E002063
:1058B000F7B5234BDA7C01239A4205D1214B1A68B4
:1058C000082313405A425341002B37D11D4B1B680C
:1058D0001A0703D51C4B1D481B689847002529E073
:1058E000184B1B681C070AD5154B194E0133D87F7E
:1058F000184BE9011C68891903220123A047104BAA
:1059000001350133DA7FAF010132019710E0019BCD
:105910001148991849000B5A8027DC0F00263F01D7
:105920009F427441644223409BB2445A013A43521D
:10593000012AECD1094EF37F9D42D1DBF7BDC04671
:10594000A81B0020180000208800002072610000C1
:10595000844000409401002000400040AA1B002029
:10596000F0B542492123CB5C83B05A1E019200D28C
:1059700078E001993E4A8F007F183E4BFF0000926D
:10598000FF183A4B20215C5C013C29D3019A3A492B
:1059900093009B18DB001B19384E5B005D189E19A5
:1059A00003E0023D023E013C1AD3304A3721535CEA
:1059B0003A57298830889A42F3D1314B1A680B093B
:1059C0001B1AC91A93423EDA00990B68DA073CD4D5
:1059D0000001288000233B55023D023E013CE4D2F9
:1059E000019B283F013B0193CBD2009904230A6815
:1059F000134226D00A68134203D0224B22481B6868
:105A000098471A4A2123D35C002B1AD01A4D00263E
:105A10002027164AD05D002808D01C4944000023E6
:105A2000EA5A1209CA520233A342F9D100990B680B
:105A30005A0710D40D492123CB5C01365035B342AF
:105A4000E7DC03B0F0BD2980C4E70E4B10481B68AB
:105A500098473088BCE70F4B0C491C680222002392
:105A6000A047E7E7024B0093BFE7C046A81B002012
:105A700018000020870E002026030020E8120020D6
:105A8000DC0C00208800002084610000061E00203D
:105A90007C61000094010020F7B5164B00219A1C90
:105AA0000133D87F144BD47F283B651E1B180A1C7A
:105AB0000193AC4618E0871CB501FF18EF190F4D94
:105AC0007F007F5B282565430097019F7D196F4606
:105AD0003F786D18EF5401E00023A61A013B1D1812
