:1000000010000000987900002500000001000000A9
:100010006C1B00206D4300002D43000031430000A5
:1000200035430000394300003D430000000000005C
:10003000000000000000000000000000414300003C
:100040004543000000000000494300004D4300000C
:1000500021300000793000000D3000002531000013
:100060003931000065430000694300006943000026
:1000700069430000694300006943000069430000D0
:1000800069430000694300006943000069430000C0
:1000900069430000694300006943000069430000B0
:1000A00069430000694300006943000069430000A0
:1000B0006943000069430000694300006943000090
:1000C0006943000069430000694300006943000080
:1000D000F8B5134B1B68DA0703D5124B12481B689F
:1000E0009847AF26114F7600351C142E00DD1425DD
:1000F00000230F4A02E0F95CD1540133AB42FADB32
:10010000074B01221B68134205D00A4BE8B21C685A
:1001100007490023A047761B7F19002EE4D1F8BDC4
:10012000180000208C00002010590000401A002008
:10013000001A0020DC01002038B5274B2749063380
:10014000DA7F274B002A1FD000221A600023CB56EB
:10015000012B40D0234C2368DA0703D5224B2348D8
:100160001B68984722680123214D1A4205D0214A75
:10017000181C1468291C0422A047286803F0B4FC4A
:10018000164B01221A7026E0194A186892689042AC
:1001900001DA01301860097849B200291BD01B68C8
:1001A000934218DB0F4C2368DA0703D50E4B124835
:1001B0001B689847226801231A4205D00D4A181C73
:1001C00014680E490422A047094B586803F08CFCC0
:1001D000024B00221A7038BD0401002000000020EC
:1001E00028000020180000208C0000201659000074
:1001F000A0020020DC0100201D590000A402002004
:1002000008B503F0B1FC08BD08B503F09FFC08BDBC
:10021000F0B585B003F02CFC8023DB059A6C012639
:1002200032439A64FFF7F0FF284B294D9A1CD27F86
:100230009B190292DB7F2A1C03930024AC4620E02A
:10024000991C244879184900095A234D019169469F
:1002500089885800115229880198884207D81F4D73
:100260002988002588426D4169420E4000E0002641
:10027000013302E001340023A70103988342DFDB4E
:10028000403202998C42F5DB154B65461B68DA0754
:1002900003D5144B14481B68984700270EE0104BF9
:1002A0001B68D80708D5094B291C0133D87F0F4B91
:1002B00002221C680023A047013740350C49CB7F40
:1002C0009F42ECDB05B0301CF0BDC046A0170020FB
:1002D0009C120020004000409802002004020020F0
:1002E000180000208C00002022590000DC010020B2
:1002F000A2170020F0B587B0FFF78AFF364B3749C9
:100300009A1CD47F0133DD7F631E5A0152195200BB
:1003100052181E1C002103950EE0D55AD718043739
:10032000FD8701E00023181C039D01302F1A023BBA
:100330000137F2D10131403A731A0133F2D1264B21
:1003400000220133DB7F254D0293029E63019B193E
:1003500005933CE0029F4B01059EFB18890150016B
:1003600069185B00301A03915B190021049029E0A1
:10037000049F18887F0001977F18BC46184F5E883D
:100380006744861B403F0097F717F6197E40019F90
:10039000B446EE19765A861BF717F6197E40B44418
:1003A0001E1C403E3688861BF717F6197E409F1CA0
:1003B000FF8F6644C01BC717C01978403018009ED5
:1003C000023B3080039F0239BB42D1D10132A11AD6
:1003D000C0D107B00120F0BDA01700209C12002062
:1003E0007C080020F0B585B0FFF712FF03F06EFF28
:1003F00003F03EFB8023DB059A6C012422439A64C0
:10040000FFF702FF2D4B1B68234203D02C4B2D48D6
:100410001B6898472C4D0127002635E0029A9C1C4A
:1004200014196400A446294C6246145B039A5900CF
:100430005219525A141BA2B2019C6243121292B278
:100440005407E40FA446624492B26A5220490988D4
:100450008A4209D81F4909888C4664460021A24275
:10046000494149420F4000E0002701338342D5DB78
:10047000124B1B68D90705D5174B291C1C68022293
:100480000023A04701364035144CE37F9E4210DA2A
:10049000134B721C0133D87F114B92016033002142
:1004A0005C5E029208490F4A0023521A039201949B
:1004B000DCE703F027FF05B0381CF0BD1800002072
:1004C0008C000020295900007C08002000400040DA
:1004D0009018002016030020DC010020A217002045
:1004E000A01700209C120020F0B58BB0FFF790FE03
:1004F000644B654D9A1C0133DC7F0023D67F291C99
:10050000181C07E08854013200E00022A242F9DB07
:1005100001332031B342F8DB03F0AAFA8023DB0574
:100520009A6C01210A439A64FFF76EFE554B002036
:100530009A1C0133D47FDB7F544A0593A44613E011
:100540008C1C534F34196400E45BD75A01313C19B9
:100550006410D452023303E000230130191C8601D9
:10056000059CA142ECDB40326045F5DB64260127A7
:100570000596069703F07CFA8023DB059A6C01212F
:100580000A439A64FFF740FE424C3E4BE47F01333E
:100590000794DB7F2A1C08933C48002135E0991C16
:1005A000099C8C465E00A444875B039638496646E6
:1005B0007600715A7E187608BF1BFC173919D7567A
:1005C00061408F4200DAD1540399334C4652267869
:1005D0000296D656029F03960299039CF60FFF17C8
:1005E0000497A1427741069E7F423E400696013322
:1005F00004E04C1CA401002309940191089FBB4214
:10060000CDDB0199403001312032079B9942F0DB6C
:10061000059C013C0594002CACD11A4B2A1C0133DB
:10062000DC7F05990BE0D056022801DD4010D05444
:10063000013300E00023A342F5DB01312032079EA5
:10064000B142F7DB154B1B68DF0703D5144B154888
:100650001B68984700260B4F0DE0104B01221B68CA
:10066000134206D0BB18D87F0F4B291C1C680023EF
:10067000A04701362035074CE37F9E42EDDB06980C
:100680000BB0F0BDA01700201B1000209C12002012
:1006900000400040A21700209C17002018000020F6
:1006A0008C00002032590000DC01002008B5031C3A
:1006B0000F3B0020032B0FD8181C05F02FF8020564
:1006C000080BFFF78FFE07E0FFF7A2FD04E0FFF73E
:1006D0000BFF01E0FFF70EFE08BD10B50C4B012229
:1006E00030331978002300E0231C5C1C101CE4B29A
:1006F00098408142F8DA074A072113718022D20517
:100700000B401902106C044B03400B43136410BDE3
:10071000A017002028000020FFF8FFFF064B07224B
:10072000313319788023DB05186C1140034A090224
:1007300002400A431A647047A0170020FFF8FFFF29
:1007400000B5002803D04901014B8918C85600BDE7
:100750009874000000B5002804D04901034B8918A3
:10076000C85601E00E20404200BDC046987400000B
:10077000F0B5D74B8DB003909A1C0133DC7F00237A
:10078000D57FD449181C08E056008853013200E098
:100790000022A242F8DB01334031AB42F8DB039C7C
:1007A0000423002C01D1CC4B9B785BB208930B93B4
:1007B00027E1CA4B00241B7802940193C84B019D8A
:1007C0001B78019FEB180793C64B1D78C64B6E1C18
:1007D0001B780996EB187E00049301363BE0731EEC
:1007E0005B010024069313E0C04A0398AB181B5723
:1007F0000234DA0FD3185B103A1C0593FFF7A0FF01
:10080000009B0699059AC0188B18B949C0B2585474
:10081000049A61199142E7DB7301099C069313E086
:10082000B24903980B57211CDA0FD3185B103A1CFE
:100830000593FFF785FF009A06998018059AC0B2C4
:100840008B18AB4902345854049A9442E8DB029C5A
:10085000023601340294029C01996718079CA74252
:10086000BDDBA44B00241B7802940193A24B019D95
:100870001B78019FEB1807939A4B1D789A4B6E1CBF
:100880001B780996EB187E00049301363BE0731E3B
:100890005B010024069313E0944A0398AB181B579E
:1008A0000234DA0FD3185B103A1C0593FFF752FF9E
:1008B000009B0699059AC0188B188D49C0B25854F0
:1008C000049A61199142E7DB7301099C069313E0D6
:1008D000864903980B57211CDA0FD3185B103A1C7A
:1008E0000593FFF737FF009A06998018059AC0B262
:1008F0008B187F4902345854049A9442E8DB029CD6
:10090000023601340294029C01996718079CA742A1
:10091000BDDB03F0ADF88023DB059A6C01252A438B
:100920009A64FFF771FC754B1B689E0706D5744BE4
:10093000281C1C680BA92A1C2B1CA04700250FE0B3
:100940006E4B02221B68134209D0614B6D4F01337D
:10095000D87F6B4BE9011C68C9190023A0470135FA
:10096000694CE07F8542EBDB594B421E0133D97F56
:100970000B9B5201DBB24D1E01935118634B554E38
:100980004900634CC918F31A00951219049333E017
:100990006746BD01991C69185E4D49004F5B02997D
:1009A0003DB20E19023E3188A94207DA2518023DF0
:1009B00029806D462D793780D5540CE0039E002E9A
:1009C00009D0011902390E88AE4202DDD55C01352D
:1009D000D55400270F80013B023C06E0049D009B9C
:1009E0006D18844600240295081C5E1CD0D1011CA1
:1009F000604601384039203A0028EFD10B9B013B7B
:100A00000B93089C0B9F634200979F4200DBD0E64C
:100A1000039D2F4B002D1DD09A1CD07F0133DC7F0E
:100A200001383B4B42013C4D1219D2180021ED1AFE
:100A30000CE0AE18F75CD65CBE19D65400E000237B
:100A4000013B1E190136F4D10131203A431A01331A
:100A5000F5D176E0314A072510781A1C0533DE7F80
:100A60001D4B293202215B5E17782D4AED1A127850
:100A7000274B6D00D318C7199619EDB2039900934F
:100A800094460DE0E25CAA18E254013303E0009AB8
:100A900064010023141962469A18B242F2DB013154
:100AA0000C18BC42F3DB1F4B194D1878084B002182
:100AB0009A1DD77F1C4A283312781E78C7199619B9
:100AC000551994463AE0E25C0E3AE254013330E0C4
:100AD000A01700209C120020FC0100201808002014
:100AE000AC0200206D0E002007020020847400007C
:100AF00000100040060200206C0E002018000020AC
:100B0000DC01002084400040A21700207C08002067
:100B10001B1000200040004098740000C90D002008
:100B20009C020020C80D00209A02002064010023CE
:100B30002C1962469A18B242C5DB01310C18BC422E
:100B4000F4DB5D4B1B68DC0703D55C4B5C481B6822
:100B500098475C4D00265C4F0DE0574B1A68012307
:100B60001A4206D0FA18D07F584A291C14681A1C59
:100B7000A04701362035564C3B1CE47F0194A64229
:100B8000EBDB0398002802D03A1C35321078013391
:100B9000DB7F4C4E00934F4B01241A784E4B510192
:100BA0001B78551CD31889190293089500230791C7
:100BB00034E05D0000219C4611E0484FD3195B569C
:100BC000DF0FFF18079B7F101E1C66444B01F65C6D
:100BD0006B01DF193618424BF6B2FE540231029E09
:100BE0008B18B342E9DB670108993C4D04970FE08D
:100BF0006B56344FDE0FF6183B1C63444F01DB5D30
:100C0000049F7610BE191B18354FDBB2F355023125
:100C1000029B9942ECDB634601330234009DAB42F8
:100C2000C7DB039E002E44D0274B48331B785BB2B2
:100C3000012B3ED1274B40B21B78002B15D1274A00
:100C400040101278C0B252B2D10F8A1852101D4C07
:100C5000234906E0E65C9D018619F6B2AD186E5494
:100C60000133009FBB42F5DB23E0019A1D49013AA5
:100C70004010C0B2114004D5022301395B42194330
:100C80000131104C56010023144D341994460DE0E7
:100C90006646AA574E01D70FBF18E25C7F10F719BE
:100CA00082180F4ED2B2BA5501330231009FBB42B7
:100CB000EEDB0DB0F0BDC046180000208C00002017
:100CC0003C5900001B100020A0170020DC01002070
:100CD000A21700206D0E002007020020847400007F
:100CE000001000400100008038B52B4A01232B4C36
:100CF000126800280CD01A4203D0294B29481B68DF
:100D00009847231C323303211970333401230BE03D
:100D10001A4203D0224B24481B689847231C3233C5
:100D20000221197033340323204A2370101C3230FF
:100D3000333201701370194A0721131C32331878AB
:100D40001B4B08401C681B494005214001431960AA
:100D500019688024E405A068A160111C333108786B
:100D600003211D680840144980042940014319608B
:100D70001B68A168A360D07BFFF7FAFC02F078FE45
:100D8000A36C01221343A364FFF73EFA03F0CCFFE8
:100D90000A4B1B68984738BD18000020A017002098
:100DA0008C0000204259000048590000B002002089
:100DB000CC010020FFFF1FFFFFFFF3FFBC0100205D
:100DC000F7B502F0F1FCCE4B187004F053FB002095
:100DD00005F01EFBCB4FCC4C6422201CCB4904F009
:100DE00061FDCB4B1A78002A2ED000221A7004F035
:100DF000CDFBC84B1B689847012005F009FB03F0A9
:100E0000C1F9E07BFFF7B4FC00F08CFB02F030FE90
:100E10008023DB059A6C012422439A64FFF7F4F9DE
:100E200000F080FBBC4B1B68234203D0BB4BBC488B
:100E30001B68984700F0D6FA03F076FF002002F016
:100E40003FFEB84B1B689847AF4BDB7C012B17D19B
:100E5000B54AB14C1268002A09D022681A4203D060
:100E6000AE4BB2481B689847FFF732F9FEE723689C
:100E70009A0005D5FFF72CF92268AD4B134023608B
:100E8000AC4D2E7874B2132C00D976E2201C04F0FD
:100E90004FFC1E0074022B01740274022B0193019B
:100EA000740274027402EF01F601F9011400D90111
:100EB000DF01DF01DF01DF016A02934B9E4C463305
:100EC0001D7800231A1C191C9C48AC46F4E18E4B7B
:100ED000DB7C012B6ED1904C802523682D052B42A5
:100EE00068D023682B4203D08C4B95481B689847E9
:100EF00023682B4206D0934B01201C6892490222A2
:100F0000031CA047844D2B681A0106D58D4B012088
:100F10001C688E490222031CA0472B681D0106D5C0
:100F2000884B01201C688A490222031CA0477A4D85
:100F30002B681A0106D5834B01201C6885490222C3
:100F4000031CA04780242B682405234203D0734B45
:100F500081481B689847704D2B68234206D0794B17
:100F600001201C687D490222031CA0472B681D013B
:100F700006D5744B01201C687949021C0023A04748
:100F8000654D2B681A0106D56E4B01201C6875490A
:100F90000222031CA0472B681D0106D5694B0120C6
:100FA0001C687149021C0023A0475B4B6F4A1968FB
:100FB0000A401A60FFF7C0F802F088FD6C4B1B680E
:100FC0009847554B1B68DA0414D56A4A6A4B0420CB
:100FD0001A606A4B1968014319601968022081433D
:100FE00019601968012001431960654B00211960DF
:100FF000644B1A6002F07EFD634B1B68984702F059
:1010000037FD404C0022631DDA77604B1B68984720
:1010100003F0D6FE5E4B1B68984704F0B1F800F071
:10102000F9FA5C4B1B68984702F030FD02F038FD7E
:10103000594B1B78002B01D104F0FAF8574B1B6871
:101040009847631DDB7F002B03D100F051FB00F0BC
:101050000DFF0534E37F002B3DD1514B80251B68EC
:10106000984701F0E0F84F4B6D011B68984701F07D
:101070000FFC01F02BFD4C4B1B689847264C236856
:101080002B4223D03E4B3B481B68C01A474B9A78F3
:1010900019780132904004F055FB3A4B18602368F0
:1010A0002B4203D01D4B42481B6898471A4B1B68C4
:1010B000DD0406D5234B01201C683249042200239D
:1010C000A0472E4B01211A688A431A60394B1B68CE
:1010D000984701F0C1FE8023DB059A6C01210A4389
:1010E0009A64FFF78DF848E10120FFF741FB052CDA
:1010F00000D0C4E0FFF776F902F0FEFBBFE0C04687
:101100001C00002004010020A0170020B0020020D5
:101110002500002094010020180000208C000020F1
:101120004F590000BC010020401A00205659000011
:10113000FFFFFFDF3C010020041800201C080020F6
:1011400066590000DC010020FC010020FE010020A7
:1011500000020020020200206E590000BC0D002099
:10116000F4170020B80D0020F3170020FFFFFFF751
:1011700098010020FFFFFF0014E000E010E000E015
:1011800018E000E0D8010020AC010020A4010020FC
:10119000A0010020C0010020D8000020B8010020DC
:1011A0009C010020B40100208C01002014100020BC
:1011B000765900007C00002002F05AFC704B1B683E
:1011C000984703F0FDFD6F4B1B68984703F0D8FF6D
:1011D00000F020FA6C4B1B68984702F057FC02F0B5
:1011E0005FFC6A4B1B78002B01D104F021F804F05E
:1011F000B7F8674D0123EB77664B1B689847EB7F89
:10120000002B03D100F074FA00F030FE7B1DDB7F71
:10121000002B0BD1604B1B68984701F004F85F4B23
:101220001B68984701F034FB01F016FE8023DB05B4
:101230009A6C01210A439A64FEF7E2FF584B13228D
:101240001A709AE0574B1B6898470F232B7094E055
:10125000201CFFF72BFA544C207002F04DFB534B2F
:1012600001221A70524B13221C604D4B1A7084E0FD
:10127000504B1878FFF738FD00232B707DE01323C7
:101280002B707AE04C4B5B785BB20C2B75D04B4AE1
:101290000823D3744A4AD37404F078F9494B1B6885
:1012A0009847012005F0B4F802F082FB65E01D19B3
:1012B00069871D186987013202336245F7DB424AAC
:1012C000012013688343136011688023DB059C6849
:1012D000996011680224A143116011689C689960AB
:1012E00011680824A143116011689C689960116815
:1012F0000424A143116011689C68996033498024DB
:101300000D68844025430D6009680191A021C9053D
:101310008D68019D8D601D688021490529431960F4
:1013200015682B492940116011689D6899601D68F6
:101330008021490429431960C046C046C046C046C2
:1013400062B624491D682940196011680C43146075
:10135000126899689A60BFF36F8F114B00221A7060
:101360001D4B187009E002F083FB8023DB059A6CAB
:1013700001210A439A64FEF747FF0F4B5E702AE58E
:10138000A4010020A0010020C0010020D8000020FE
:1013900009010020B80100209C010020B4010020B8
:1013A0003C010020A8010020E4010020E50100200C
:1013B000E80100203D01002000000020B0020020D4
:1013C000A017002094010020CC010020D4010020AF
:1013D000FFFEFFFFFFFFFFFE2500002049434043C3
:1013E00040187047F0B54B4B87B05A1CD17F1A1C80
:1013F00047321278484C52B20292013A504242416E
:101400008A1A049222609A1CD57F1A1C48321278DC
:1014100052B2171C013F03927A425741029AEF1BC6
:101420006760012A02D10023238106E04C330022A9
:10143000985E490004F0D4F92081039B364C012BBF
:1014400002D10023638107E0324B4A330021585E0A
:10145000690004F0C5F960812E4E7F00331C4A33C9
:1014600000229D5E391C6B005B19181C05930197C7
:1014700004F0B6F94043284C4000E060A800019910
:10148000401904F0ADF94043331C400020614C3357
:1014900000215F5E029978004B424B41049AC019CB
:1014A0005843510004F09CF90399059A6061484241
:1014B00048415043019904F093F9331CA061503323
:1014C0001B78002B02D1E561276201E0E76125620C
:1014D000124B5D68002D1BDD9F6868007843642116
:1014E00004F07EF94C360023F45E011C201C04F04D
:1014F00077F90B4CC6B26421281C26707843494208
:1015000004F06EF9C719FFB205366770A670E77070
:1015100007B0F0BDA0170020A40D00207C0D002016
:1015200030000020F0B5254B87B09A1C0133DB7FDB
:10153000D67FD91C721C0233039305920023204AE4
:101540000491181C059CE51AEF010197BC5AB8528A
:10155000049CAD0129194F00BC5A1A4CB8520027FF
:101560002F550F550199184F0133CF19029739881C
:10157000388003996F1879000191895A019988522E
:1015800012496D18002129703955F71A0C4D013791
:10159000D8DA00220136039B111CB60158002F5ADD
:1015A0002A52F0184700EC5BEA53064FF954013B0E
:1015B0003954012BF2D107B0F0BDC046A01700206E
:1015C0000040004000200040024000400120004058
:1015D000F7B50E4B9A1CD17F0133DE7F481C0136D4
:1015E00000230190019C321CE71ABF01951CAC46F8
:1015F000BC44074C00256046013A0555501CF5DAFD
:101600000133CA1A0132EDDAF7BDC046A017002037
:101610000020004000B50F4A0F49131C5C331B78B3
:10162000896838324B4312789B1152B2934200DAE8
:10163000131C0A4A9BB213808022D2051B059069B5
:101640001909074B03400B439361024BDA6B054BBF
:101650001A6000BDA017002004010020A00D00208A
:10166000FFFF00F00802002070B501320233920142
:10167000D2181B4BD35C5BB21F2B30D00F2B00DD7D
:101680000F3B98422BD0002B29DD051C1C1C154A52
:101690002B352B3464006D00551912190226945F06
:1016A0000226AA5FA24200DD221C0F4C39342478A6
:1016B00062439211914212DD834202DD021C181C2A
:1016C000131C0A4A115C002904D04CB29C4203DD71
:1016D000DBB21355135402E09C4200DAD15470BDC2
:1016E000002000400C020020A01700204001002034
:1016F000F0B5B54D80232A68DB0193B01A4226D09D
:101700002A681A4200D0A0E3B04C2123E35C002BEE
:101710001DD0AF4E002705E0AC4C2123E35C013720
:10172000BB4214DD80202B68C0010342F4D0A74CDB
:10173000A84AF9012023E05C8918346801230222B9
:10174000A047A24C2123E35C0137BB42EADCA2495B
:10175000A24B086849681C1C1E1C2E3438303831D6
:101760001E3E002200251A80257002600A60DA837E
:10177000023B013C04380439B342F4D1984B0020B9
:10178000191C10391870013B00228B42FAD1954E7A
:10179000954FB068F1680130089001399348029183
:1017A00033687568882142503A613A600899029A14
:1017B000029C0133013DB160F26033607560A1426B
:1017C00000DA40E300278A4CBC4601930F1C0198C5
:1017D000A8420DDB781C019B80019A1C8218115DC8
:1017E000013B49B20F2901DD614611559D42F4DDEF
:1017F000029A013FBA42EADD7B4977488A687D490F
:1018000040680027CC5F7449D2100968019B069498
:101810000A900B910D92022A00DA1BE3724A746857
:10182000126803947049714C04928822F7683068FA
:101830000969A25810971190059109929D4200DD07
:10184000B7E0089A089901320231920189010292A7
:101850000E9138E0099C8C4200DA09910A9C089F9D
:101860008500019557436519141C5C430F97079435
:101870002F680F9CBC46271C67442F60019C0B9F60
:101880003D192F68079CBC46A4440F1C64462C607D
:101890001B37564D7F00EF19BD88544C5519201841
:1018A0007830BD8005782B3101354900057061180D
:1018B0000225485F824202DD6F463F8E4F800398CB
:1018C000013B984275DC029F9D1C791948484A4F9C
:1018D0004A00095CD45B68460486A2B2069C49B201
:1018E000A24205DB059F04980137801805970490F4
:1018F000481E0E28AED90029E1D10D988242DEDDC6
:1019000008995F1C89013A4C0791C919095D121A9F
:1019100049B2481E0192009000220E2832D8029A45
:1019200080008446019C5019089A54430C94304C12
:101930001F2202550A9C221C019C62445C431068D1
:101940000F940C9C001910600B981B22041C64441B
:101950005218206894460F9A801820606246234CE3
:10196000520022489446221C62448446009894887F
:1019700084440198241860467830948004780A1CC6
:1019800001340470029C1A48E1190C5C61B2481ED3
:1019900000900E2867D8002A30D08A4263D002997E
:1019A0000F34134AE4B24D19AC540398013B9842EA
:1019B00089DD0899109A013908918A4200DDD2E147
:1019C000039D119B3AE7C04618000020A017002095
:1019D000DC0100208440004004000020640200205C
:1019E0004F010020D4180020040100200C02002028
:1019F00000200040A00D002000400040009C019A03
:101A0000A400A446089C029862430C92E34A401941
:101A10001F248454019C0A985C43021C6244106891
:101A20000F940C9C001910600B981B24021C62443C
:101A300064181068A4460F9C001910606046D84ACC
:101A400040008446141C6444A08884460098121800
:101A50000C92019A0C98944462467830A2800478E3
:101A60000A1C611C01700E9CCC48E7193C5C61B2F9
:101A7000481E0E2804D8002A00D1BCE08A428ED12C
:101A80000798C64F4119CC5D61B2481E0E2837D861
:101A9000002A07D08A4233D002980F34E4B24519A5
:101AA000EC550CE782000F92019F089A029C574365
:101AB000BC46BA4F64191F22E2550A9C0F9FE219D7
:101AC000019C17685C430C943C1C644414600F9F99
:101AD0000B9CE21914680F1CA4460C9C1B37A444F1
:101AE0007C0067461760AE4AAD4F1419A2883818BB
:101AF000019F7830D219A28004780A1C611C017001
:101B00000E98A64F4119CC5D61B2481E0E2804D82C
:101B1000002A00D19EE08A42BED10798DF1CC1197D
:101B20009E480C5C61B2481E0F900E2805D8002A12
:101B300000D1BEE08A4200D031E7029CE119974C07
:101B4000085D41B24C1E0F940E2C3FD8002A08D0DD
:101B50008A423BD0029F0F309049C0B27D19685431
:101B6000ADE60F9A019892009446089A029C504361
:101B700007908A4864191F222254019A0A9C5A43EA
:101B8000201C604404680C92079AA41804600B9C03
:101B90001B22201C60445218046894460C9AA41816
:101BA000046064467E486400A446021C6244948833
:101BB000A4460F9C001907900198079C8444604636
:101BC0007834908020780A1C411C21700E9CE11909
:101BD000724FC95D48B2441E0E2C00D96FE6002A30
:101BE00000D19BE0824200D169E602980F31C9B270
:101BF0004519E95563E684000F94019A089C029FF9
:101C000062439446654A7F191F24BC540A9F0F9C67
:101C10003A19019F5F430C9717683C1C6444146099
:101C20000F9F0B9CE21914680F1CA4460C9C1B37D9
:101C3000A4447C0067461760594A594F1419A2887A
:101C40003818019F7830D219A28004780A1C611CD0
:101C5000017015E782000F92019F089A029C57437A
:101C6000BC464E4F64191F22E2550A9C0F9FE21991
:101C7000019C17685C430C943C1C644414600F9FE7
:101C80000B9CE21914680F1CA4460C9C1B37A4443F
:101C90007C0067461760424A414F1419A2883818E1
:101CA000019F7830D219A28004780A1C611C01704F
:101CB00033E70F9C029AA400A4465019019C089A8D
:101CC00054430794354C1F220255019A0A985A43EF
:101CD000041C644420680C92079A801820600B98BA
:101CE0001B22041C64445218206894460C9A8018E5
:101CF000206062462A4C520029489446221C6244C5
:101D000084460F989488844401982418604678305B
:101D1000948004780A1C611C01700EE70299019AF4
:101D20004D190899A7004A4394461C4A1F21A954FB
:101D30000A9A019DD1190A685D4362440A600B99B1
:101D40001B30CA191168400049191160144A144D1A
:101D500010188288019F2C19D21978348280227839
:101D600001322270ABE5099A0D4988230D4FB46802
:101D7000059D0498CA50109B06943D613860A342AB
:101D800061DC069C35687368013C0594AB4255DC08
:101D9000069F0137BC010497039409E0002000402E
:101DA0000C0200200401002073683D1CBB4245DC8E
:101DB000039FAA1C2948BA18135C6F1E5BB2191C3A
:101DC00010390E29F0D826495200525A0F3B181CE0
:101DD000111C019302923B1C059AFFF745FC6C1CF9
:101DE0002B1C01980299059AFFF73EFC0198029975
:101DF000059A231CFFF738FC01980299069A3B1CB0
:101E0000FFF732FC01980299069A231CFFF72CFC7D
:101E100001980299049A3B1CFFF726FC2B1C0198A1
:101E20000299049AFFF720FC231C01980299049A56
:101E3000FFF71AFC73683D1CBB42B9DD059CF368D3
:101E40000694A3429DDD13B0F0BD064B06481B6807
:101E5000984759E402220D92E0E4C0460020004079
:101E6000004000408C00002098590000F0B5CA4B9B
:101E7000CA4958681B6889B004930B1C88331B68D7
:101E80000290C74801930E220023C356002B41D075
:101E900000E063B2C34DEC5C002CFAD10370002B60
:101EA00038D05E1E029CB70005969500E619039790
:101EB000645937680094BC46271C67443760039C0C
:101EC000049F2B333E19049C376865595B007F19CA
:101ED00055006D1837602E1C5A36CB1802241F5F30
:101EE0003688BC4637B2BC4500DA5E80059BAD8FB4
:101EF0001C335B00CB189E887619059D9E804C197B
:101F00008B187834783325781B78019EEB18013EC6
:101F1000237001960138013AB6D2A04BA24A019F24
:101F2000883311681F601023194208D19A4B9B49CE
:101F300060CB00231C1C1A1C181C039331E0126890
:101F40001A4203D0994B9A481B6898470025994E2E
:101F500022E070686F1C33688446974ABF01914C39
:101F600008E0991C7918885C40B2205C002800D0F9
:101F70008854013B6345F4DA8B4B1B68D9060AD5BC
:101F80008E4B8F4A0133A901D87F8E4B89180122CD
:101F90001C68131CA04701358B4CE37F9D42D8DBA6
:101FA000C4E7804F01303B56002B26D137599300B0
:101FB000F7502F59EF50039B5A275B18BC469C449F
:101FC00002932C2763461B88BF187F000193BC46F1
:101FD0006B469F888C4463465F80171C029B1C37AE
:101FE0009B8F7F00CF19BB80471877373F78BC465F
:101FF0008F18783763463B700132039B04340233F9
:1020000003930F28CDD1654C7049231C88331B687E
:102010006A4A04934D89131C05954A331B888D69C0
:102020001EB201964F68AEB29B1B069702969BB2FA
:10203000543212780793584B03925E68002728E0C9
:1020400001CE0199069B48433C22A15E594303F00F
:10205000C7FB05995E4A0818137880B22080052BCB
:1020600015D000B2A84207DA039B401B58430299DF
:102070008011081820800AE0019A101AA84206DA96
:10208000039B401B584307998011081A2080013791
:102090000234049A9742D3DB404C4C49231C8833CA
:1020A0001B68464A04930D89131C05954C331B8805
:1020B0004D691EB201960F68AEB29B1B0697029641
:1020C0009BB2533212780793334B03921E681E342F
:1020D000002728E001CE0199069B48431E22A15EFD
:1020E000594303F07DFB0599394A0818137880B2EB
:1020F0002080052B15D000B2A84207DA039B401BB5
:10210000584302998011081820800AE0019A101A99
:10211000A84206DA039B401B584307998011081A0E
:10212000208001370234049A9742D3DB1B4C231CD6
:1021300088331D68214BAC461A1C4E3217781A1C86
:102140004A320020165E1A1C4F32127801921A1C75
:102150004C320025515F503302911B780496039353
:1021600000231D1C3AE01A193C26915F002933D048
:102170000021505E1E26915F002F01D0049E301A70
:10218000019E002E01D0029E711A039E002E21D0C6
:10219000E152D08320E0C046040000200C02002061
:1021A0004F01002040010020180000208C0000207A
:1021B00083590000D418002000200040A017002000
:1021C00042200040DC010020A2170020A40D0020C6
:1021D00024000020E052D183013502336545C2DB83
:1021E00009B0F0BD70B50D4B002246331D78111CAF
:1021F000131C0B4C0AE0601878300370A01843875A
:102200008383861E58303380013103800232A94215
:10221000F1DB88340023236070BDC046A017002086
:10222000041800207047F0B5D74B95B05B68D74ACB
:102230000793D74B46331D7800231C1C181C06E05F
:10224000590051188C87D11878310870013300215A
:10225000AB42F5DB883211600B1CCE4ACE4CCF4925
:10226000FF20E054013302C20F2BFAD1C84B0026E5
:1022700046331B78CA4C0493CA4B01961B690593DD
:10228000C94B88331B680693C04B88331D68DEE05A
:10229000C64833183C215B5E002B00D1D2E0276892
:1022A000059A3F01FF230020BF18039302901DE011
:1022B0000299BD4A4B009B183C201A5E002A12D09E
:1022C000BB49188872181188DB8B401AD18B00B279
:1022D000591A09B2FFF782F8B84204DA6A460823AD
:1022E0009A5C071C0392029B0133029302980699A1
:1022F0008842DDDB6A460C208356591C00D1A1E0E0
:10230000A54AD2560392013263D0A249980042589E
:102310000290BA4200DC95E003989C4A4000844653
:1023200061460020885203980C3040008018844693
:1023300061460020C88003981C3040008018844605
:102340006146002088800399501878300021017080
:10235000039900202C31490051184880B11803918D
:1023600091495800415A039801800C20C0188E49A9
:10237000400084468C446046C0880399C8831C2171
:10238000C918894849008C46844461468988039865
:10239000818785487821C01884468C44019960461D
:1023A00000788A1878321070039A7F4894465A222F
:1023B00094441A1C2C32520081184A8861460A80C3
:1023C0007448029A6946276017500A797249CA54BC
:1023D00038E06E48744A301803905900885A0399BF
:1023E000013508800C21C91849008C469444604688
:1023F000C0880399C8831C21C91849008C4694449D
:102400006046808803998887D1188C467820844458
:102410006146097801988C465C49401802906146F3
:1024200078300170181C2C30400012180399528823
:102430005A310A80574A99008F506A461079564A95
:102440002760D05401990236013101910434019A78
:10245000049B9A4200DA1BE74C4A0024131C883381
:102460001D60514B191C8831096809914849463152
:102470000978019405914F4909680A91D0E0464BCB
:10248000019E9B57013300D0C6E0474BE718BE8F33
:102490000296002E19D1BFE03C4873001B183C2166
:1024A0005A5E002A0FD0404AD98B105B1A88801AD6
:1024B000FA8B00B2511A09B2FEF790FF0A9B9842BC
:1024C00001DAF0B20390013602E0FF2603960026FF
:1024D00005988642E0DB69460C225656731C00D1F3
:1024E00095E0331C294A08201C33405E5B00D3185A
:1024F0000290069304201B5E02992B48C91803938F
:102500000491035F029972004B4320490892505E88
:10251000039A04995043181803F062F9089B1B4969
:10252000321C58520C321E203B5E18485200029951
:10253000821802924B430621505E039A049950433D
:10254000181803F04DF9029B1021D880321C684600
:10255000095A0E4B06982C32520081805A379A182D
:102560003988538808B21FB2874200DA0B1C5380A7
:102570000648019A0C4986198B18783678333278D8
:102580001B78D318337047E07C0D0020041800201E
:10259000A01700205001002040010020FFFFFF7F16
:1025A000DC000020A40D00200C0200201C080020EC
:1025B000CC0D002008020020580081183C26895FBD
:1025C000002922D1A949AA4A0E5B01358652181C5E
:1025D0000C30FE8B40001018C680181C1C304000C8
:1025E0008018844608266846365A60468680019ED2
:1025F0005A37891978310878D1182C335B00D318F1
:102600003A88783108705A8006E0013301E0994A2F
:102610000023059EB342CFDB019E023401360196B2
:10262000019E0998864200DA29E7914B924C883343
:102630001D60924B03211A1C463217781A1D7E1E0C
:1026400002962678403305967608089666780996AD
:10265000D28F0A921E78B0080C90301C03F072F8EA
:10266000A178E4784A08C0B2854B0E920D9006918D
:102670000F94DC8F834B301CDB690621109303F031
:1026800061F8C0B211900521301C03F05BF8C0B2B4
:102690003E1C12902B3776487F001B363F1802995C
:1026A00002377600784B22B2361801978F00043635
:1026B000FF1813920024CFE033880393002B00D13E
:1026C000C2E002986B4943005B183C229B5E002BE2
:1026D00053DC079B002B2DDD331C1E3B1B880C217C
:1026E0006846085E6A46049310230B90985E089B28
:1026F0000599C01803F074F80B9980B24843099902
:1027000003F06EF8039A6B46801880B2049A039027
:102710000C21C85A5A3A5D4B92B230809A4209D97C
:1027200000B20A216D2802DD03F05AF881B2039A43
:1027300089183180684628210023F25E0B5E9A4298
:1027400000DA7CE04A4B0298079A1B187833002A7B
:1027500051DC1A78072A77D901990C980023CB5EAF
:1027600083426CDB0A2A6FD90D9A93426CDA019B83
:102770003480013D1C803C6066E0079800282EDD17
:10278000331C0C221E3B6946515E1B880B9104933F
:1027900010216B46C85E0E994018069903F020F888
:1027A0000B9A80B250430F9903F01AF8039B0C2246
:1027B000C01880B203906946505A049A8723643A3D
:1027C00092B23080DB009A4209D900B20A216D280A
:1027D00002DD03F005F881B2039BC91831800020A7
:1027E000335E13998B421FDB079B002B0CDD204BC4
:1027F00002981B1878331B780F2B25D901990023D9
:10280000CB5E182B20DC0FE0109B002B1CD018484F
:102810000299431878331A780A2A15D90198119920
:102820000023C35E8B4205DA019A3480013D148097
:102830003C6009E00E2A07D91298834204DA019914
:102840003480013D0C803C60029A019B013A023BBE
:102850000292023E0193043F0298013000D02BE720
:10286000034B15B088331D60F0BDC0460C0200203C
:10287000041800201C08002030000020A0170020B1
:10288000A61700207C0D0020DC0000204C04000076
:10289000F0B5844B8DB09968192904DD081C1238F5
:1028A0000A3902F091FD804BFF2746331B780197D0
:1028B00005930023191C03971E1C1D1C12E07B4F5F
:1028C000FA18783212780FB25519ADB2974204DA7D
:1028D000764F59007918898F0190944201DA161CBD
:1028E00003900133059F98B234B2BB42E7DB704BD3
:1028F000DB69002B71D06D4B88331B680293012B71
:102900006BDD201C032102F06BFF674B07B20797BA
:1029100040331B7868465A00D3185B100893A30015
:102920001B190993B3009E190423C35E373EB6B248
:102930001C330A965B000026371C0B9346E05B496C
:10294000079ACB1978331B780493934214DB042B3A
:1029500012D98B193C21585E089A069090420BDBE5
:1029600052480B9943180422985E062102F038FF62
:10297000069B00B2834227DA68460C210A5E4B4B65
:102980005200D15E9A5F8A1AD11752184A4092B209
:10299000191C1923102C04DD09980A9BAE2800DDB0
:1029A000782312B21BB29A420EDA049A8919AD1A30
:1029B00000228A873F4B5A310A80B900CB181A602F
:1029C000029BADB2013B0293013702360598874264
:1029D000B5DB364B029F88331F600C216846085CCC
:1029E0006946354B097918715971314BD9691A1CEF
:1029F00000290ED029B23C2906DC232C04DC2B490B
:102A000088310968022902DD0123136001E00022F8
:102A10001A60264B88331B68452C01DD012B0ED034
:102A2000022B10D1204A29B25D321278CE17D00F76
:102A300091424641F2B2002A07D0402C05DD1E4BE0
:102A400001229A7115E0012B0FDD174A2DB25D327C
:102A50001278E817D10F95424841C2B2002A04D03B
:102A6000312C02DD144A01219171002B01D1124A4F
:102A70009371114B114A997912680123002908D0EA
:102A80001A4203D00E4B0F481B689847FFF7AAFB6A
:102A900005E01A4203D00A4B0B481B6898470DB05B
:102AA000F0BDC04604010020A0170020041800203B
:102AB0007C0D0020DC0000203000002018000020E9
:102AC0008C0000208B59000093590000F0B5CB4ECC
:102AD0000027331C88331F60C94BA1B00633DF7752
:102AE000C84B351C191C463109789A1D1B91D28F91
:102AF000C54C510010B289B21A1C1D901C915A325B
:102B000012781E350C921A1C56320020115E1A1CC7
:102B10000A9158320020115E0B91491013915121F6
:102B2000595652338AB21492B84AD069126A411A7D
:102B3000169116A800881E901B7802975BB299B276
:102B4000D31A189318AA1288331C3C3317911F927A
:102B500003931997069705970497079769E10398D8
:102B60000388002B06D01D991BB25B1A1C9A5B10C0
:102B7000D318038003990022895E0891002908D0A8
:102B800023680C99012019908B4204DA1B182360EA
:102B900001E0089A226023680C98834205D163689B
:102BA000012B04DC0133636001E000216160626895
:102BB000002A00D1D7E00823E35695480D9303334C
:102BC000034004D50220013B4042034301335BB282
:102BD0000993A360012A1BD102990E224A43099846
:102BE000894B1218101D4000191830888880101C5D
:102BF000298808304000C15203990C3209885200DC
:102C0000D1527E4A02991B188A18783212789A801B
:102C10006368012B00DCA6E00023F25E02980192BB
:102C20000E2250430D9A784B81180A1D52001A90BB
:102C30009A180423D05E019A0090121A00202B5E8D
:102C4000081C94460830704A06934000825E069B3A
:102C50000D929A1A07926246D317D2185A400492DC
:102C6000079A0C31D317D2185A409446049A490057
:102C7000131C6344644A04938A5E089B0E92991A5B
:102C8000CB17CA185A4011925C49029A5E4B5118F0
:102C90007831097818180F910422815E0F9B1091EA
:102CA000591ACA1788185040159004980A9B0A9A16
:102CB0001B1859100593009B12915A43031C01984D
:102CC0004343D2185018059902F08AFD80B2069A43
:102CD0000D9907900A9B04984B4350431818129B78
:102CE0000599C01802F07CFD80B2119A04900B98EF
:102CF0008118031C0E984343101C089A50431B185C
:102D00004810181802F06CFD80B2139B109A0690C0
:102D10001598191853430F9A50431B184810181848
:102D200002F05EFD80B2099905901A9843181A1DA9
:102D300035485200821869461C20415A68469180E5
:102D40001A1C1021095A08322F48520011526846A5
:102D50001821095A0C332C485B00195282186B4613
:102D60001420C35A93806368022B16D11C21684635
:102D7000085A10226946515A18236A469B5A039AE8
:102D800030802980029813801C4B69461422C31896
:102D9000515C78330137197013E0002B0DD1236893
:102DA000002B0AD1039A338002982B801380134A98
:102DB000AB8782187832137003E0012303995B42DA
:102DC0000B8014A80022B35E0022825E934203DCD3
:102DD00014A90988318005E0169A934202DB1EABE4
:102DE0001B88338017A900202B5E00228A5E934245
:102DF00010DC17AA12882A8012E0C04604180020AE
:102E000004010020A0170020E8180020A40D0020D5
:102E1000010000801898834202DB1FA909882980DD
:102E2000029A039B01320233029202350236039367
:102E30001C3402981B99884200DA90E6044B19AAC8
:102E400012780633DA77034B21B088331F60F0BD68
:102E50000401002004180020F0B5394B85B01A1C7D
:102E6000463212785B3303921B7836490293002373
:102E70001D1C58E03448C2183C24165F0888002EF8
:102E800020D0324EF61801963C24345F002C19D025
:102E9000019C6E462488FF1801940424365FB446D2
:102EA0000024165F6446A61B019C761036193E80EE
:102EB00006B2B4461E24165F6446A61B761036186A
:102EC000FE8304E0214CFF18E65AF8833E801F4E33
:102ED0006C469E19B78F368801971D4FFF18BC4668
:102EE000A7886446A787184CE45E37B2E71BFC1737
:102EF0003F196740029CA7420CDC1E24175FBC46AA
:102F000000240F5F6446E71BFC173F196740029CD3
:102F1000A74202DD0C4FFE52D083684680880135FF
:102F2000908702330231039A094F9542A2DB074B87
:102F3000054C88331B6805B0FB65E365F0BDC046F2
:102F4000A0170020221800201C08002004180020D0
:102F5000CC0D0020EFF30880704700BA704740BAEC
:102F60007047C0BA70471F234209184001238340AD
:102F7000181C024B9200D0507047C04600E100E0A0
:102F80001F234209184001238340181C2032024BA2
:102F90009200D0507047C04600E100E01F23420974
:102FA000184001238340181C6032024B9200D0501D
:102FB0007047C04600E100E070B5002816DAC0B2E4
:102FC0000F230340083B134A9B089B009B180322D6
:102FD00010409040FF225D68141C84408901A54385
:102FE0000A408240281C1043586011E003248208E4
:102FF000094B2040C032A0409200FF24D558261C27
:1030000086408901B5430C408440281C2043D050A1
:1030100070BDC04618ED00E000E100E0034B012266
:103020001A7080230022DB051A7070470D00002003
:1030300000B5104B01225A708023DB0559690E4AF6
:103040000A405A6159690D4A0A405A610C4A12787D
:10305000002A0DD00B4A11685A690902120E090A9A
:1030600012060A435A615969802252040A435A617E
:1030700000BDC0460D000020FFFFFFFEFFFFFFEF79
:1030800079000020C401002038B5A023DB059D682D
:103090000F242C402D022D0EE30705D5281C01F02E
:1030A0001FFA1F4B1B68984708231C4204D001F0ED
:1030B00009FA1B4B1B689847A3070FD5194B9B7840
:1030C000082B01D0012B01D1174B03E0281C01F084
:1030D00007FA164B1B68984701F0EEF9630704D511
:1030E000124B1B68984701F0EDF90E4B01219C70C3
:1030F0000F4B1A680A431A601968A022D20590681B
:1031000091601868102108431860186894689060EE
:103110001868884318601B689168936038BDC04682
:10312000840000200D000020880000208000002086
:10313000D4010020034B0122DA7080230022DB053A
:103140005A7070470D00002008B500F055F8014B8B
:10315000187108BD0D000020084B402219687F201F
:103160004906490E11431A6882430A431A601A68D5
:103170008023DB0519691A617047C046D001002021
:10318000074B3F2219687F2011401A6882430A4387
:103190001A601A688023DB0519691A617047C046F6
:1031A000D0010020074B084A196818688904890E65
:1031B000090202400A431A601A688023DB05196974
:1031C0001A617047D0010020FF80FFFF084B4022AA
:1031D000196818684904490E1143064A0902024059
:1031E0000A431A601A688023DB0519691A6170475F
:1031F000D0010020FF80FFFF8023DB05186C40001A
:10320000C00F7047084B202219687F204906490EDD
:1032100011431A6882430A431A601A688023DB0547
:1032200019691A617047C046D0010020074B5F2220
:1032300019687F2011401A6882430A431A601A688D
:103240008023DB0519691A617047C046D001002050
:10325000074BBE211A68C90118681140054A02408F
:103260000A431A601A688023DB0519691A617047DE
:10327000D0010020FF80FFFF084B2022196818684A
:103280004904490E1143064A090202400A431A60E2
:103290001A688023DB0519691A617047D001002084
:1032A000FF80FFFF8023DB05186C8000C00F704794
:1032B000084B102219687F204906490E11431A68ED
:1032C00082430A431A601A688023DB0519691A6170
:1032D0007047C046D0010020074B6F2219687F203D
:1032E00011401A6882430A431A601A688023DB057A
:1032F00019691A617047C046D001002000B50B4B18
:103300001968002804D04906490E1022114301E033
:103310006F2211401A687F2082430A431A601A689C
:103320008023DB0519691A6100BDC046D001002069
:10333000074BDE211A68C90118681140054A02408E
:103340000A431A601A688023DB0519691A617047FD
:10335000D0010020FF80FFFF084B10221968186879
:103360004904490E1143064A090202400A431A6001
:103370001A688023DB0519691A617047D0010020A3
:10338000FF80FFFF8023DB05186CC000C00F704773
:10339000084B012219687F204906490E11431A681B
:1033A00082430A431A601A688023DB0519691A618F
:1033B0007047C046D0010020074B7E2219687F204D
:1033C00011401A6882430A431A601A688023DB0599
:1033D00019691A617047C046D0010020074BFC21D3
:1033E0001A68C90118681140054A02400A431A6068
:1033F0001A688023DB0519691A617047D001002023
:10340000FF80FFFF084B0122196818684904490E24
:103410001143064A090202400A431A601A688023CF
:10342000DB0519691A617047D0010020FF80FFFF9A
:103430008023DB05186CC001C00F7047084B0222C7
:1034400019687F204906490E11431A6882430A43CE
:103450001A601A688023DB0519691A617047C04633
:10346000D0010020074B7D2219687F2011401A6887
:1034700082430A431A601A688023DB0519691A61BE
:103480007047C046D0010020074BFA211A68C901D5
:1034900018681140054A02400A431A601A688023DE
:1034A000DB0519691A617047D0010020FF80FFFF1A
:1034B000084B0222196818684904490E1143064A4C
:1034C000090202400A431A601A688023DB05196961
:1034D0001A617047D0010020FF80FFFF8023DB05C9
:1034E000186C8001C00F7047084B042219687F20B8
:1034F0004906490E11431A6882430A431A601A6842
:103500008023DB0519691A617047C046D00100208D
:10351000074B7B2219687F2011401A6882430A43B7
:103520001A601A688023DB0519691A617047C04662
:10353000D001002000B50B4B1968002804D04906C3
:10354000490E0422114301E07B2211401A687F20BA
:1035500082430A431A601A688023DB0519691A61DD
:1035600000BDC046D0010020074BF6211A68C901F2
:1035700018681140054A02400A431A601A688023FD
:10358000DB0519691A617047D0010020FF80FFFF39
:10359000084B0422196818684904490E1143064A69
:1035A000090202400A431A601A688023DB05196980
:1035B0001A617047D0010020FF80FFFF8023DB05E8
:1035C000186C4001C00F70478023DB05DA690F21BA
:1035D0008A4302210A43DA61DA69F0218A435021E1
:1035E0000A43DA610B4A11790139C9B25977D869AE
:1035F00009490140C020C0020143D961D869074987
:103600000140902000040143D9619279013AD2B27D
:10361000DA777047FC010020FFFFF0FFFFFF0FFF8C
:1036200030B51A4A1A4B11881A4DC9188023DB0588
:1036300089B2188C1984598C0021598450889A8C2D
:10364000411989B2421E998492B2DC8CDA841C8DB5
:10365000114D19855C8D5A8544199D8D0F4DA4B26D
:1036600040199C8580B2DD8DD8851D8E1C865C8EB0
:103670005886988E9986D88EDA86188F1987588F33
:103680005A87988F9987D98FDA8730BDFC0100203F
:10369000FF070000FF030000FF050000FF0100001E
:1036A000F0B5284B284D1C782D784600651985B05B
:1036B0007618264F02957501EF19631803970024B9
:1036C000944613E0224AD5565A1CD2B2EF0F01920B
:1036D0007F19039A7F10D719083700976F463A79F8
:1036E000009F0233BA700127AF40E419029A934257
:1036F000E8DB184B760129331D784B424B41EB1820
:10370000154D5B102D78013B691801319B060F4D5B
:103710000905124F19430C437319F51969686C6058
:103720000F4C811CC9B2361962463171002A04D08F
:103730000C4A0121125691400A1C05B099699A6100
:10374000F0BDC0466D0E00200702002000100040B2
:1037500084740000A0170020C90D0020181000403C
:10376000101000406474000010B50D493F224B1C3E
:10377000DC7F8023DB0598690434144090432043A8
:1037800098610231C97F0124881C214041180A40F8
:1037900011029869034A02400A439A6110BDC0466B
:1037A000A0170020FFC0FFFF30B50D4BFC22920197
:1037B0001A6019688022D205106911611C68012104
:1037C00064041D68640E07480C432840240220430B
:1037D00018601B6810691361106C000E084030BD42
:1037E000D0010020FF80FFFF08B50020FFF7D6FBC7
:1037F0000120FFF7D3FB0220FFF7D0FB0320FFF7E8
:10380000CDFB0420FFF7CAFB0520FFF7C7FB06200E
:10381000FFF7C4FB00200321FFF7CEFB01200021AE
:10382000FFF7CAFB0220011CFFF7C6FB03200121A2
:10383000FFF7C2FB04200121FFF7BEFB0520022198
:10384000FFF7BAFB06200021FFF7B6FB034B04216C
:103850001A690A431A6162B608BDC04600ED00E06D
:1038600030B5224BEE241A68E401144020481A684F
:103870007F21024022431A601C688022D20515690C
:1038800014611C4CE47D002C16D01C6804256404D3
:10389000640E2C431D680C4024022840204318600D
:1038A0001868146910611C687B2020401C688C43D8
:1038B000211C0143196015E01C6804256406640E90
:1038C0002C431D680C408D43291C21431960196845
:1038D000146911611C68F621C90121401C6820404F
:1038E000084318601B681169136130BDD0010020C6
:1038F000FF80FFFFA017002000B572B60F4B01221A
:103900001A700F4BDA7D0F4B002A07D01A68F62188
:10391000C901114018680C4A024005E019687B2271
:1039200011401A687F2082430A431A601A68802374
:10393000DB0519691A6162B600BDC0467A00002035
:10394000A0170020D0010020FF80FFFF00B572B655
:10395000104B00221A70104BDA7D104B1968002AA8
:1039600008D049040422490E114318680C4A090280
:10397000024006E049060422490E11431A687F20DE
:1039800082430A431A601A688023DB0519691A61A9
:1039900062B600BD7A000020A0170020D0010020F0
:1039A000FF80FFFF014B18787047C0467A00002067
:1039B00010B58022D205116C80231B020B431364C7
:1039C000116C8023DB010B431364116C1F4B0B4004
:1039D00013641F4B802118684900014319601B685C
:1039E000916893601B4B7F21987C1B4B08401C689F
:1039F0001A4900042140014319601868A021C90533
:103A00008C6888601C68164820408424E4052043A4
:103A1000186018688C6888601248007840B20028E6
:103A200002D001280CD103E01C680F48204003E0BD
:103A30001C6880200004204318601B6888688B6025
:103A4000116C0A4B0B40136410BDC046FF7FFFFF93
:103A5000CC010020A0170020D4010020FFFF80FF30
:103A6000FFFFFF809B020020FFFF7FFFFFBFFFFFE4
:103A7000054B00221A708023DB05996C01229143CB
:103A800099641A707047C0460D000020034B002255
:103A90001A7080230122DB055A7070471000002045
:103AA00000B5064B72B61A78002A04D1C046C0464B
:103AB00062B630BFF6E762B600BDC0461000002017
:103AC000014B18707047C04679000020054B1968FB
:103AD0008023DB055A690902120E090A12060A43FD
:103AE0005A617047C4010020014B18607047C046FE
:103AF000C4010020054B00221A708023DB055969A0
:103B0000802252040A435A617047C0460E000020CA
:103B100000B5094B72B61A78002A04D1C046C046D7
:103B200062B630BFF6E762B6044A1278002A01D0C6
:103B300000221A7000BDC0460E000020790000204F
:103B4000014B18787047C0460E00002000B5054BA9
:103B500072B61A78002A03D1C046C04662B6F7E7AB
:103B600062B600BD0D00002000B50B4B0B4A72B6CB
:103B70001978002902D01178002904D1C046C04626
:103B800062B630BFF3E762B6054A1278002A01D068
:103B900000221A7000BDC0460E0000200D0000205B
:103BA0007900002010B51049104B04241960104B07
:103BB0001A6822431A601A680224A2431A601A681B
:103BC000012422430B4C1A60002222600A4A116031
:103BD000091A1160206811688842FBD21A68012115
:103BE0008A431A6010BDC046FFFFFF0014E000E0EA
:103BF00010E000E018E000E0D8010020074B084A80
:103C0000196818688904890E090202400A431A607B
:103C10001A688023DB0519691A617047D0010020FA
:103C2000FF80FFFF084B4022196818684904490EBD
:103C30001143064A090202400A431A601A688023A7
:103C4000DB0519691A617047D0010020FF80FFFF72
:103C50008023DB05186C4000C00F7047074BBE2166
:103C60001A68C90118681140054A02400A431A60DF
:103C70001A688023DB0519691A617047D00100209A
:103C8000FF80FFFF084B2022196818684904490E7D
:103C90001143064A090202400A431A601A68802347
:103CA000DB0519691A617047D0010020FF80FFFF12
:103CB0008023DB05186C8000C00F704708B5002812
:103CC00002D0FFF7DFFF01E0FFF7C8FF08BD70B5C6
:103CD000FFF7C4FFFFF792FF072401256F26281C7A
:103CE000A040B043C0B2FFF7E9FFFFF79BFFFFF72B
:103CF00085FF013CF3D2FFF7C5FFFFF793FFFFF706
:103D0000D7FFFFF77BFF70BD70B5051C07240126A8
:103D1000281C20413040FFF7D1FFFFF783FFFFF75A
:103D20006DFF013CF4D2FFF7ADFFFFF77BFFFFF71C
:103D3000BFFFFFF763FF70BD08B5002806D0FFF78F
:103D40008DFFFFF76FFFFFF79DFF03E0FFF79AFF7F
:103D5000FFF768FF08BDF7B500900F1C0192FFF751
:103D60007DFFFFF74BFF072401256F26281CA0408D
:103D7000B043C0B2FFF7A2FFFFF754FFFFF73EFFCB
:103D8000013CF3D2FFF77EFF0024FFF74BFF012633
:103D9000FFF78EFFFFF732FF15E00725009B185D48
:103DA00028413040FFF78AFFFFF73CFFFFF726FF6F
:103DB000013DF3D2FFF766FFFFF734FFFFF778FF0F
:103DC000FFF71CFF0134BC42E7DB019B002B06D050
:103DD000FFF744FFFFF726FFFFF754FF03E0FFF76D
:103DE00051FFFFF71FFFF7BD07B5031C01A8417086
:103DF00003700221FFF7AFFF07BDF7B5061C0F1CCC
:103E00000192FFF72BFFFFF7F9FE07240125281C7D
:103E10006E23A0409843C0B2FFF750FFFFF702FFA8
:103E2000FFF7ECFE013CF2D2FFF72CFF0024FFF776
:103E3000F9FEFFF73DFFFFF7E1FE29E0FFF7F2FE95
:103E4000FFF706FF0028FBD0002333550725FFF7B7
:103E5000E9FE335D0093FFF72BFF009BA84018435A
:103E60003055FFF7CBFE013DF1D27B1E9C4208DAB4
:103E7000FFF7F4FEFFF7D6FEFFF7C0FEFFF702FFE5
:103E800005E0FFF7FFFEFFF7CDFEFFF7B7FE0134B9
:103E9000BC42D3DB019B002B06D0FFF7DFFEFFF710
:103EA000C1FEFFF7EFFE03E0FFF7ECFEFFF7BAFEFF
:103EB000F7BD73B51E1C6B46D8710733151C181C53
:103EC0000C1C00220121FFF746FF291C321C201C7C
:103ED000FFF793FF73BD00B54000064A401800236A
:103EE000400180181A1CC11801338A720A2BFAD1BA
:103EF00000BDC04600100040F8B5234B00261F78D7
:103F000012E0281C0021FFF7E6FF204C281C227835
:103F10000021FFF7C5FB281C0121FFF7DCFF2278F9
:103F2000281C0121FFF7BCFB1749F5190A7818492D
:103F30000136CB7FD3189D42E3DB164B00251F785B
:103F400016E0201C0021FFF7C6FF104E201C32781F
:103F5000002153425A41FFF7A3FB201C0121FFF728
:103F6000BAFF3278201C53425A410121FFF798FBD7
:103F7000084BEC191A78084B013528331B78D318F5
:103F80009C42DEDBF8BDC0469C0200201C000020E5
:103F9000A51700209A020020A0170020F8B5802461
:103FA000E4052368674B002222601A601968A06844
:103FB000A160654904270A600968E068E160FC20A7
:103FC0006249800108600968206921616169626154
:103FD000A169A261E169E261216C8021C9012164CA
:103FE000616C5B486264A16CA021A264C905026097
:103FF0008D688A60256C574A2A40226405688022B1
:1040000052002A430260026888688A601A680821A0
:104010000A431A601A68A168A2601A684E4D3A43B2
:104020001A601A68A168A2601A6802210A431A601D
:104030001A68A168A2601A6801218A431A601A6886
:10404000A168A2602A1C343210781E6803224349FA
:10405000104000043140014319601968A068A16054
:10406000291C3331097818680A4091043C4A072614
:1040700002400A431A601A68A168A2601968802287
:1040800052030A431A601A68A168A2602A1C3232DD
:1040900011781868334A3140490502400A431A60D2
:1040A0001A68A168A2602A1C5E3211780F2948D8CC
:1040B0002A1C5F3212780F2A43D818680907B840C3
:1040C000F840014319600F210A4018681106264A7A
:1040D00002400A431A601B68A268A3606B1CDA7F67
:1040E000216C7F2352009943013A1A400B1C134361
:1040F00023641E4A636C13436364FFF765FAFFF79A
:104100008FFA2B1C31331B78194A1E403302266C60
:1041100016401E4326643822AA56A169154B120583
:10412000FA400B401343A361FFF7E6FE124A134B1C
:1041300002211A60124B1A6817431F601A688A43DB
:104140001A60F8BDCC010020C8010020D001002079
:10415000D4010020FFFF7FFFA0170020FFFFFCFF1E
:10416000FFFFF3FFFFFF1FFFFFFFFFF0FFFF0F0049
:10417000FFF8FFFFFFFF00F0FFFFFF0014E000E08B
:1041800010E000E038B5FFF709FFFFF72DFB022034
:10419000FEF7E9FE0020FEF7E6FE0120FEF7E3FE53
:1041A0000320FEF7E0FE0420FEF7EAFE0520FEF7FE
:1041B000E7FE0620FEF7E4FEFFF7FAFBFFF7D4FA6E
:1041C0003A4B5B7E002B10D0394B012219681868DE
:1041D0004900490E1143374A090602400A431A6052
:1041E0001A688023DB0519691A61304B9B7E002B0E
:1041F00010D02F4B0222196818684900490E11434C
:104200002C4A090602400A431A601A688023DB051B
:1042100019691A61254BDB7E002B10D0244B042238
:10422000196818684900490E1143224A09060240DC
:104230000A431A601A688023DB0519691A611E4A4D
:1042400080235178DB051971596890784900C007BF
:10425000490801435960D4785D68032117480C4030
:10426000A40328402043586014795D6814480C402A
:10427000240328402043586054795D6811480C405D
:104280002840A402204358609279586811400A02DD
:104290000D49014011435960FEF784FFFEF7D8FF36
:1042A000FFF746F8FFF7DCFA38BDC046A01700203C
:1042B000D0010020FFFFFF8014100020FF3FFFFF10
:1042C000FFCFFFFFFFF3FFFFFFFCFFFFF8B50B4F32
:1042D00000253E7809E000210A1C201CFFF7E0F9C8
:1042E000201C01210022FFF7DBF905493A780B7801
:1042F000AC19D31801359C42EDDBF8BD180800203D
:10430000AC020020F8B50B4F00253E7809E0201CD8
:1043100000210122FFF7C4F90121201C0A1CFFF72C
:10432000BFF905493A780B78AC19D31801359C428E
:10433000EDDBF8BD18080020AC02002000B5FEE758
:1043400000B5FEE700B5FEE700B5FEE700B5FEE705
:1043500000B5FEE700B5FEE700B5FEE700B5FEE7F5
:1043600000B5FEE700B5FEE700B5FEE700B5FEE7E5
:1043700000B5FEE700B5FEE700B5FEE708B580230F
:10438000DB05FF215A685960002299689A60D96854
:10439000DA601A69FC2292011A610D490D4A0E4B2E
:1043A00001E001CA01C38B42FBD30C4B0C49002234
:1043B00000E004C38B42FCD3FEF7CCFD094B002286
:1043C00000E004C38342FCD3FCF7FAFC08BDC046FE
:1043D00028000020DC5900000000002028000020F8
:1043E000401A0020401A002070477047704700B5FF
:1043F0000F4BDA7C0F4B012A02D0082A12D108E0B9
:104400000D4A1A600D4A5A600D4A9A600D4ADA60E8
:104410000DE00D4A1A600D4A5A600D4A9A600D4A25
:10442000DA6004E00C4A1A605A609A60DA6000BDF3
:10443000A01700207C00002055490000154A00000C
:10444000454A0000654B0000E5460000F1460000CB
:104450001947000065470000D943000000B5084B2C
:10446000084AD97C084B012904D108491160084A3F
:104470001A6103E007491160074A1A6100BDC0468E
:10448000A0170020DC0100207C0000207D480000F7
:1044900019490000DB430000DD430000014B58696F
:1044A0007047C0467C000020024B5A69101A5861C0
:1044B0007047C0467C000020014B00225A617047C3
:1044C0007C000020024B5A6908325A617047C0468E
:1044D0007C000020014B188B7047C0467C000020F8
:1044E000014B80B2188370477C00002000B5002388
:1044F000C25C0133002AFBD1013BD8B200BD70B5CC
:10450000041C0D1C161CFFF721FA201C4038102833
:104510006CD801F003F9090D11171B32364A506BA4
:104520006B6B6B6B6B5D6400314B0E221A705DE040
:104530002F4B0F221A7059E02E492F4B2F4AFF2E76
:1045400013D108E02A4B10221A704FE029492A4B58
:104550002B4AFF2E09D12B48AD010130C07F5219E3
:104560004000C0B208701A6040E06D017619760014
:104570000220921908701A6038E01D4B11221A703F
:1045800034E01C491C4B204AFF2E07D11D486D0109
:104590000130C07F521908701A6027E06D0176194A
:1045A0000120921908701A6020E0114B12221A7033
:1045B000FFF7A2F91AE00F4B02226D011A7076196B
:1045C0000E4B7600F6180C4B1E60FFF795F90DE0C8
:1045D000074B00221A700D4B01221A7006E00C4B9B
:1045E0000120D874074BD87401F012FF70BDC0468B
:1045F0003C010020E5010020E80100207C080020AB
:104600009C120020A01700201B1000202500002075
:10461000B002002010B52E4C2E4B21601860501EA9
:10462000062853D801F07AF8040B11201731420004
:10463000294B0E221A70294B01221A7046E0274A94
:10464000022010701A68236839E0244A0220107092
:104650001A68236822E0FFF779F91F4B00221A70CD
:104660001F4B01221A7031E01B4A062111701B4AB0
:10467000022111701A68164B52011B68D218194B8F
:104680005200D218184B1A6020E0134A062111700C
:10469000124A022111701A680D4B1B685201D21880
:1046A000124B5200D218104B1A600FE00A4A062132
:1046B00011700A4A022111701A68054B1B685201D9
:1046C000D2180B4B5200D218074B1A6010BDC046CF
:1046D00038010020340100203C010020F4010020BA
:1046E0002500002018030020E00100209C1200207B
:1046F0007C08002008B5FFF7FFF8FFF727F908BD91
:1047000008B5FFF7E7FE602806D1044B0B221A70AC
:10471000034B1A78034B1A7008BDC0463C010020B9
:104720000C0000501403002008B5FFF7D3FE6138D9
:10473000032813D80A4B00F0F1FF060A0E02094ABB
:1047400012781A700AE0084A12781A7006E0074ACE
:1047500012781A7002E0064A92791A7008BDC046B3
:104760000C00005026000020C5590000C45900006C
:104770002D0100207047C04610B5041C1C2826D00F
:104780000DD803284AD004D8012831D002286BD193
:104790003DE0052846D04BD31B2865D10FE0B1285A
:1047A00058D006D85F2847D0B0284BD01D285BD101
:1047B0001AE0B32856D050D3C02855D10EE02B4B69
:1047C00001201A688840011C114319604CE0274BF6
:1047D00001201A68884082431A6045E0244B0A226F
:1047E0001970244B1A703FE0224BC9B219703BE09C
:1047F000214BD974214BD97400F0C8FE204B1B68A3
:104800009847201C01F004FEFFF7D2F82CE01D4B66
:1048100059705A788023DB051A7125E0194B012263
:104820001A7021E0134B0B221A70174B19701BE002
:10483000144BC9B2997017E0002915D00D4B0C220A
:104840001A7011E000290FD0FEF78EFE0120FEF74E
:1048500071FE09E00B4B197106E00A4B01225971F8
:10486000DA7001E0FEF794FE10BDC046180000208B
:104870003D0100203C010020B0020020A0170020D4
:10488000940100202D01002014030020F7B5061C20
:10489000141C002B07D0042A0FD8214B9A5C053337
:1048A00000921F5D10E0042A0BD81D4B1A1C0A321F
:1048B000125D0F3300921F5D06E00F230027009367
:1048C00002E00F221F1C0092032C21D0002C21D0CB
:1048D00021E03C20211C00F083FF864205DD6B4671
:1048E0001B78C0B22B70687002E02F70301C6E70A5
:1048F000361A6043019A00236A60AB601218F6B260
:104900000192FEF7F9FFFFF74DF80028FBD104E014
:10491000022400E00124034D0191002ED9D1F7BDFE
:104920009A5900009C00002038B50D4C0B232370D1
:10493000051CFFF7DBFD607063780722023313402C
:10494000934203D16378013BDBB26370002365605F
:10495000A360FEF7D1FFFFF725F80028FBD138BD93
:104960009C000020F8B5FFF71DF8002850D1294B16
:1049700088331A68002A03DC274BDB6D002B47DDE8
:10498000264903230B70264B46331B781D1C9A4285
:1049900000DAD3B200224B701E48131C1F4929E0D5
:1049A000013303E05E0036180024B4466646023444
:1049B000A7193A26BF5F002FF2D0AB421CDA5C0089
:1049C000045B8E18347324B2DF002412561CE419E1
:1049D000E4B28E1934731C1C0C3464000419E4888E
:1049E000961C8E193473D61C24B224128E1934737B
:1049F00004320133AB42D5DB084B1A1C0C325A602F
:104A000000229A60FEF778FFFEF7CCFF0028FBD16A
:104A1000F8BDC046041800201C0800209C0000209F
:104A2000A017002070B5A023DB059D68FFF752FD9D
:104A30002D012D0F061C002407E0054A3019A3188C
:104A400080B21978FFF798FE0134AC42F5DB70BDF7
:104A50000C00005070B5FFF73DFD372852D00AD842
:104A600031284AD002D800280DD05AE0342839D055
:104A7000352856D13BE039284ED048D386280CD073
:104A8000C0284ED104E0314B9A7C314B1A705BE068
:104A9000304B1A782E4B1A7056E0FFF7FFFC0024BB
:104AA000A04210D12C4B2A4A1978117059782B4A00
:104AB00011705B681A182A4C1178021901301170B4
:104AC0000628F7D140E0244D6E68FFF7E7FC001997
:104AD000023836181E493278631801341A70082CCF
:104AE000F2D131E01F4B1A68194B1A602CE0802379
:104AF000DB051A79164B1A7026E0144B1A78144B02
:104B00001A7021E0184B1A78114B1A701CE0174BE1
:104B10001A780F4B1A7017E00C4B1A790C4B1A705D
:104B200012E0903883B2132B0ED8114B4001C518F8
:104B30000024FFF7B3FC0019281805490278631810
:104B400001341A70082CF4D170BDC046A0170020A3
:104B50000C0000503D0100209C0000200D00005082
:104B60000E0000509C0D002026000020B001002007
:104B70001B10002008B5FFF7ADFC86280BD1064BB3
:104B80009A68012A02DC9A6801329A609B68022BBB
:104B900001D1FEF7DBFE08BD9C000020034B186826
:104BA0005B68C01A434258417047C046D00000209D
:104BB00010B5041C0249062200F074FE201C10BD32
:104BC000F501002000B5044B58681B684230C01A3C
:104BD000412800DD423800BDD0000020014B18689C
:104BE0007047C04614000020014B18687047C0464B
:104BF000D0000020014B58687047C046D00000200C
:104C0000014B18607047C046D0000020014B58602F
:104C10007047C046D000002010B50A4C062221681B
:104C2000094B51431B680948591800F03BFE2368A3
:104C3000013323602368412B02DD2368423B23605C
:104C400010BDC046D000002014000020F501002057
:104C500008B5064B06485A681A601968062251437F
:104C6000044B1B68591800F01DFE08BDD000002041
:104C7000F50100201400002013B50B4C0090606873
:104C800006225043094B01911B686946181800F031
:104C900009FE6368013363606368412B02DD63686A
:104CA000423B636013BDC046D000002014000020CA
:104CB00007B506235A4301910449009008686946E4
:104CC00080181A1C00F0EEFD07BDC046140000203D
:104CD00070B5041CFFF762FF00281BD10F4B0621A3
:104CE00018685E680E4BC0B2F6B21D680F22013420
:104CF00000E0181CB0420DD00B1C4343EB181B788E
:104D00001340A34207D0431CDBB24138C0B2412B51
:104D1000EFD9EFE7034800B270BDC046D0000020D5
:104D200014000020FFFF0000F7B51F4A1F4C131CA2
:104D3000403319781E4B480840421860480041181B
:104D400089105960111C373109781961931CDB7F78
:104D50000132D17F013B58014E1E164A41180419F9
:104D600015484900801A89180190B44618E0951C2E
:104D7000BE017619114D7600755B019E0D527618B5
:104D80002D0135520025A5540096013A02E06246F5
:104D900000205F1C0238561CE9D1013B4039203C01
:104DA0005A1CF4D1F7BDC046A01700201B100020EC
:104DB000700E00209C1200207C0800200040004063
:104DC000F0B5AF4CAF4AE37C12689FB00F92AE4E85
:104DD000012B00D1BFE101240E943368980700D560
:104DE000B4E1A74C2123E35C002B1CD0A74F002586
:104DF00005E0A34C2123E35C0135AB4213DD3368AE
:104E000002201842F5D09E4CA14AE9012023E05C23
:104E100089183C6800230222A047994C2123E35CB7
:104E20000135AB42EBDC9B4B9B4C19689B4B013132
:104E30001A68890102328918994A0023E260994A66
:104E4000A360E361236249008D4C8A5A6221615E4E
:104E5000954C5143954A0912FF2089B21180A360F5
:104E6000E060236060600022914CE018914C028069
:104E7000E11802330A80402BF6D1814C2022A25C3B
:104E8000501E049000D23FE1E15C21223623A25C57
:104E9000E35C013A0B93C9083823E0561B920C914E
:104EA0003723E35C80B21A93247C834B10947A4CB2
:104EB000DB68E46908930D94774C246A1594764C6A
:104EC000A4680694744C64691694734CA46917948E
:104ED000714CE4680794744CA4681194724C1C9053
:104EE000E4681294704C246813946F4C64681494B2
:104EF0000B9C644218944C42199400240A94540167
:104F00001D941B9C013400D1E0E01D9C04986B4F64
:104F100023186B4C5A00141901946A4C02301C1966
:104F2000059003941CA8684C0021405E1B19009357
:104F3000D7191B9E099073E0189CA24200DA88E002
:104F4000009C22781A9C51B2A14202D0009C0132EE
:104F50002270019C2588109C2D09ED1AADB2002C01
:104F600005D0039C2DB223785D43AD11ADB20C98F2
:104F70002CB2844271DD0D9909190D910698844275
:104F800003DD0499169617910694079AA24200DD54
:104F90000794089B9C4206DD191C201C00F020FC95
:104FA0000A9909180A91002C5EDBA3101F2B00DD63
:104FB0001F233F485B00C25A0132C2520E9A002A98
:104FC00005D02BB2DB43DB171D40ADB22CB2099BE1
:104FD0009C4211DB119CB44200DA1196129CB4423F
:104FE00000DD1296139C0498844200DA1390049C0E
:104FF0001498844200DA1494029C059829492318D5
:10500000019C5B00403CADB25A5A01945D52039C36
:10501000403F203C0394009C203C0094013E55D32B
:10502000059C731C9B0102931E481B195B00195AB7
:105030000F9C8BB23A88002C03D00BB29B185B10EC
:105040009BB29BB2D21A0B9C12B23B80A24200DCF4
:1050500072E7009C002020707BE7199A94428DDA59
:10506000159B1B1B159389E7624292101F2A00DDD6
:105070001F2210485200835A013383529EE7C046D4
:10508000A01700207C0D002018000020DC0100206B
:105090008440004034010020040100203801002039
:1050A000FFFFFF7F00400040D4180020E4180020DC
:1050B000921800202C0E0020700E00209C12002060
:1050C0007C080020187700001B100020049C013C85
:1050D000049400D315E723480D9CC461159C046219
:1050E000069C8460169C4461179C8461079CC46084
:1050F0001D48119C8460129CC460139C0460149C25
:1051000044600A9C032C1DDC184E3378002B15D00C
:10511000174C2023E05C013810D32123E45C154FA9
:10512000013C65010021621C06D02A18D219231CFB
:105130001170203A013BFBD20138F4D200233370C6
:105140001FB0F0BD094B01221A70F9E70A4B0B485A
:105150001B68984745E63368082213405C425C416F
:105160000E943AE604010020D4180020D800002054
:10517000A01700201B1000208C000020B459000054
:10518000F7B5234BDA7C01239A4205D1214B1A68EB
:10519000082313405A425341002B37D11D4B1B6843
:1051A0001A0703D51C4B1D481B689847002529E0AA
:1051B000184B1B681C070AD5154B194E0133D87FB5
:1051C000184BE9011C68891903220123A047104BE1
:1051D00001350133DA7FAF010132019710E0019B05
:1051E0001148991849000B5A8027DC0F00263F010F
:1051F0009F427441644223409BB2445A013A435255
:10520000012AECD1094EF37F9D42D1DBF7BDC046A8
:10521000A0170020180000208C000020AE590000CC
:1052200084400040DC01002000400040A217002024
:10523000F0B540492123CB5C83B05A1E019200D2C5
:1052400075E001993C4A3D4B4F010092FF18394BE4
:1052500020215C5C013C27D3019A394953011B1979
:10526000384E5B005D189E1903E0023D023E013C92
:105270001AD3304A3721535C3A57298830889A42EA
:10528000F3D1314B1A680B091B1AC91A93423ADA47
:1052900000990B68DA0738D40001288000233B55B9
:1052A000023D023E013CE4D2019B203F013B0193C1
:1052B000CDD2009904230A68134222D00A6813420F
:1052C00030D11C4A2123D35C002B1AD01C4D002660
:1052D0002027184AD05D002808D01C49440000232C
:1052E000EA5A1209CA520233A342F9D100990B6853
:1052F0005A0710D40F492123CB5C01364035B34205
:10530000E7DC03B0F0BD2980C8E7114B11481B68EA
:1053100098473088C0E7104B0C491C6802220023D4
:10532000A047E7E70A4B0D481B689847C9E7024BBF
:105330000093BEE7A0170020180000201B100020DB
:105340007C0800209C120020700E0020001A002013
:105350008C000020B8590000DC010020C05900007A
:10536000F7B5164B9A1CD47F0133DA7F671E79019B
:105370008918134B49000132C91801920023A44631
:1053800018E06546EC1A019A0020A4010EE0A51869
:105390006E000C4D765B4518023D022E02D9023E8E
:1053A0002E8001E000262E800238013A012AEED13B
:1053B00001334039FA1A0132E3D1F7BDA0170020BA
:1053C000180300200040004070B5002808DA0F4B99
:1053D0001B68DA0716D50E4B0E481B68984711E07C
:1053E000831089101F2900DD1F210B4C00225D0056
:1053F000101C2C1903E0A55E0133401902328B42C8
:10540000F9DB01E00120404270BDC04618000020D9
:105410008C000020C65900009218002070B50029A9
:1054200008DD104B1B68DA0718D50F4B0F481B68B7
:10543000984713E0434249429B1089101F2900DD21
:105440001F210B4C00225D00101C2C1903E0A55EEF
:105450000133401902328B42F9DB01E00120404266
:1054600070BDC046180000208C000020D1590000FB
:105470002C0E002038B5414C6422201C404900F01D
:1054800011FA231C383300229A56013204D1221C0F
:1054900040321278D2081A70E36B013315D1231C05
:1054A0004A3300201B5E9800C018A31CD97F231C20
:1054B00048331B785BB2013B5A425341C91A490039
:1054C00000F08EF940434000E0632C4C251D3E2146
:1054D0006B5E013308D1231C40331B780521580033
:1054E000C01800F07DF9E887A51D3E22AB5E0133B0
:1054F00006D140342078052100F024F9C0B2E887B5
:105500001E4B1C1C56340020225E013214D11A1C82
:105510004A320021505E9A1C48331B78D17F5BB21F
:10552000013B5A425341C91A00F05AF94043C3178C
:105530009B0F18188010208010490B1C5833002036
:105540001A5E013203D10A1C403212781A804A1CBA
:10555000D27F4B1DDA778A1CD27F8B1DDA770A1C2B
:105560000023283213700A1C29321370054A06489A
:10557000D365642200F096F938BDC046A01700201C
:10558000007400001C080020B0020020F7B5534B47
:10559000D97C1A1C524B082901D1012100E00021BD
:1055A0001970131C2C331878023803282AD84D4B55
:1055B00000F0B4F80E0E021B14221A70CC225A709E
:1055C00000229A700322DA701A7102225A7118E0CE
:1055D00024221A70FB225A7000229A700322DA7079
:1055E000012102221A7159710BE024221A70FB2248
:1055F0005A7000229A700322DA7001221A715A71CD
:1056000002229A71374A384B1678344C7343009310
:10561000237D009801939778191C0137B94000F059
:10562000DFF8324D2860617D0098B94000F0D8F86D
:1056300016236860E356019AFA205343294AAB6067
:10564000137901259D40F300ADB29B1B6B43284F9E
:10565000DB108000DBB270433B80E18D68430901C1
:1056600000F0BEF8C0B2788000902D204643009B29
:10567000281C7043590100F0B3F81A4AC0B2B88030
:105680009379221C3032D8001B1A1078DB004000BE
:10569000E03301305843009B6843990100F0A0F8C3
:1056A000144A00231370144AC0B21370134AF880CE
:1056B0001370134A1370A21DD17F124A1170124A3F
:1056C0001370621DD17F114A28341170104A137073
:1056D0002178104A1170104A1370F7BDA0170020EE
:1056E0009B0200201410002040420F00A002002066
:1056F000FC0100209C020020C80D00209A0200201E
:10570000C90D0020070200206D0E0020AC02002011
:10571000180800206C0E00200602002002B471461A
:1057200049084900095C49008E4402BC7047C046E4
:1057300003B47146490840004900095A49008E44A3
:1057400003BC7047002934D00123002210B48842E2
:105750002CD301242407A14204D2814202D20901A0
:105760001B01F8E7E400A14204D2814202D24900C1
:105770005B00F8E7884201D3401A1A434C08A04264
:1057800002D3001B5C0822438C08A04202D3001BFA
:105790009C082243CC08A04202D3001BDC08224311
:1057A000002803D01B0901D00909E3E7101C10BC35
:1057B0007047002801D00020C04307B4024802A16E
:1057C0004018029003BDC046D90000000029F0D067
:1057D00003B5FFF7B9FF0EBC4243891A1847C0460C
:1057E000002941D010B4041C4C40A44601230022DF
:1057F000002900D54942002800D5404288422CD3D8
:1058000001242407A14204D2814202D209011B01D2
:10581000F8E7E400A14204D2814202D249005B00D1
:10582000F8E7884201D3401A1A434C08A04202D339
:10583000001B5C0822438C08A04202D3001B9C087A
:105840002243CC08A04202D3001BDC0822430028DC
:1058500003D01B0901D00909E3E7101C6446002CA2
:1058600000D5404210BC7047002806D003DB002062
:10587000C043400801E08020000607B4024802A1AE
:105880004018029003BDC046190000000029EBD06B
:1058900003B5FFF7A7FF0EBC4243891A1847C0465D
:1058A0007047C046F0B5051C0F2A2FD90B1C0343C7
:1058B000051C9C072CD10C1C031C151C2668103DD4
:1058C0001E6066685E60A6689E60E6681034DE60F2
:1058D00010330F2DF2D8131C103B1B0901331B0191
:1058E000C518C9180F231A40032A0FD90E1C2C1CE7
:1058F000131C80CE043B80C4032BFAD8131F9B08D3
:1059000001339B0003242240C918ED18002A05D05A
:105910000023CC5CEC5401339342FAD1F0BDC04675
:10592000537461636B004163746976650049646C0C
:105930006500434D5F41425300436D2044656C74E4
:105940006100434D5F4A49545445520044656C61BF
:105950007900544120494E005441204F5554005283
:10596000455345542100537461636B204F56464C98
:105970004F574544210052454756414C73004361FF
:105980006C6376616C004C545F50524F46494C49F1
:105990004E4700472D4166746572003D3D207061A1
:1059A0006C6D003D3D0000004900120E070D0A120B
:1059B00004060C09120F05110812000110022D49EE
:1059C00000000000526177004E65676564676500FE
:1059D000526566001D19506F7353746174455252BD
:1059E000004E65675374617445525200FFFF00001A
:1059F000041800200C020020010101FF0101000039
:105A0000840E00200120000801010000001A00207F
:105A1000FF01250000000000000000000000000061
:105A20000000000000000000000000000000000076
:105A30000000000000000000000000000000000066
:105A40000000000000000000000000000000000056
:105A50000000000000000000000000000000000046
:1064100008B5002802D0012840D127E0204A214BAE
:106420001A60214A214B1A60214A224B1A60224AE3
:10643000224B1A60224A234B1A60234A234B1A60CC
:10644000234A244B1A60244A244B1A60244A254BC1
:106450001A60254A254B1A60254A264B1A60264A9F
:10646000264B1A60264A274B1A6017E0264BDB7C26
:10647000092B0FD1254A264B1A60264A264B1A6053
:10648000264A274B1A60274A274B1A60274A284B6F
